{
	"contracts/organ.sol": {
		"OrganizationManager": {
			"abi": [
				{
					"inputs": [
						{
							"internalType": "string",
							"name": "_name",
							"type": "string"
						},
						{
							"internalType": "address",
							"name": "_wallet",
							"type": "address"
						},
						{
							"internalType": "uint8",
							"name": "_level",
							"type": "uint8"
						}
					],
					"name": "addOrganization",
					"outputs": [],
					"stateMutability": "nonpayable",
					"type": "function"
				},
				{
					"inputs": [
						{
							"internalType": "uint256",
							"name": "index",
							"type": "uint256"
						}
					],
					"name": "getOrganization",
					"outputs": [
						{
							"internalType": "uint256",
							"name": "id",
							"type": "uint256"
						},
						{
							"internalType": "string",
							"name": "name",
							"type": "string"
						},
						{
							"internalType": "address",
							"name": "wallet",
							"type": "address"
						},
						{
							"internalType": "uint256",
							"name": "reputation",
							"type": "uint256"
						},
						{
							"internalType": "uint8",
							"name": "level",
							"type": "uint8"
						}
					],
					"stateMutability": "view",
					"type": "function"
				},
				{
					"inputs": [],
					"name": "getOrganizationCount",
					"outputs": [
						{
							"internalType": "uint256",
							"name": "",
							"type": "uint256"
						}
					],
					"stateMutability": "view",
					"type": "function"
				},
				{
					"inputs": [
						{
							"internalType": "address",
							"name": "",
							"type": "address"
						}
					],
					"name": "isOrganization",
					"outputs": [
						{
							"internalType": "bool",
							"name": "",
							"type": "bool"
						}
					],
					"stateMutability": "view",
					"type": "function"
				},
				{
					"inputs": [
						{
							"internalType": "uint256",
							"name": "",
							"type": "uint256"
						}
					],
					"name": "organizations",
					"outputs": [
						{
							"internalType": "uint256",
							"name": "id",
							"type": "uint256"
						},
						{
							"internalType": "string",
							"name": "name",
							"type": "string"
						},
						{
							"internalType": "address",
							"name": "wallet",
							"type": "address"
						},
						{
							"internalType": "uint256",
							"name": "reputation",
							"type": "uint256"
						},
						{
							"internalType": "uint8",
							"name": "level",
							"type": "uint8"
						}
					],
					"stateMutability": "view",
					"type": "function"
				}
			],
			"devdoc": {
				"kind": "dev",
				"methods": {},
				"version": 1
			},
			"evm": {
				"assembly": "    /* \"contracts/organ.sol\":60:1449  contract OrganizationManager {... */\n  mstore(0x40, 0x80)\n  callvalue\n  dup1\n  iszero\n  tag_1\n  jumpi\n  0x00\n  dup1\n  revert\ntag_1:\n  pop\n  dataSize(sub_0)\n  dup1\n  dataOffset(sub_0)\n  0x00\n  codecopy\n  0x00\n  return\nstop\n\nsub_0: assembly {\n        /* \"contracts/organ.sol\":60:1449  contract OrganizationManager {... */\n      mstore(0x40, 0x80)\n      callvalue\n      dup1\n      iszero\n      tag_1\n      jumpi\n      0x00\n      dup1\n      revert\n    tag_1:\n      pop\n      jumpi(tag_2, lt(calldatasize, 0x04))\n      shr(0xe0, calldataload(0x00))\n      dup1\n      0x4526f690\n      eq\n      tag_3\n      jumpi\n      dup1\n      0x5734e5e3\n      eq\n      tag_4\n      jumpi\n      dup1\n      0x6d4fb71d\n      eq\n      tag_5\n      jumpi\n      dup1\n      0xb1ce8eab\n      eq\n      tag_6\n      jumpi\n      dup1\n      0xe792dd8a\n      eq\n      tag_7\n      jumpi\n    tag_2:\n      0x00\n      dup1\n      revert\n        /* \"contracts/organ.sol\":1056:1446  function getOrganization(uint256 index)... */\n    tag_3:\n      tag_8\n      0x04\n      dup1\n      calldatasize\n      sub\n      dup2\n      add\n      swap1\n      tag_9\n      swap2\n      swap1\n      tag_10\n      jump\t// in\n    tag_9:\n      tag_11\n      jump\t// in\n    tag_8:\n      mload(0x40)\n      tag_12\n      swap6\n      swap5\n      swap4\n      swap3\n      swap2\n      swap1\n      tag_13\n      jump\t// in\n    tag_12:\n      mload(0x40)\n      dup1\n      swap2\n      sub\n      swap1\n      return\n        /* \"contracts/organ.sol\":901:1009  function getOrganizationCount() public view returns (uint256) {... */\n    tag_4:\n      tag_14\n      tag_15\n      jump\t// in\n    tag_14:\n      mload(0x40)\n      tag_16\n      swap2\n      swap1\n      tag_17\n      jump\t// in\n    tag_16:\n      mload(0x40)\n      dup1\n      swap2\n      sub\n      swap1\n      return\n        /* \"contracts/organ.sol\":487:847  function addOrganization(... */\n    tag_5:\n      tag_18\n      0x04\n      dup1\n      calldatasize\n      sub\n      dup2\n      add\n      swap1\n      tag_19\n      swap2\n      swap1\n      tag_20\n      jump\t// in\n    tag_19:\n      tag_21\n      jump\t// in\n    tag_18:\n      stop\n        /* \"contracts/organ.sol\":359:405  mapping(address => bool) public isOrganization */\n    tag_6:\n      tag_22\n      0x04\n      dup1\n      calldatasize\n      sub\n      dup2\n      add\n      swap1\n      tag_23\n      swap2\n      swap1\n      tag_24\n      jump\t// in\n    tag_23:\n      tag_25\n      jump\t// in\n    tag_22:\n      mload(0x40)\n      tag_26\n      swap2\n      swap1\n      tag_27\n      jump\t// in\n    tag_26:\n      mload(0x40)\n      dup1\n      swap2\n      sub\n      swap1\n      return\n        /* \"contracts/organ.sol\":285:320  Organization[] public organizations */\n    tag_7:\n      tag_28\n      0x04\n      dup1\n      calldatasize\n      sub\n      dup2\n      add\n      swap1\n      tag_29\n      swap2\n      swap1\n      tag_10\n      jump\t// in\n    tag_29:\n      tag_30\n      jump\t// in\n    tag_28:\n      mload(0x40)\n      tag_31\n      swap6\n      swap5\n      swap4\n      swap3\n      swap2\n      swap1\n      tag_13\n      jump\t// in\n    tag_31:\n      mload(0x40)\n      dup1\n      swap2\n      sub\n      swap1\n      return\n        /* \"contracts/organ.sol\":1056:1446  function getOrganization(uint256 index)... */\n    tag_11:\n        /* \"contracts/organ.sol\":1158:1168  uint256 id */\n      0x00\n        /* \"contracts/organ.sol\":1183:1201  string memory name */\n      0x60\n        /* \"contracts/organ.sol\":1216:1230  address wallet */\n      0x00\n        /* \"contracts/organ.sol\":1245:1263  uint256 reputation */\n      dup1\n        /* \"contracts/organ.sol\":1278:1289  uint8 level */\n      0x00\n        /* \"contracts/organ.sol\":1317:1340  Organization memory org */\n      dup1\n        /* \"contracts/organ.sol\":1343:1356  organizations */\n      0x00\n        /* \"contracts/organ.sol\":1357:1362  index */\n      dup8\n        /* \"contracts/organ.sol\":1343:1363  organizations[index] */\n      dup2\n      sload\n      dup2\n      lt\n      tag_33\n      jumpi\n      tag_34\n      tag_35\n      jump\t// in\n    tag_34:\n    tag_33:\n      swap1\n      0x00\n      mstore\n      keccak256(0x00, 0x20)\n      swap1\n      0x05\n      mul\n      add\n        /* \"contracts/organ.sol\":1317:1363  Organization memory org = organizations[index] */\n      mload(0x40)\n      dup1\n      0xa0\n      add\n      0x40\n      mstore\n      swap1\n      dup2\n      0x00\n      dup3\n      add\n      sload\n      dup2\n      mstore\n      0x20\n      add\n      0x01\n      dup3\n      add\n      dup1\n      sload\n      tag_37\n      swap1\n      tag_38\n      jump\t// in\n    tag_37:\n      dup1\n      0x1f\n      add\n      0x20\n      dup1\n      swap2\n      div\n      mul\n      0x20\n      add\n      mload(0x40)\n      swap1\n      dup2\n      add\n      0x40\n      mstore\n      dup1\n      swap3\n      swap2\n      swap1\n      dup2\n      dup2\n      mstore\n      0x20\n      add\n      dup3\n      dup1\n      sload\n      tag_39\n      swap1\n      tag_38\n      jump\t// in\n    tag_39:\n      dup1\n      iszero\n      tag_40\n      jumpi\n      dup1\n      0x1f\n      lt\n      tag_41\n      jumpi\n      0x0100\n      dup1\n      dup4\n      sload\n      div\n      mul\n      dup4\n      mstore\n      swap2\n      0x20\n      add\n      swap2\n      jump(tag_40)\n    tag_41:\n      dup3\n      add\n      swap2\n      swap1\n      0x00\n      mstore\n      keccak256(0x00, 0x20)\n      swap1\n    tag_42:\n      dup2\n      sload\n      dup2\n      mstore\n      swap1\n      0x01\n      add\n      swap1\n      0x20\n      add\n      dup1\n      dup4\n      gt\n      tag_42\n      jumpi\n      dup3\n      swap1\n      sub\n      0x1f\n      and\n      dup3\n      add\n      swap2\n    tag_40:\n      pop\n      pop\n      pop\n      pop\n      pop\n      dup2\n      mstore\n      0x20\n      add\n      0x02\n      dup3\n      add\n      0x00\n      swap1\n      sload\n      swap1\n      0x0100\n      exp\n      swap1\n      div\n      0xffffffffffffffffffffffffffffffffffffffff\n      and\n      0xffffffffffffffffffffffffffffffffffffffff\n      and\n      0xffffffffffffffffffffffffffffffffffffffff\n      and\n      dup2\n      mstore\n      0x20\n      add\n      0x03\n      dup3\n      add\n      sload\n      dup2\n      mstore\n      0x20\n      add\n      0x04\n      dup3\n      add\n      0x00\n      swap1\n      sload\n      swap1\n      0x0100\n      exp\n      swap1\n      div\n      0xff\n      and\n      0xff\n      and\n      0xff\n      and\n      dup2\n      mstore\n      pop\n      pop\n      swap1\n      pop\n        /* \"contracts/organ.sol\":1382:1385  org */\n      dup1\n        /* \"contracts/organ.sol\":1382:1388  org.id */\n      0x00\n      add\n      mload\n        /* \"contracts/organ.sol\":1390:1393  org */\n      dup2\n        /* \"contracts/organ.sol\":1390:1398  org.name */\n      0x20\n      add\n      mload\n        /* \"contracts/organ.sol\":1400:1403  org */\n      dup3\n        /* \"contracts/organ.sol\":1400:1410  org.wallet */\n      0x40\n      add\n      mload\n        /* \"contracts/organ.sol\":1412:1415  org */\n      dup4\n        /* \"contracts/organ.sol\":1412:1426  org.reputation */\n      0x60\n      add\n      mload\n        /* \"contracts/organ.sol\":1428:1431  org */\n      dup5\n        /* \"contracts/organ.sol\":1428:1437  org.level */\n      0x80\n      add\n      mload\n        /* \"contracts/organ.sol\":1374:1438  return (org.id, org.name, org.wallet, org.reputation, org.level) */\n      swap6\n      pop\n      swap6\n      pop\n      swap6\n      pop\n      swap6\n      pop\n      swap6\n      pop\n      pop\n        /* \"contracts/organ.sol\":1056:1446  function getOrganization(uint256 index)... */\n      swap2\n      swap4\n      swap6\n      swap1\n      swap3\n      swap5\n      pop\n      jump\t// out\n        /* \"contracts/organ.sol\":901:1009  function getOrganizationCount() public view returns (uint256) {... */\n    tag_15:\n        /* \"contracts/organ.sol\":954:961  uint256 */\n      0x00\n        /* \"contracts/organ.sol\":981:994  organizations */\n      dup1\n        /* \"contracts/organ.sol\":981:1001  organizations.length */\n      dup1\n      sload\n      swap1\n      pop\n        /* \"contracts/organ.sol\":974:1001  return organizations.length */\n      swap1\n      pop\n        /* \"contracts/organ.sol\":901:1009  function getOrganizationCount() public view returns (uint256) {... */\n      swap1\n      jump\t// out\n        /* \"contracts/organ.sol\":487:847  function addOrganization(... */\n    tag_21:\n        /* \"contracts/organ.sol\":625:639  isOrganization */\n      0x01\n        /* \"contracts/organ.sol\":625:648  isOrganization[_wallet] */\n      0x00\n        /* \"contracts/organ.sol\":640:647  _wallet */\n      dup4\n        /* \"contracts/organ.sol\":625:648  isOrganization[_wallet] */\n      0xffffffffffffffffffffffffffffffffffffffff\n      and\n      0xffffffffffffffffffffffffffffffffffffffff\n      and\n      dup2\n      mstore\n      0x20\n      add\n      swap1\n      dup2\n      mstore\n      0x20\n      add\n      0x00\n      keccak256\n      0x00\n      swap1\n      sload\n      swap1\n      0x0100\n      exp\n      swap1\n      div\n      0xff\n      and\n        /* \"contracts/organ.sol\":624:648  !isOrganization[_wallet] */\n      iszero\n        /* \"contracts/organ.sol\":616:680  require(!isOrganization[_wallet], \"Organization already exists\") */\n      tag_45\n      jumpi\n      mload(0x40)\n      0x08c379a000000000000000000000000000000000000000000000000000000000\n      dup2\n      mstore\n      0x04\n      add\n      tag_46\n      swap1\n      tag_47\n      jump\t// in\n    tag_46:\n      mload(0x40)\n      dup1\n      swap2\n      sub\n      swap1\n      revert\n    tag_45:\n        /* \"contracts/organ.sol\":691:701  uint256 id */\n      0x00\n        /* \"contracts/organ.sol\":704:717  organizations */\n      dup1\n        /* \"contracts/organ.sol\":704:724  organizations.length */\n      dup1\n      sload\n      swap1\n      pop\n        /* \"contracts/organ.sol\":691:724  uint256 id = organizations.length */\n      swap1\n      pop\n        /* \"contracts/organ.sol\":735:748  organizations */\n      0x00\n        /* \"contracts/organ.sol\":754:797  Organization(id, _name, _wallet, 0, _level) */\n      mload(0x40)\n      dup1\n      0xa0\n      add\n      0x40\n      mstore\n      dup1\n        /* \"contracts/organ.sol\":767:769  id */\n      dup4\n        /* \"contracts/organ.sol\":754:797  Organization(id, _name, _wallet, 0, _level) */\n      dup2\n      mstore\n      0x20\n      add\n        /* \"contracts/organ.sol\":771:776  _name */\n      dup7\n        /* \"contracts/organ.sol\":754:797  Organization(id, _name, _wallet, 0, _level) */\n      dup2\n      mstore\n      0x20\n      add\n        /* \"contracts/organ.sol\":778:785  _wallet */\n      dup6\n        /* \"contracts/organ.sol\":754:797  Organization(id, _name, _wallet, 0, _level) */\n      0xffffffffffffffffffffffffffffffffffffffff\n      and\n      dup2\n      mstore\n      0x20\n      add\n        /* \"contracts/organ.sol\":787:788  0 */\n      0x00\n        /* \"contracts/organ.sol\":754:797  Organization(id, _name, _wallet, 0, _level) */\n      dup2\n      mstore\n      0x20\n      add\n        /* \"contracts/organ.sol\":790:796  _level */\n      dup5\n        /* \"contracts/organ.sol\":754:797  Organization(id, _name, _wallet, 0, _level) */\n      0xff\n      and\n      dup2\n      mstore\n      pop\n        /* \"contracts/organ.sol\":735:798  organizations.push(Organization(id, _name, _wallet, 0, _level)) */\n      swap1\n      dup1\n      0x01\n      dup2\n      sload\n      add\n      dup1\n      dup3\n      sstore\n      dup1\n      swap2\n      pop\n      pop\n      0x01\n      swap1\n      sub\n      swap1\n      0x00\n      mstore\n      keccak256(0x00, 0x20)\n      swap1\n      0x05\n      mul\n      add\n      0x00\n      swap1\n      swap2\n      swap1\n      swap2\n      swap1\n      swap2\n      pop\n      0x00\n      dup3\n      add\n      mload\n      dup2\n      0x00\n      add\n      sstore\n      0x20\n      dup3\n      add\n      mload\n      dup2\n      0x01\n      add\n      swap1\n      dup2\n      tag_49\n      swap2\n      swap1\n      tag_50\n      jump\t// in\n    tag_49:\n      pop\n      0x40\n      dup3\n      add\n      mload\n      dup2\n      0x02\n      add\n      exp(0x0100, 0x00)\n      dup2\n      sload\n      dup2\n      0xffffffffffffffffffffffffffffffffffffffff\n      mul\n      not\n      and\n      swap1\n      dup4\n      0xffffffffffffffffffffffffffffffffffffffff\n      and\n      mul\n      or\n      swap1\n      sstore\n      pop\n      0x60\n      dup3\n      add\n      mload\n      dup2\n      0x03\n      add\n      sstore\n      0x80\n      dup3\n      add\n      mload\n      dup2\n      0x04\n      add\n      exp(0x0100, 0x00)\n      dup2\n      sload\n      dup2\n      0xff\n      mul\n      not\n      and\n      swap1\n      dup4\n      0xff\n      and\n      mul\n      or\n      swap1\n      sstore\n      pop\n      pop\n      pop\n        /* \"contracts/organ.sol\":835:839  true */\n      0x01\n        /* \"contracts/organ.sol\":809:823  isOrganization */\n      dup1\n        /* \"contracts/organ.sol\":809:832  isOrganization[_wallet] */\n      0x00\n        /* \"contracts/organ.sol\":824:831  _wallet */\n      dup6\n        /* \"contracts/organ.sol\":809:832  isOrganization[_wallet] */\n      0xffffffffffffffffffffffffffffffffffffffff\n      and\n      0xffffffffffffffffffffffffffffffffffffffff\n      and\n      dup2\n      mstore\n      0x20\n      add\n      swap1\n      dup2\n      mstore\n      0x20\n      add\n      0x00\n      keccak256\n      0x00\n        /* \"contracts/organ.sol\":809:839  isOrganization[_wallet] = true */\n      0x0100\n      exp\n      dup2\n      sload\n      dup2\n      0xff\n      mul\n      not\n      and\n      swap1\n      dup4\n      iszero\n      iszero\n      mul\n      or\n      swap1\n      sstore\n      pop\n        /* \"contracts/organ.sol\":605:847  {... */\n      pop\n        /* \"contracts/organ.sol\":487:847  function addOrganization(... */\n      pop\n      pop\n      pop\n      jump\t// out\n        /* \"contracts/organ.sol\":359:405  mapping(address => bool) public isOrganization */\n    tag_25:\n      mstore(0x20, 0x01)\n      dup1\n      0x00\n      mstore\n      keccak256(0x00, 0x40)\n      0x00\n      swap2\n      pop\n      sload\n      swap1\n      0x0100\n      exp\n      swap1\n      div\n      0xff\n      and\n      dup2\n      jump\t// out\n        /* \"contracts/organ.sol\":285:320  Organization[] public organizations */\n    tag_30:\n      0x00\n      dup2\n      dup2\n      sload\n      dup2\n      lt\n      tag_51\n      jumpi\n      0x00\n      dup1\n      revert\n    tag_51:\n      swap1\n      0x00\n      mstore\n      keccak256(0x00, 0x20)\n      swap1\n      0x05\n      mul\n      add\n      0x00\n      swap2\n      pop\n      swap1\n      pop\n      dup1\n      0x00\n      add\n      sload\n      swap1\n      dup1\n      0x01\n      add\n      dup1\n      sload\n      tag_53\n      swap1\n      tag_38\n      jump\t// in\n    tag_53:\n      dup1\n      0x1f\n      add\n      0x20\n      dup1\n      swap2\n      div\n      mul\n      0x20\n      add\n      mload(0x40)\n      swap1\n      dup2\n      add\n      0x40\n      mstore\n      dup1\n      swap3\n      swap2\n      swap1\n      dup2\n      dup2\n      mstore\n      0x20\n      add\n      dup3\n      dup1\n      sload\n      tag_54\n      swap1\n      tag_38\n      jump\t// in\n    tag_54:\n      dup1\n      iszero\n      tag_55\n      jumpi\n      dup1\n      0x1f\n      lt\n      tag_56\n      jumpi\n      0x0100\n      dup1\n      dup4\n      sload\n      div\n      mul\n      dup4\n      mstore\n      swap2\n      0x20\n      add\n      swap2\n      jump(tag_55)\n    tag_56:\n      dup3\n      add\n      swap2\n      swap1\n      0x00\n      mstore\n      keccak256(0x00, 0x20)\n      swap1\n    tag_57:\n      dup2\n      sload\n      dup2\n      mstore\n      swap1\n      0x01\n      add\n      swap1\n      0x20\n      add\n      dup1\n      dup4\n      gt\n      tag_57\n      jumpi\n      dup3\n      swap1\n      sub\n      0x1f\n      and\n      dup3\n      add\n      swap2\n    tag_55:\n      pop\n      pop\n      pop\n      pop\n      pop\n      swap1\n      dup1\n      0x02\n      add\n      0x00\n      swap1\n      sload\n      swap1\n      0x0100\n      exp\n      swap1\n      div\n      0xffffffffffffffffffffffffffffffffffffffff\n      and\n      swap1\n      dup1\n      0x03\n      add\n      sload\n      swap1\n      dup1\n      0x04\n      add\n      0x00\n      swap1\n      sload\n      swap1\n      0x0100\n      exp\n      swap1\n      div\n      0xff\n      and\n      swap1\n      pop\n      dup6\n      jump\t// out\n        /* \"#utility.yul\":7:82   */\n    tag_58:\n        /* \"#utility.yul\":40:46   */\n      0x00\n        /* \"#utility.yul\":73:75   */\n      0x40\n        /* \"#utility.yul\":67:76   */\n      mload\n        /* \"#utility.yul\":57:76   */\n      swap1\n      pop\n        /* \"#utility.yul\":7:82   */\n      swap1\n      jump\t// out\n        /* \"#utility.yul\":88:205   */\n    tag_59:\n        /* \"#utility.yul\":197:198   */\n      0x00\n        /* \"#utility.yul\":194:195   */\n      dup1\n        /* \"#utility.yul\":187:199   */\n      revert\n        /* \"#utility.yul\":211:328   */\n    tag_60:\n        /* \"#utility.yul\":320:321   */\n      0x00\n        /* \"#utility.yul\":317:318   */\n      dup1\n        /* \"#utility.yul\":310:322   */\n      revert\n        /* \"#utility.yul\":334:411   */\n    tag_61:\n        /* \"#utility.yul\":371:378   */\n      0x00\n        /* \"#utility.yul\":400:405   */\n      dup2\n        /* \"#utility.yul\":389:405   */\n      swap1\n      pop\n        /* \"#utility.yul\":334:411   */\n      swap2\n      swap1\n      pop\n      jump\t// out\n        /* \"#utility.yul\":417:539   */\n    tag_62:\n        /* \"#utility.yul\":490:514   */\n      tag_114\n        /* \"#utility.yul\":508:513   */\n      dup2\n        /* \"#utility.yul\":490:514   */\n      tag_61\n      jump\t// in\n    tag_114:\n        /* \"#utility.yul\":483:488   */\n      dup2\n        /* \"#utility.yul\":480:515   */\n      eq\n        /* \"#utility.yul\":470:533   */\n      tag_115\n      jumpi\n        /* \"#utility.yul\":529:530   */\n      0x00\n        /* \"#utility.yul\":526:527   */\n      dup1\n        /* \"#utility.yul\":519:531   */\n      revert\n        /* \"#utility.yul\":470:533   */\n    tag_115:\n        /* \"#utility.yul\":417:539   */\n      pop\n      jump\t// out\n        /* \"#utility.yul\":545:684   */\n    tag_63:\n        /* \"#utility.yul\":591:596   */\n      0x00\n        /* \"#utility.yul\":629:635   */\n      dup2\n        /* \"#utility.yul\":616:636   */\n      calldataload\n        /* \"#utility.yul\":607:636   */\n      swap1\n      pop\n        /* \"#utility.yul\":645:678   */\n      tag_117\n        /* \"#utility.yul\":672:677   */\n      dup2\n        /* \"#utility.yul\":645:678   */\n      tag_62\n      jump\t// in\n    tag_117:\n        /* \"#utility.yul\":545:684   */\n      swap3\n      swap2\n      pop\n      pop\n      jump\t// out\n        /* \"#utility.yul\":690:1019   */\n    tag_10:\n        /* \"#utility.yul\":749:755   */\n      0x00\n        /* \"#utility.yul\":798:800   */\n      0x20\n        /* \"#utility.yul\":786:795   */\n      dup3\n        /* \"#utility.yul\":777:784   */\n      dup5\n        /* \"#utility.yul\":773:796   */\n      sub\n        /* \"#utility.yul\":769:801   */\n      slt\n        /* \"#utility.yul\":766:885   */\n      iszero\n      tag_119\n      jumpi\n        /* \"#utility.yul\":804:883   */\n      tag_120\n      tag_59\n      jump\t// in\n    tag_120:\n        /* \"#utility.yul\":766:885   */\n    tag_119:\n        /* \"#utility.yul\":924:925   */\n      0x00\n        /* \"#utility.yul\":949:1002   */\n      tag_121\n        /* \"#utility.yul\":994:1001   */\n      dup5\n        /* \"#utility.yul\":985:991   */\n      dup3\n        /* \"#utility.yul\":974:983   */\n      dup6\n        /* \"#utility.yul\":970:992   */\n      add\n        /* \"#utility.yul\":949:1002   */\n      tag_63\n      jump\t// in\n    tag_121:\n        /* \"#utility.yul\":939:1002   */\n      swap2\n      pop\n        /* \"#utility.yul\":895:1012   */\n      pop\n        /* \"#utility.yul\":690:1019   */\n      swap3\n      swap2\n      pop\n      pop\n      jump\t// out\n        /* \"#utility.yul\":1025:1143   */\n    tag_64:\n        /* \"#utility.yul\":1112:1136   */\n      tag_123\n        /* \"#utility.yul\":1130:1135   */\n      dup2\n        /* \"#utility.yul\":1112:1136   */\n      tag_61\n      jump\t// in\n    tag_123:\n        /* \"#utility.yul\":1107:1110   */\n      dup3\n        /* \"#utility.yul\":1100:1137   */\n      mstore\n        /* \"#utility.yul\":1025:1143   */\n      pop\n      pop\n      jump\t// out\n        /* \"#utility.yul\":1149:1248   */\n    tag_65:\n        /* \"#utility.yul\":1201:1207   */\n      0x00\n        /* \"#utility.yul\":1235:1240   */\n      dup2\n        /* \"#utility.yul\":1229:1241   */\n      mload\n        /* \"#utility.yul\":1219:1241   */\n      swap1\n      pop\n        /* \"#utility.yul\":1149:1248   */\n      swap2\n      swap1\n      pop\n      jump\t// out\n        /* \"#utility.yul\":1254:1423   */\n    tag_66:\n        /* \"#utility.yul\":1338:1349   */\n      0x00\n        /* \"#utility.yul\":1372:1378   */\n      dup3\n        /* \"#utility.yul\":1367:1370   */\n      dup3\n        /* \"#utility.yul\":1360:1379   */\n      mstore\n        /* \"#utility.yul\":1412:1416   */\n      0x20\n        /* \"#utility.yul\":1407:1410   */\n      dup3\n        /* \"#utility.yul\":1403:1417   */\n      add\n        /* \"#utility.yul\":1388:1417   */\n      swap1\n      pop\n        /* \"#utility.yul\":1254:1423   */\n      swap3\n      swap2\n      pop\n      pop\n      jump\t// out\n        /* \"#utility.yul\":1429:1568   */\n    tag_67:\n        /* \"#utility.yul\":1518:1524   */\n      dup3\n        /* \"#utility.yul\":1513:1516   */\n      dup2\n        /* \"#utility.yul\":1508:1511   */\n      dup4\n        /* \"#utility.yul\":1502:1525   */\n      mcopy\n        /* \"#utility.yul\":1559:1560   */\n      0x00\n        /* \"#utility.yul\":1550:1556   */\n      dup4\n        /* \"#utility.yul\":1545:1548   */\n      dup4\n        /* \"#utility.yul\":1541:1557   */\n      add\n        /* \"#utility.yul\":1534:1561   */\n      mstore\n        /* \"#utility.yul\":1429:1568   */\n      pop\n      pop\n      pop\n      jump\t// out\n        /* \"#utility.yul\":1574:1676   */\n    tag_68:\n        /* \"#utility.yul\":1615:1621   */\n      0x00\n        /* \"#utility.yul\":1666:1668   */\n      0x1f\n        /* \"#utility.yul\":1662:1669   */\n      not\n        /* \"#utility.yul\":1657:1659   */\n      0x1f\n        /* \"#utility.yul\":1650:1655   */\n      dup4\n        /* \"#utility.yul\":1646:1660   */\n      add\n        /* \"#utility.yul\":1642:1670   */\n      and\n        /* \"#utility.yul\":1632:1670   */\n      swap1\n      pop\n        /* \"#utility.yul\":1574:1676   */\n      swap2\n      swap1\n      pop\n      jump\t// out\n        /* \"#utility.yul\":1682:2059   */\n    tag_69:\n        /* \"#utility.yul\":1770:1773   */\n      0x00\n        /* \"#utility.yul\":1798:1837   */\n      tag_129\n        /* \"#utility.yul\":1831:1836   */\n      dup3\n        /* \"#utility.yul\":1798:1837   */\n      tag_65\n      jump\t// in\n    tag_129:\n        /* \"#utility.yul\":1853:1924   */\n      tag_130\n        /* \"#utility.yul\":1917:1923   */\n      dup2\n        /* \"#utility.yul\":1912:1915   */\n      dup6\n        /* \"#utility.yul\":1853:1924   */\n      tag_66\n      jump\t// in\n    tag_130:\n        /* \"#utility.yul\":1846:1924   */\n      swap4\n      pop\n        /* \"#utility.yul\":1933:1998   */\n      tag_131\n        /* \"#utility.yul\":1991:1997   */\n      dup2\n        /* \"#utility.yul\":1986:1989   */\n      dup6\n        /* \"#utility.yul\":1979:1983   */\n      0x20\n        /* \"#utility.yul\":1972:1977   */\n      dup7\n        /* \"#utility.yul\":1968:1984   */\n      add\n        /* \"#utility.yul\":1933:1998   */\n      tag_67\n      jump\t// in\n    tag_131:\n        /* \"#utility.yul\":2023:2052   */\n      tag_132\n        /* \"#utility.yul\":2045:2051   */\n      dup2\n        /* \"#utility.yul\":2023:2052   */\n      tag_68\n      jump\t// in\n    tag_132:\n        /* \"#utility.yul\":2018:2021   */\n      dup5\n        /* \"#utility.yul\":2014:2053   */\n      add\n        /* \"#utility.yul\":2007:2053   */\n      swap2\n      pop\n        /* \"#utility.yul\":1774:2059   */\n      pop\n        /* \"#utility.yul\":1682:2059   */\n      swap3\n      swap2\n      pop\n      pop\n      jump\t// out\n        /* \"#utility.yul\":2065:2191   */\n    tag_70:\n        /* \"#utility.yul\":2102:2109   */\n      0x00\n        /* \"#utility.yul\":2142:2184   */\n      0xffffffffffffffffffffffffffffffffffffffff\n        /* \"#utility.yul\":2135:2140   */\n      dup3\n        /* \"#utility.yul\":2131:2185   */\n      and\n        /* \"#utility.yul\":2120:2185   */\n      swap1\n      pop\n        /* \"#utility.yul\":2065:2191   */\n      swap2\n      swap1\n      pop\n      jump\t// out\n        /* \"#utility.yul\":2197:2293   */\n    tag_71:\n        /* \"#utility.yul\":2234:2241   */\n      0x00\n        /* \"#utility.yul\":2263:2287   */\n      tag_135\n        /* \"#utility.yul\":2281:2286   */\n      dup3\n        /* \"#utility.yul\":2263:2287   */\n      tag_70\n      jump\t// in\n    tag_135:\n        /* \"#utility.yul\":2252:2287   */\n      swap1\n      pop\n        /* \"#utility.yul\":2197:2293   */\n      swap2\n      swap1\n      pop\n      jump\t// out\n        /* \"#utility.yul\":2299:2417   */\n    tag_72:\n        /* \"#utility.yul\":2386:2410   */\n      tag_137\n        /* \"#utility.yul\":2404:2409   */\n      dup2\n        /* \"#utility.yul\":2386:2410   */\n      tag_71\n      jump\t// in\n    tag_137:\n        /* \"#utility.yul\":2381:2384   */\n      dup3\n        /* \"#utility.yul\":2374:2411   */\n      mstore\n        /* \"#utility.yul\":2299:2417   */\n      pop\n      pop\n      jump\t// out\n        /* \"#utility.yul\":2423:2509   */\n    tag_73:\n        /* \"#utility.yul\":2458:2465   */\n      0x00\n        /* \"#utility.yul\":2498:2502   */\n      0xff\n        /* \"#utility.yul\":2491:2496   */\n      dup3\n        /* \"#utility.yul\":2487:2503   */\n      and\n        /* \"#utility.yul\":2476:2503   */\n      swap1\n      pop\n        /* \"#utility.yul\":2423:2509   */\n      swap2\n      swap1\n      pop\n      jump\t// out\n        /* \"#utility.yul\":2515:2627   */\n    tag_74:\n        /* \"#utility.yul\":2598:2620   */\n      tag_140\n        /* \"#utility.yul\":2614:2619   */\n      dup2\n        /* \"#utility.yul\":2598:2620   */\n      tag_73\n      jump\t// in\n    tag_140:\n        /* \"#utility.yul\":2593:2596   */\n      dup3\n        /* \"#utility.yul\":2586:2621   */\n      mstore\n        /* \"#utility.yul\":2515:2627   */\n      pop\n      pop\n      jump\t// out\n        /* \"#utility.yul\":2633:3380   */\n    tag_13:\n        /* \"#utility.yul\":2854:2858   */\n      0x00\n        /* \"#utility.yul\":2892:2895   */\n      0xa0\n        /* \"#utility.yul\":2881:2890   */\n      dup3\n        /* \"#utility.yul\":2877:2896   */\n      add\n        /* \"#utility.yul\":2869:2896   */\n      swap1\n      pop\n        /* \"#utility.yul\":2906:2977   */\n      tag_142\n        /* \"#utility.yul\":2974:2975   */\n      0x00\n        /* \"#utility.yul\":2963:2972   */\n      dup4\n        /* \"#utility.yul\":2959:2976   */\n      add\n        /* \"#utility.yul\":2950:2956   */\n      dup9\n        /* \"#utility.yul\":2906:2977   */\n      tag_64\n      jump\t// in\n    tag_142:\n        /* \"#utility.yul\":3024:3033   */\n      dup2\n        /* \"#utility.yul\":3018:3022   */\n      dup2\n        /* \"#utility.yul\":3014:3034   */\n      sub\n        /* \"#utility.yul\":3009:3011   */\n      0x20\n        /* \"#utility.yul\":2998:3007   */\n      dup4\n        /* \"#utility.yul\":2994:3012   */\n      add\n        /* \"#utility.yul\":2987:3035   */\n      mstore\n        /* \"#utility.yul\":3052:3130   */\n      tag_143\n        /* \"#utility.yul\":3125:3129   */\n      dup2\n        /* \"#utility.yul\":3116:3122   */\n      dup8\n        /* \"#utility.yul\":3052:3130   */\n      tag_69\n      jump\t// in\n    tag_143:\n        /* \"#utility.yul\":3044:3130   */\n      swap1\n      pop\n        /* \"#utility.yul\":3140:3212   */\n      tag_144\n        /* \"#utility.yul\":3208:3210   */\n      0x40\n        /* \"#utility.yul\":3197:3206   */\n      dup4\n        /* \"#utility.yul\":3193:3211   */\n      add\n        /* \"#utility.yul\":3184:3190   */\n      dup7\n        /* \"#utility.yul\":3140:3212   */\n      tag_72\n      jump\t// in\n    tag_144:\n        /* \"#utility.yul\":3222:3294   */\n      tag_145\n        /* \"#utility.yul\":3290:3292   */\n      0x60\n        /* \"#utility.yul\":3279:3288   */\n      dup4\n        /* \"#utility.yul\":3275:3293   */\n      add\n        /* \"#utility.yul\":3266:3272   */\n      dup6\n        /* \"#utility.yul\":3222:3294   */\n      tag_64\n      jump\t// in\n    tag_145:\n        /* \"#utility.yul\":3304:3373   */\n      tag_146\n        /* \"#utility.yul\":3368:3371   */\n      0x80\n        /* \"#utility.yul\":3357:3366   */\n      dup4\n        /* \"#utility.yul\":3353:3372   */\n      add\n        /* \"#utility.yul\":3344:3350   */\n      dup5\n        /* \"#utility.yul\":3304:3373   */\n      tag_74\n      jump\t// in\n    tag_146:\n        /* \"#utility.yul\":2633:3380   */\n      swap7\n      swap6\n      pop\n      pop\n      pop\n      pop\n      pop\n      pop\n      jump\t// out\n        /* \"#utility.yul\":3386:3608   */\n    tag_17:\n        /* \"#utility.yul\":3479:3483   */\n      0x00\n        /* \"#utility.yul\":3517:3519   */\n      0x20\n        /* \"#utility.yul\":3506:3515   */\n      dup3\n        /* \"#utility.yul\":3502:3520   */\n      add\n        /* \"#utility.yul\":3494:3520   */\n      swap1\n      pop\n        /* \"#utility.yul\":3530:3601   */\n      tag_148\n        /* \"#utility.yul\":3598:3599   */\n      0x00\n        /* \"#utility.yul\":3587:3596   */\n      dup4\n        /* \"#utility.yul\":3583:3600   */\n      add\n        /* \"#utility.yul\":3574:3580   */\n      dup5\n        /* \"#utility.yul\":3530:3601   */\n      tag_64\n      jump\t// in\n    tag_148:\n        /* \"#utility.yul\":3386:3608   */\n      swap3\n      swap2\n      pop\n      pop\n      jump\t// out\n        /* \"#utility.yul\":3614:3731   */\n    tag_75:\n        /* \"#utility.yul\":3723:3724   */\n      0x00\n        /* \"#utility.yul\":3720:3721   */\n      dup1\n        /* \"#utility.yul\":3713:3725   */\n      revert\n        /* \"#utility.yul\":3737:3854   */\n    tag_76:\n        /* \"#utility.yul\":3846:3847   */\n      0x00\n        /* \"#utility.yul\":3843:3844   */\n      dup1\n        /* \"#utility.yul\":3836:3848   */\n      revert\n        /* \"#utility.yul\":3860:4040   */\n    tag_77:\n        /* \"#utility.yul\":3908:3985   */\n      0x4e487b7100000000000000000000000000000000000000000000000000000000\n        /* \"#utility.yul\":3905:3906   */\n      0x00\n        /* \"#utility.yul\":3898:3986   */\n      mstore\n        /* \"#utility.yul\":4005:4009   */\n      0x41\n        /* \"#utility.yul\":4002:4003   */\n      0x04\n        /* \"#utility.yul\":3995:4010   */\n      mstore\n        /* \"#utility.yul\":4029:4033   */\n      0x24\n        /* \"#utility.yul\":4026:4027   */\n      0x00\n        /* \"#utility.yul\":4019:4034   */\n      revert\n        /* \"#utility.yul\":4046:4327   */\n    tag_78:\n        /* \"#utility.yul\":4129:4156   */\n      tag_153\n        /* \"#utility.yul\":4151:4155   */\n      dup3\n        /* \"#utility.yul\":4129:4156   */\n      tag_68\n      jump\t// in\n    tag_153:\n        /* \"#utility.yul\":4121:4127   */\n      dup2\n        /* \"#utility.yul\":4117:4157   */\n      add\n        /* \"#utility.yul\":4259:4265   */\n      dup2\n        /* \"#utility.yul\":4247:4257   */\n      dup2\n        /* \"#utility.yul\":4244:4266   */\n      lt\n        /* \"#utility.yul\":4223:4241   */\n      0xffffffffffffffff\n        /* \"#utility.yul\":4211:4221   */\n      dup3\n        /* \"#utility.yul\":4208:4242   */\n      gt\n        /* \"#utility.yul\":4205:4267   */\n      or\n        /* \"#utility.yul\":4202:4290   */\n      iszero\n      tag_154\n      jumpi\n        /* \"#utility.yul\":4270:4288   */\n      tag_155\n      tag_77\n      jump\t// in\n    tag_155:\n        /* \"#utility.yul\":4202:4290   */\n    tag_154:\n        /* \"#utility.yul\":4310:4320   */\n      dup1\n        /* \"#utility.yul\":4306:4308   */\n      0x40\n        /* \"#utility.yul\":4299:4321   */\n      mstore\n        /* \"#utility.yul\":4089:4327   */\n      pop\n        /* \"#utility.yul\":4046:4327   */\n      pop\n      pop\n      jump\t// out\n        /* \"#utility.yul\":4333:4462   */\n    tag_79:\n        /* \"#utility.yul\":4367:4373   */\n      0x00\n        /* \"#utility.yul\":4394:4414   */\n      tag_157\n      tag_58\n      jump\t// in\n    tag_157:\n        /* \"#utility.yul\":4384:4414   */\n      swap1\n      pop\n        /* \"#utility.yul\":4423:4456   */\n      tag_158\n        /* \"#utility.yul\":4451:4455   */\n      dup3\n        /* \"#utility.yul\":4443:4449   */\n      dup3\n        /* \"#utility.yul\":4423:4456   */\n      tag_78\n      jump\t// in\n    tag_158:\n        /* \"#utility.yul\":4333:4462   */\n      swap2\n      swap1\n      pop\n      jump\t// out\n        /* \"#utility.yul\":4468:4776   */\n    tag_80:\n        /* \"#utility.yul\":4530:4534   */\n      0x00\n        /* \"#utility.yul\":4620:4638   */\n      0xffffffffffffffff\n        /* \"#utility.yul\":4612:4618   */\n      dup3\n        /* \"#utility.yul\":4609:4639   */\n      gt\n        /* \"#utility.yul\":4606:4662   */\n      iszero\n      tag_160\n      jumpi\n        /* \"#utility.yul\":4642:4660   */\n      tag_161\n      tag_77\n      jump\t// in\n    tag_161:\n        /* \"#utility.yul\":4606:4662   */\n    tag_160:\n        /* \"#utility.yul\":4680:4709   */\n      tag_162\n        /* \"#utility.yul\":4702:4708   */\n      dup3\n        /* \"#utility.yul\":4680:4709   */\n      tag_68\n      jump\t// in\n    tag_162:\n        /* \"#utility.yul\":4672:4709   */\n      swap1\n      pop\n        /* \"#utility.yul\":4764:4768   */\n      0x20\n        /* \"#utility.yul\":4758:4762   */\n      dup2\n        /* \"#utility.yul\":4754:4769   */\n      add\n        /* \"#utility.yul\":4746:4769   */\n      swap1\n      pop\n        /* \"#utility.yul\":4468:4776   */\n      swap2\n      swap1\n      pop\n      jump\t// out\n        /* \"#utility.yul\":4782:4930   */\n    tag_81:\n        /* \"#utility.yul\":4880:4886   */\n      dup3\n        /* \"#utility.yul\":4875:4878   */\n      dup2\n        /* \"#utility.yul\":4870:4873   */\n      dup4\n        /* \"#utility.yul\":4857:4887   */\n      calldatacopy\n        /* \"#utility.yul\":4921:4922   */\n      0x00\n        /* \"#utility.yul\":4912:4918   */\n      dup4\n        /* \"#utility.yul\":4907:4910   */\n      dup4\n        /* \"#utility.yul\":4903:4919   */\n      add\n        /* \"#utility.yul\":4896:4923   */\n      mstore\n        /* \"#utility.yul\":4782:4930   */\n      pop\n      pop\n      pop\n      jump\t// out\n        /* \"#utility.yul\":4936:5361   */\n    tag_82:\n        /* \"#utility.yul\":5014:5019   */\n      0x00\n        /* \"#utility.yul\":5039:5105   */\n      tag_165\n        /* \"#utility.yul\":5055:5104   */\n      tag_166\n        /* \"#utility.yul\":5097:5103   */\n      dup5\n        /* \"#utility.yul\":5055:5104   */\n      tag_80\n      jump\t// in\n    tag_166:\n        /* \"#utility.yul\":5039:5105   */\n      tag_79\n      jump\t// in\n    tag_165:\n        /* \"#utility.yul\":5030:5105   */\n      swap1\n      pop\n        /* \"#utility.yul\":5128:5134   */\n      dup3\n        /* \"#utility.yul\":5121:5126   */\n      dup2\n        /* \"#utility.yul\":5114:5135   */\n      mstore\n        /* \"#utility.yul\":5166:5170   */\n      0x20\n        /* \"#utility.yul\":5159:5164   */\n      dup2\n        /* \"#utility.yul\":5155:5171   */\n      add\n        /* \"#utility.yul\":5204:5207   */\n      dup5\n        /* \"#utility.yul\":5195:5201   */\n      dup5\n        /* \"#utility.yul\":5190:5193   */\n      dup5\n        /* \"#utility.yul\":5186:5202   */\n      add\n        /* \"#utility.yul\":5183:5208   */\n      gt\n        /* \"#utility.yul\":5180:5292   */\n      iszero\n      tag_167\n      jumpi\n        /* \"#utility.yul\":5211:5290   */\n      tag_168\n      tag_76\n      jump\t// in\n    tag_168:\n        /* \"#utility.yul\":5180:5292   */\n    tag_167:\n        /* \"#utility.yul\":5301:5355   */\n      tag_169\n        /* \"#utility.yul\":5348:5354   */\n      dup5\n        /* \"#utility.yul\":5343:5346   */\n      dup3\n        /* \"#utility.yul\":5338:5341   */\n      dup6\n        /* \"#utility.yul\":5301:5355   */\n      tag_81\n      jump\t// in\n    tag_169:\n        /* \"#utility.yul\":5020:5361   */\n      pop\n        /* \"#utility.yul\":4936:5361   */\n      swap4\n      swap3\n      pop\n      pop\n      pop\n      jump\t// out\n        /* \"#utility.yul\":5381:5721   */\n    tag_83:\n        /* \"#utility.yul\":5437:5442   */\n      0x00\n        /* \"#utility.yul\":5486:5489   */\n      dup3\n        /* \"#utility.yul\":5479:5483   */\n      0x1f\n        /* \"#utility.yul\":5471:5477   */\n      dup4\n        /* \"#utility.yul\":5467:5484   */\n      add\n        /* \"#utility.yul\":5463:5490   */\n      slt\n        /* \"#utility.yul\":5453:5575   */\n      tag_171\n      jumpi\n        /* \"#utility.yul\":5494:5573   */\n      tag_172\n      tag_75\n      jump\t// in\n    tag_172:\n        /* \"#utility.yul\":5453:5575   */\n    tag_171:\n        /* \"#utility.yul\":5611:5617   */\n      dup2\n        /* \"#utility.yul\":5598:5618   */\n      calldataload\n        /* \"#utility.yul\":5636:5715   */\n      tag_173\n        /* \"#utility.yul\":5711:5714   */\n      dup5\n        /* \"#utility.yul\":5703:5709   */\n      dup3\n        /* \"#utility.yul\":5696:5700   */\n      0x20\n        /* \"#utility.yul\":5688:5694   */\n      dup7\n        /* \"#utility.yul\":5684:5701   */\n      add\n        /* \"#utility.yul\":5636:5715   */\n      tag_82\n      jump\t// in\n    tag_173:\n        /* \"#utility.yul\":5627:5715   */\n      swap2\n      pop\n        /* \"#utility.yul\":5443:5721   */\n      pop\n        /* \"#utility.yul\":5381:5721   */\n      swap3\n      swap2\n      pop\n      pop\n      jump\t// out\n        /* \"#utility.yul\":5727:5849   */\n    tag_84:\n        /* \"#utility.yul\":5800:5824   */\n      tag_175\n        /* \"#utility.yul\":5818:5823   */\n      dup2\n        /* \"#utility.yul\":5800:5824   */\n      tag_71\n      jump\t// in\n    tag_175:\n        /* \"#utility.yul\":5793:5798   */\n      dup2\n        /* \"#utility.yul\":5790:5825   */\n      eq\n        /* \"#utility.yul\":5780:5843   */\n      tag_176\n      jumpi\n        /* \"#utility.yul\":5839:5840   */\n      0x00\n        /* \"#utility.yul\":5836:5837   */\n      dup1\n        /* \"#utility.yul\":5829:5841   */\n      revert\n        /* \"#utility.yul\":5780:5843   */\n    tag_176:\n        /* \"#utility.yul\":5727:5849   */\n      pop\n      jump\t// out\n        /* \"#utility.yul\":5855:5994   */\n    tag_85:\n        /* \"#utility.yul\":5901:5906   */\n      0x00\n        /* \"#utility.yul\":5939:5945   */\n      dup2\n        /* \"#utility.yul\":5926:5946   */\n      calldataload\n        /* \"#utility.yul\":5917:5946   */\n      swap1\n      pop\n        /* \"#utility.yul\":5955:5988   */\n      tag_178\n        /* \"#utility.yul\":5982:5987   */\n      dup2\n        /* \"#utility.yul\":5955:5988   */\n      tag_84\n      jump\t// in\n    tag_178:\n        /* \"#utility.yul\":5855:5994   */\n      swap3\n      swap2\n      pop\n      pop\n      jump\t// out\n        /* \"#utility.yul\":6000:6118   */\n    tag_86:\n        /* \"#utility.yul\":6071:6093   */\n      tag_180\n        /* \"#utility.yul\":6087:6092   */\n      dup2\n        /* \"#utility.yul\":6071:6093   */\n      tag_73\n      jump\t// in\n    tag_180:\n        /* \"#utility.yul\":6064:6069   */\n      dup2\n        /* \"#utility.yul\":6061:6094   */\n      eq\n        /* \"#utility.yul\":6051:6112   */\n      tag_181\n      jumpi\n        /* \"#utility.yul\":6108:6109   */\n      0x00\n        /* \"#utility.yul\":6105:6106   */\n      dup1\n        /* \"#utility.yul\":6098:6110   */\n      revert\n        /* \"#utility.yul\":6051:6112   */\n    tag_181:\n        /* \"#utility.yul\":6000:6118   */\n      pop\n      jump\t// out\n        /* \"#utility.yul\":6124:6259   */\n    tag_87:\n        /* \"#utility.yul\":6168:6173   */\n      0x00\n        /* \"#utility.yul\":6206:6212   */\n      dup2\n        /* \"#utility.yul\":6193:6213   */\n      calldataload\n        /* \"#utility.yul\":6184:6213   */\n      swap1\n      pop\n        /* \"#utility.yul\":6222:6253   */\n      tag_183\n        /* \"#utility.yul\":6247:6252   */\n      dup2\n        /* \"#utility.yul\":6222:6253   */\n      tag_86\n      jump\t// in\n    tag_183:\n        /* \"#utility.yul\":6124:6259   */\n      swap3\n      swap2\n      pop\n      pop\n      jump\t// out\n        /* \"#utility.yul\":6265:7060   */\n    tag_20:\n        /* \"#utility.yul\":6350:6356   */\n      0x00\n        /* \"#utility.yul\":6358:6364   */\n      dup1\n        /* \"#utility.yul\":6366:6372   */\n      0x00\n        /* \"#utility.yul\":6415:6417   */\n      0x60\n        /* \"#utility.yul\":6403:6412   */\n      dup5\n        /* \"#utility.yul\":6394:6401   */\n      dup7\n        /* \"#utility.yul\":6390:6413   */\n      sub\n        /* \"#utility.yul\":6386:6418   */\n      slt\n        /* \"#utility.yul\":6383:6502   */\n      iszero\n      tag_185\n      jumpi\n        /* \"#utility.yul\":6421:6500   */\n      tag_186\n      tag_59\n      jump\t// in\n    tag_186:\n        /* \"#utility.yul\":6383:6502   */\n    tag_185:\n        /* \"#utility.yul\":6569:6570   */\n      0x00\n        /* \"#utility.yul\":6558:6567   */\n      dup5\n        /* \"#utility.yul\":6554:6571   */\n      add\n        /* \"#utility.yul\":6541:6572   */\n      calldataload\n        /* \"#utility.yul\":6599:6617   */\n      0xffffffffffffffff\n        /* \"#utility.yul\":6591:6597   */\n      dup2\n        /* \"#utility.yul\":6588:6618   */\n      gt\n        /* \"#utility.yul\":6585:6702   */\n      iszero\n      tag_187\n      jumpi\n        /* \"#utility.yul\":6621:6700   */\n      tag_188\n      tag_60\n      jump\t// in\n    tag_188:\n        /* \"#utility.yul\":6585:6702   */\n    tag_187:\n        /* \"#utility.yul\":6726:6789   */\n      tag_189\n        /* \"#utility.yul\":6781:6788   */\n      dup7\n        /* \"#utility.yul\":6772:6778   */\n      dup3\n        /* \"#utility.yul\":6761:6770   */\n      dup8\n        /* \"#utility.yul\":6757:6779   */\n      add\n        /* \"#utility.yul\":6726:6789   */\n      tag_83\n      jump\t// in\n    tag_189:\n        /* \"#utility.yul\":6716:6789   */\n      swap4\n      pop\n        /* \"#utility.yul\":6512:6799   */\n      pop\n        /* \"#utility.yul\":6838:6840   */\n      0x20\n        /* \"#utility.yul\":6864:6917   */\n      tag_190\n        /* \"#utility.yul\":6909:6916   */\n      dup7\n        /* \"#utility.yul\":6900:6906   */\n      dup3\n        /* \"#utility.yul\":6889:6898   */\n      dup8\n        /* \"#utility.yul\":6885:6907   */\n      add\n        /* \"#utility.yul\":6864:6917   */\n      tag_85\n      jump\t// in\n    tag_190:\n        /* \"#utility.yul\":6854:6917   */\n      swap3\n      pop\n        /* \"#utility.yul\":6809:6927   */\n      pop\n        /* \"#utility.yul\":6966:6968   */\n      0x40\n        /* \"#utility.yul\":6992:7043   */\n      tag_191\n        /* \"#utility.yul\":7035:7042   */\n      dup7\n        /* \"#utility.yul\":7026:7032   */\n      dup3\n        /* \"#utility.yul\":7015:7024   */\n      dup8\n        /* \"#utility.yul\":7011:7033   */\n      add\n        /* \"#utility.yul\":6992:7043   */\n      tag_87\n      jump\t// in\n    tag_191:\n        /* \"#utility.yul\":6982:7043   */\n      swap2\n      pop\n        /* \"#utility.yul\":6937:7053   */\n      pop\n        /* \"#utility.yul\":6265:7060   */\n      swap3\n      pop\n      swap3\n      pop\n      swap3\n      jump\t// out\n        /* \"#utility.yul\":7066:7395   */\n    tag_24:\n        /* \"#utility.yul\":7125:7131   */\n      0x00\n        /* \"#utility.yul\":7174:7176   */\n      0x20\n        /* \"#utility.yul\":7162:7171   */\n      dup3\n        /* \"#utility.yul\":7153:7160   */\n      dup5\n        /* \"#utility.yul\":7149:7172   */\n      sub\n        /* \"#utility.yul\":7145:7177   */\n      slt\n        /* \"#utility.yul\":7142:7261   */\n      iszero\n      tag_193\n      jumpi\n        /* \"#utility.yul\":7180:7259   */\n      tag_194\n      tag_59\n      jump\t// in\n    tag_194:\n        /* \"#utility.yul\":7142:7261   */\n    tag_193:\n        /* \"#utility.yul\":7300:7301   */\n      0x00\n        /* \"#utility.yul\":7325:7378   */\n      tag_195\n        /* \"#utility.yul\":7370:7377   */\n      dup5\n        /* \"#utility.yul\":7361:7367   */\n      dup3\n        /* \"#utility.yul\":7350:7359   */\n      dup6\n        /* \"#utility.yul\":7346:7368   */\n      add\n        /* \"#utility.yul\":7325:7378   */\n      tag_85\n      jump\t// in\n    tag_195:\n        /* \"#utility.yul\":7315:7378   */\n      swap2\n      pop\n        /* \"#utility.yul\":7271:7388   */\n      pop\n        /* \"#utility.yul\":7066:7395   */\n      swap3\n      swap2\n      pop\n      pop\n      jump\t// out\n        /* \"#utility.yul\":7401:7491   */\n    tag_88:\n        /* \"#utility.yul\":7435:7442   */\n      0x00\n        /* \"#utility.yul\":7478:7483   */\n      dup2\n        /* \"#utility.yul\":7471:7484   */\n      iszero\n        /* \"#utility.yul\":7464:7485   */\n      iszero\n        /* \"#utility.yul\":7453:7485   */\n      swap1\n      pop\n        /* \"#utility.yul\":7401:7491   */\n      swap2\n      swap1\n      pop\n      jump\t// out\n        /* \"#utility.yul\":7497:7606   */\n    tag_89:\n        /* \"#utility.yul\":7578:7599   */\n      tag_198\n        /* \"#utility.yul\":7593:7598   */\n      dup2\n        /* \"#utility.yul\":7578:7599   */\n      tag_88\n      jump\t// in\n    tag_198:\n        /* \"#utility.yul\":7573:7576   */\n      dup3\n        /* \"#utility.yul\":7566:7600   */\n      mstore\n        /* \"#utility.yul\":7497:7606   */\n      pop\n      pop\n      jump\t// out\n        /* \"#utility.yul\":7612:7822   */\n    tag_27:\n        /* \"#utility.yul\":7699:7703   */\n      0x00\n        /* \"#utility.yul\":7737:7739   */\n      0x20\n        /* \"#utility.yul\":7726:7735   */\n      dup3\n        /* \"#utility.yul\":7722:7740   */\n      add\n        /* \"#utility.yul\":7714:7740   */\n      swap1\n      pop\n        /* \"#utility.yul\":7750:7815   */\n      tag_200\n        /* \"#utility.yul\":7812:7813   */\n      0x00\n        /* \"#utility.yul\":7801:7810   */\n      dup4\n        /* \"#utility.yul\":7797:7814   */\n      add\n        /* \"#utility.yul\":7788:7794   */\n      dup5\n        /* \"#utility.yul\":7750:7815   */\n      tag_89\n      jump\t// in\n    tag_200:\n        /* \"#utility.yul\":7612:7822   */\n      swap3\n      swap2\n      pop\n      pop\n      jump\t// out\n        /* \"#utility.yul\":7828:8008   */\n    tag_35:\n        /* \"#utility.yul\":7876:7953   */\n      0x4e487b7100000000000000000000000000000000000000000000000000000000\n        /* \"#utility.yul\":7873:7874   */\n      0x00\n        /* \"#utility.yul\":7866:7954   */\n      mstore\n        /* \"#utility.yul\":7973:7977   */\n      0x32\n        /* \"#utility.yul\":7970:7971   */\n      0x04\n        /* \"#utility.yul\":7963:7978   */\n      mstore\n        /* \"#utility.yul\":7997:8001   */\n      0x24\n        /* \"#utility.yul\":7994:7995   */\n      0x00\n        /* \"#utility.yul\":7987:8002   */\n      revert\n        /* \"#utility.yul\":8014:8194   */\n    tag_90:\n        /* \"#utility.yul\":8062:8139   */\n      0x4e487b7100000000000000000000000000000000000000000000000000000000\n        /* \"#utility.yul\":8059:8060   */\n      0x00\n        /* \"#utility.yul\":8052:8140   */\n      mstore\n        /* \"#utility.yul\":8159:8163   */\n      0x22\n        /* \"#utility.yul\":8156:8157   */\n      0x04\n        /* \"#utility.yul\":8149:8164   */\n      mstore\n        /* \"#utility.yul\":8183:8187   */\n      0x24\n        /* \"#utility.yul\":8180:8181   */\n      0x00\n        /* \"#utility.yul\":8173:8188   */\n      revert\n        /* \"#utility.yul\":8200:8520   */\n    tag_38:\n        /* \"#utility.yul\":8244:8250   */\n      0x00\n        /* \"#utility.yul\":8281:8282   */\n      0x02\n        /* \"#utility.yul\":8275:8279   */\n      dup3\n        /* \"#utility.yul\":8271:8283   */\n      div\n        /* \"#utility.yul\":8261:8283   */\n      swap1\n      pop\n        /* \"#utility.yul\":8328:8329   */\n      0x01\n        /* \"#utility.yul\":8322:8326   */\n      dup3\n        /* \"#utility.yul\":8318:8330   */\n      and\n        /* \"#utility.yul\":8349:8367   */\n      dup1\n        /* \"#utility.yul\":8339:8420   */\n      tag_204\n      jumpi\n        /* \"#utility.yul\":8405:8409   */\n      0x7f\n        /* \"#utility.yul\":8397:8403   */\n      dup3\n        /* \"#utility.yul\":8393:8410   */\n      and\n        /* \"#utility.yul\":8383:8410   */\n      swap2\n      pop\n        /* \"#utility.yul\":8339:8420   */\n    tag_204:\n        /* \"#utility.yul\":8467:8469   */\n      0x20\n        /* \"#utility.yul\":8459:8465   */\n      dup3\n        /* \"#utility.yul\":8456:8470   */\n      lt\n        /* \"#utility.yul\":8436:8454   */\n      dup2\n        /* \"#utility.yul\":8433:8471   */\n      sub\n        /* \"#utility.yul\":8430:8514   */\n      tag_205\n      jumpi\n        /* \"#utility.yul\":8486:8504   */\n      tag_206\n      tag_90\n      jump\t// in\n    tag_206:\n        /* \"#utility.yul\":8430:8514   */\n    tag_205:\n        /* \"#utility.yul\":8251:8520   */\n      pop\n        /* \"#utility.yul\":8200:8520   */\n      swap2\n      swap1\n      pop\n      jump\t// out\n        /* \"#utility.yul\":8526:8703   */\n    tag_91:\n        /* \"#utility.yul\":8666:8695   */\n      0x4f7267616e697a6174696f6e20616c7265616479206578697374730000000000\n        /* \"#utility.yul\":8662:8663   */\n      0x00\n        /* \"#utility.yul\":8654:8660   */\n      dup3\n        /* \"#utility.yul\":8650:8664   */\n      add\n        /* \"#utility.yul\":8643:8696   */\n      mstore\n        /* \"#utility.yul\":8526:8703   */\n      pop\n      jump\t// out\n        /* \"#utility.yul\":8709:9075   */\n    tag_92:\n        /* \"#utility.yul\":8851:8854   */\n      0x00\n        /* \"#utility.yul\":8872:8939   */\n      tag_209\n        /* \"#utility.yul\":8936:8938   */\n      0x1b\n        /* \"#utility.yul\":8931:8934   */\n      dup4\n        /* \"#utility.yul\":8872:8939   */\n      tag_66\n      jump\t// in\n    tag_209:\n        /* \"#utility.yul\":8865:8939   */\n      swap2\n      pop\n        /* \"#utility.yul\":8948:9041   */\n      tag_210\n        /* \"#utility.yul\":9037:9040   */\n      dup3\n        /* \"#utility.yul\":8948:9041   */\n      tag_91\n      jump\t// in\n    tag_210:\n        /* \"#utility.yul\":9066:9068   */\n      0x20\n        /* \"#utility.yul\":9061:9064   */\n      dup3\n        /* \"#utility.yul\":9057:9069   */\n      add\n        /* \"#utility.yul\":9050:9069   */\n      swap1\n      pop\n        /* \"#utility.yul\":8709:9075   */\n      swap2\n      swap1\n      pop\n      jump\t// out\n        /* \"#utility.yul\":9081:9500   */\n    tag_47:\n        /* \"#utility.yul\":9247:9251   */\n      0x00\n        /* \"#utility.yul\":9285:9287   */\n      0x20\n        /* \"#utility.yul\":9274:9283   */\n      dup3\n        /* \"#utility.yul\":9270:9288   */\n      add\n        /* \"#utility.yul\":9262:9288   */\n      swap1\n      pop\n        /* \"#utility.yul\":9334:9343   */\n      dup2\n        /* \"#utility.yul\":9328:9332   */\n      dup2\n        /* \"#utility.yul\":9324:9344   */\n      sub\n        /* \"#utility.yul\":9320:9321   */\n      0x00\n        /* \"#utility.yul\":9309:9318   */\n      dup4\n        /* \"#utility.yul\":9305:9322   */\n      add\n        /* \"#utility.yul\":9298:9345   */\n      mstore\n        /* \"#utility.yul\":9362:9493   */\n      tag_212\n        /* \"#utility.yul\":9488:9492   */\n      dup2\n        /* \"#utility.yul\":9362:9493   */\n      tag_92\n      jump\t// in\n    tag_212:\n        /* \"#utility.yul\":9354:9493   */\n      swap1\n      pop\n        /* \"#utility.yul\":9081:9500   */\n      swap2\n      swap1\n      pop\n      jump\t// out\n        /* \"#utility.yul\":9506:9647   */\n    tag_93:\n        /* \"#utility.yul\":9555:9559   */\n      0x00\n        /* \"#utility.yul\":9578:9581   */\n      dup2\n        /* \"#utility.yul\":9570:9581   */\n      swap1\n      pop\n        /* \"#utility.yul\":9601:9604   */\n      dup2\n        /* \"#utility.yul\":9598:9599   */\n      0x00\n        /* \"#utility.yul\":9591:9605   */\n      mstore\n        /* \"#utility.yul\":9635:9639   */\n      0x20\n        /* \"#utility.yul\":9632:9633   */\n      0x00\n        /* \"#utility.yul\":9622:9640   */\n      keccak256\n        /* \"#utility.yul\":9614:9640   */\n      swap1\n      pop\n        /* \"#utility.yul\":9506:9647   */\n      swap2\n      swap1\n      pop\n      jump\t// out\n        /* \"#utility.yul\":9653:9746   */\n    tag_94:\n        /* \"#utility.yul\":9690:9696   */\n      0x00\n        /* \"#utility.yul\":9737:9739   */\n      0x20\n        /* \"#utility.yul\":9732:9734   */\n      0x1f\n        /* \"#utility.yul\":9725:9730   */\n      dup4\n        /* \"#utility.yul\":9721:9735   */\n      add\n        /* \"#utility.yul\":9717:9740   */\n      div\n        /* \"#utility.yul\":9707:9740   */\n      swap1\n      pop\n        /* \"#utility.yul\":9653:9746   */\n      swap2\n      swap1\n      pop\n      jump\t// out\n        /* \"#utility.yul\":9752:9859   */\n    tag_95:\n        /* \"#utility.yul\":9796:9804   */\n      0x00\n        /* \"#utility.yul\":9846:9851   */\n      dup3\n        /* \"#utility.yul\":9840:9844   */\n      dup3\n        /* \"#utility.yul\":9836:9852   */\n      shl\n        /* \"#utility.yul\":9815:9852   */\n      swap1\n      pop\n        /* \"#utility.yul\":9752:9859   */\n      swap3\n      swap2\n      pop\n      pop\n      jump\t// out\n        /* \"#utility.yul\":9865:10258   */\n    tag_96:\n        /* \"#utility.yul\":9934:9940   */\n      0x00\n        /* \"#utility.yul\":9984:9985   */\n      0x08\n        /* \"#utility.yul\":9972:9982   */\n      dup4\n        /* \"#utility.yul\":9968:9986   */\n      mul\n        /* \"#utility.yul\":10007:10104   */\n      tag_217\n        /* \"#utility.yul\":10037:10103   */\n      0xffffffffffffffffffffffffffffffffffffffffffffffffffffffffffffffff\n        /* \"#utility.yul\":10026:10035   */\n      dup3\n        /* \"#utility.yul\":10007:10104   */\n      tag_95\n      jump\t// in\n    tag_217:\n        /* \"#utility.yul\":10125:10164   */\n      tag_218\n        /* \"#utility.yul\":10155:10163   */\n      dup7\n        /* \"#utility.yul\":10144:10153   */\n      dup4\n        /* \"#utility.yul\":10125:10164   */\n      tag_95\n      jump\t// in\n    tag_218:\n        /* \"#utility.yul\":10113:10164   */\n      swap6\n      pop\n        /* \"#utility.yul\":10197:10201   */\n      dup1\n        /* \"#utility.yul\":10193:10202   */\n      not\n        /* \"#utility.yul\":10186:10191   */\n      dup5\n        /* \"#utility.yul\":10182:10203   */\n      and\n        /* \"#utility.yul\":10173:10203   */\n      swap4\n      pop\n        /* \"#utility.yul\":10246:10250   */\n      dup1\n        /* \"#utility.yul\":10236:10244   */\n      dup7\n        /* \"#utility.yul\":10232:10251   */\n      and\n        /* \"#utility.yul\":10225:10230   */\n      dup5\n        /* \"#utility.yul\":10222:10252   */\n      or\n        /* \"#utility.yul\":10212:10252   */\n      swap3\n      pop\n        /* \"#utility.yul\":9941:10258   */\n      pop\n      pop\n        /* \"#utility.yul\":9865:10258   */\n      swap4\n      swap3\n      pop\n      pop\n      pop\n      jump\t// out\n        /* \"#utility.yul\":10264:10324   */\n    tag_97:\n        /* \"#utility.yul\":10292:10295   */\n      0x00\n        /* \"#utility.yul\":10313:10318   */\n      dup2\n        /* \"#utility.yul\":10306:10318   */\n      swap1\n      pop\n        /* \"#utility.yul\":10264:10324   */\n      swap2\n      swap1\n      pop\n      jump\t// out\n        /* \"#utility.yul\":10330:10472   */\n    tag_98:\n        /* \"#utility.yul\":10380:10389   */\n      0x00\n        /* \"#utility.yul\":10413:10466   */\n      tag_221\n        /* \"#utility.yul\":10431:10465   */\n      tag_222\n        /* \"#utility.yul\":10440:10464   */\n      tag_223\n        /* \"#utility.yul\":10458:10463   */\n      dup5\n        /* \"#utility.yul\":10440:10464   */\n      tag_61\n      jump\t// in\n    tag_223:\n        /* \"#utility.yul\":10431:10465   */\n      tag_97\n      jump\t// in\n    tag_222:\n        /* \"#utility.yul\":10413:10466   */\n      tag_61\n      jump\t// in\n    tag_221:\n        /* \"#utility.yul\":10400:10466   */\n      swap1\n      pop\n        /* \"#utility.yul\":10330:10472   */\n      swap2\n      swap1\n      pop\n      jump\t// out\n        /* \"#utility.yul\":10478:10553   */\n    tag_99:\n        /* \"#utility.yul\":10521:10524   */\n      0x00\n        /* \"#utility.yul\":10542:10547   */\n      dup2\n        /* \"#utility.yul\":10535:10547   */\n      swap1\n      pop\n        /* \"#utility.yul\":10478:10553   */\n      swap2\n      swap1\n      pop\n      jump\t// out\n        /* \"#utility.yul\":10559:10828   */\n    tag_100:\n        /* \"#utility.yul\":10669:10708   */\n      tag_226\n        /* \"#utility.yul\":10700:10707   */\n      dup4\n        /* \"#utility.yul\":10669:10708   */\n      tag_98\n      jump\t// in\n    tag_226:\n        /* \"#utility.yul\":10730:10821   */\n      tag_227\n        /* \"#utility.yul\":10779:10820   */\n      tag_228\n        /* \"#utility.yul\":10803:10819   */\n      dup3\n        /* \"#utility.yul\":10779:10820   */\n      tag_99\n      jump\t// in\n    tag_228:\n        /* \"#utility.yul\":10771:10777   */\n      dup5\n        /* \"#utility.yul\":10764:10768   */\n      dup5\n        /* \"#utility.yul\":10758:10769   */\n      sload\n        /* \"#utility.yul\":10730:10821   */\n      tag_96\n      jump\t// in\n    tag_227:\n        /* \"#utility.yul\":10724:10728   */\n      dup3\n        /* \"#utility.yul\":10717:10822   */\n      sstore\n        /* \"#utility.yul\":10635:10828   */\n      pop\n        /* \"#utility.yul\":10559:10828   */\n      pop\n      pop\n      pop\n      jump\t// out\n        /* \"#utility.yul\":10834:10907   */\n    tag_101:\n        /* \"#utility.yul\":10879:10882   */\n      0x00\n        /* \"#utility.yul\":10834:10907   */\n      swap1\n      jump\t// out\n        /* \"#utility.yul\":10913:11102   */\n    tag_102:\n        /* \"#utility.yul\":10990:11022   */\n      tag_231\n      tag_101\n      jump\t// in\n    tag_231:\n        /* \"#utility.yul\":11031:11096   */\n      tag_232\n        /* \"#utility.yul\":11089:11095   */\n      dup2\n        /* \"#utility.yul\":11081:11087   */\n      dup5\n        /* \"#utility.yul\":11075:11079   */\n      dup5\n        /* \"#utility.yul\":11031:11096   */\n      tag_100\n      jump\t// in\n    tag_232:\n        /* \"#utility.yul\":10966:11102   */\n      pop\n        /* \"#utility.yul\":10913:11102   */\n      pop\n      pop\n      jump\t// out\n        /* \"#utility.yul\":11108:11294   */\n    tag_103:\n        /* \"#utility.yul\":11168:11288   */\n    tag_234:\n        /* \"#utility.yul\":11185:11188   */\n      dup2\n        /* \"#utility.yul\":11178:11183   */\n      dup2\n        /* \"#utility.yul\":11175:11189   */\n      lt\n        /* \"#utility.yul\":11168:11288   */\n      iszero\n      tag_236\n      jumpi\n        /* \"#utility.yul\":11239:11278   */\n      tag_237\n        /* \"#utility.yul\":11276:11277   */\n      0x00\n        /* \"#utility.yul\":11269:11274   */\n      dup3\n        /* \"#utility.yul\":11239:11278   */\n      tag_102\n      jump\t// in\n    tag_237:\n        /* \"#utility.yul\":11212:11213   */\n      0x01\n        /* \"#utility.yul\":11205:11210   */\n      dup2\n        /* \"#utility.yul\":11201:11214   */\n      add\n        /* \"#utility.yul\":11192:11214   */\n      swap1\n      pop\n        /* \"#utility.yul\":11168:11288   */\n      jump(tag_234)\n    tag_236:\n        /* \"#utility.yul\":11108:11294   */\n      pop\n      pop\n      jump\t// out\n        /* \"#utility.yul\":11300:11843   */\n    tag_104:\n        /* \"#utility.yul\":11401:11403   */\n      0x1f\n        /* \"#utility.yul\":11396:11399   */\n      dup3\n        /* \"#utility.yul\":11393:11404   */\n      gt\n        /* \"#utility.yul\":11390:11836   */\n      iszero\n      tag_239\n      jumpi\n        /* \"#utility.yul\":11435:11473   */\n      tag_240\n        /* \"#utility.yul\":11467:11472   */\n      dup2\n        /* \"#utility.yul\":11435:11473   */\n      tag_93\n      jump\t// in\n    tag_240:\n        /* \"#utility.yul\":11519:11548   */\n      tag_241\n        /* \"#utility.yul\":11537:11547   */\n      dup5\n        /* \"#utility.yul\":11519:11548   */\n      tag_94\n      jump\t// in\n    tag_241:\n        /* \"#utility.yul\":11509:11517   */\n      dup2\n        /* \"#utility.yul\":11505:11549   */\n      add\n        /* \"#utility.yul\":11702:11704   */\n      0x20\n        /* \"#utility.yul\":11690:11700   */\n      dup6\n        /* \"#utility.yul\":11687:11705   */\n      lt\n        /* \"#utility.yul\":11684:11733   */\n      iszero\n      tag_242\n      jumpi\n        /* \"#utility.yul\":11723:11731   */\n      dup2\n        /* \"#utility.yul\":11708:11731   */\n      swap1\n      pop\n        /* \"#utility.yul\":11684:11733   */\n    tag_242:\n        /* \"#utility.yul\":11746:11826   */\n      tag_243\n        /* \"#utility.yul\":11802:11824   */\n      tag_244\n        /* \"#utility.yul\":11820:11823   */\n      dup6\n        /* \"#utility.yul\":11802:11824   */\n      tag_94\n      jump\t// in\n    tag_244:\n        /* \"#utility.yul\":11792:11800   */\n      dup4\n        /* \"#utility.yul\":11788:11825   */\n      add\n        /* \"#utility.yul\":11775:11786   */\n      dup3\n        /* \"#utility.yul\":11746:11826   */\n      tag_103\n      jump\t// in\n    tag_243:\n        /* \"#utility.yul\":11405:11836   */\n      pop\n      pop\n        /* \"#utility.yul\":11390:11836   */\n    tag_239:\n        /* \"#utility.yul\":11300:11843   */\n      pop\n      pop\n      pop\n      jump\t// out\n        /* \"#utility.yul\":11849:11966   */\n    tag_105:\n        /* \"#utility.yul\":11903:11911   */\n      0x00\n        /* \"#utility.yul\":11953:11958   */\n      dup3\n        /* \"#utility.yul\":11947:11951   */\n      dup3\n        /* \"#utility.yul\":11943:11959   */\n      shr\n        /* \"#utility.yul\":11922:11959   */\n      swap1\n      pop\n        /* \"#utility.yul\":11849:11966   */\n      swap3\n      swap2\n      pop\n      pop\n      jump\t// out\n        /* \"#utility.yul\":11972:12141   */\n    tag_106:\n        /* \"#utility.yul\":12016:12022   */\n      0x00\n        /* \"#utility.yul\":12049:12100   */\n      tag_247\n        /* \"#utility.yul\":12097:12098   */\n      0x00\n        /* \"#utility.yul\":12093:12099   */\n      not\n        /* \"#utility.yul\":12085:12090   */\n      dup5\n        /* \"#utility.yul\":12082:12083   */\n      0x08\n        /* \"#utility.yul\":12078:12091   */\n      mul\n        /* \"#utility.yul\":12049:12100   */\n      tag_105\n      jump\t// in\n    tag_247:\n        /* \"#utility.yul\":12045:12101   */\n      not\n        /* \"#utility.yul\":12130:12134   */\n      dup1\n        /* \"#utility.yul\":12124:12128   */\n      dup4\n        /* \"#utility.yul\":12120:12135   */\n      and\n        /* \"#utility.yul\":12110:12135   */\n      swap2\n      pop\n        /* \"#utility.yul\":12023:12141   */\n      pop\n        /* \"#utility.yul\":11972:12141   */\n      swap3\n      swap2\n      pop\n      pop\n      jump\t// out\n        /* \"#utility.yul\":12146:12441   */\n    tag_107:\n        /* \"#utility.yul\":12222:12226   */\n      0x00\n        /* \"#utility.yul\":12368:12397   */\n      tag_249\n        /* \"#utility.yul\":12393:12396   */\n      dup4\n        /* \"#utility.yul\":12387:12391   */\n      dup4\n        /* \"#utility.yul\":12368:12397   */\n      tag_106\n      jump\t// in\n    tag_249:\n        /* \"#utility.yul\":12360:12397   */\n      swap2\n      pop\n        /* \"#utility.yul\":12430:12433   */\n      dup3\n        /* \"#utility.yul\":12427:12428   */\n      0x02\n        /* \"#utility.yul\":12423:12434   */\n      mul\n        /* \"#utility.yul\":12417:12421   */\n      dup3\n        /* \"#utility.yul\":12414:12435   */\n      or\n        /* \"#utility.yul\":12406:12435   */\n      swap1\n      pop\n        /* \"#utility.yul\":12146:12441   */\n      swap3\n      swap2\n      pop\n      pop\n      jump\t// out\n        /* \"#utility.yul\":12446:13841   */\n    tag_50:\n        /* \"#utility.yul\":12563:12600   */\n      tag_251\n        /* \"#utility.yul\":12596:12599   */\n      dup3\n        /* \"#utility.yul\":12563:12600   */\n      tag_65\n      jump\t// in\n    tag_251:\n        /* \"#utility.yul\":12665:12683   */\n      0xffffffffffffffff\n        /* \"#utility.yul\":12657:12663   */\n      dup2\n        /* \"#utility.yul\":12654:12684   */\n      gt\n        /* \"#utility.yul\":12651:12707   */\n      iszero\n      tag_252\n      jumpi\n        /* \"#utility.yul\":12687:12705   */\n      tag_253\n      tag_77\n      jump\t// in\n    tag_253:\n        /* \"#utility.yul\":12651:12707   */\n    tag_252:\n        /* \"#utility.yul\":12731:12769   */\n      tag_254\n        /* \"#utility.yul\":12763:12767   */\n      dup3\n        /* \"#utility.yul\":12757:12768   */\n      sload\n        /* \"#utility.yul\":12731:12769   */\n      tag_38\n      jump\t// in\n    tag_254:\n        /* \"#utility.yul\":12816:12883   */\n      tag_255\n        /* \"#utility.yul\":12876:12882   */\n      dup3\n        /* \"#utility.yul\":12868:12874   */\n      dup3\n        /* \"#utility.yul\":12862:12866   */\n      dup6\n        /* \"#utility.yul\":12816:12883   */\n      tag_104\n      jump\t// in\n    tag_255:\n        /* \"#utility.yul\":12910:12911   */\n      0x00\n        /* \"#utility.yul\":12934:12938   */\n      0x20\n        /* \"#utility.yul\":12921:12938   */\n      swap1\n      pop\n        /* \"#utility.yul\":12966:12968   */\n      0x1f\n        /* \"#utility.yul\":12958:12964   */\n      dup4\n        /* \"#utility.yul\":12955:12969   */\n      gt\n        /* \"#utility.yul\":12983:12984   */\n      0x01\n        /* \"#utility.yul\":12978:13596   */\n      dup2\n      eq\n      tag_257\n      jumpi\n        /* \"#utility.yul\":13640:13641   */\n      0x00\n        /* \"#utility.yul\":13657:13663   */\n      dup5\n        /* \"#utility.yul\":13654:13731   */\n      iszero\n      tag_258\n      jumpi\n        /* \"#utility.yul\":13706:13715   */\n      dup3\n        /* \"#utility.yul\":13701:13704   */\n      dup8\n        /* \"#utility.yul\":13697:13716   */\n      add\n        /* \"#utility.yul\":13691:13717   */\n      mload\n        /* \"#utility.yul\":13682:13717   */\n      swap1\n      pop\n        /* \"#utility.yul\":13654:13731   */\n    tag_258:\n        /* \"#utility.yul\":13757:13824   */\n      tag_259\n        /* \"#utility.yul\":13817:13823   */\n      dup6\n        /* \"#utility.yul\":13810:13815   */\n      dup3\n        /* \"#utility.yul\":13757:13824   */\n      tag_107\n      jump\t// in\n    tag_259:\n        /* \"#utility.yul\":13751:13755   */\n      dup7\n        /* \"#utility.yul\":13744:13825   */\n      sstore\n        /* \"#utility.yul\":13613:13835   */\n      pop\n        /* \"#utility.yul\":12948:13835   */\n      jump(tag_256)\n        /* \"#utility.yul\":12978:13596   */\n    tag_257:\n        /* \"#utility.yul\":13030:13034   */\n      0x1f\n        /* \"#utility.yul\":13026:13035   */\n      not\n        /* \"#utility.yul\":13018:13024   */\n      dup5\n        /* \"#utility.yul\":13014:13036   */\n      and\n        /* \"#utility.yul\":13064:13101   */\n      tag_260\n        /* \"#utility.yul\":13096:13100   */\n      dup7\n        /* \"#utility.yul\":13064:13101   */\n      tag_93\n      jump\t// in\n    tag_260:\n        /* \"#utility.yul\":13123:13124   */\n      0x00\n        /* \"#utility.yul\":13137:13345   */\n    tag_261:\n        /* \"#utility.yul\":13151:13158   */\n      dup3\n        /* \"#utility.yul\":13148:13149   */\n      dup2\n        /* \"#utility.yul\":13145:13159   */\n      lt\n        /* \"#utility.yul\":13137:13345   */\n      iszero\n      tag_263\n      jumpi\n        /* \"#utility.yul\":13230:13239   */\n      dup5\n        /* \"#utility.yul\":13225:13228   */\n      dup10\n        /* \"#utility.yul\":13221:13240   */\n      add\n        /* \"#utility.yul\":13215:13241   */\n      mload\n        /* \"#utility.yul\":13207:13213   */\n      dup3\n        /* \"#utility.yul\":13200:13242   */\n      sstore\n        /* \"#utility.yul\":13281:13282   */\n      0x01\n        /* \"#utility.yul\":13273:13279   */\n      dup3\n        /* \"#utility.yul\":13269:13283   */\n      add\n        /* \"#utility.yul\":13259:13283   */\n      swap2\n      pop\n        /* \"#utility.yul\":13328:13330   */\n      0x20\n        /* \"#utility.yul\":13317:13326   */\n      dup6\n        /* \"#utility.yul\":13313:13331   */\n      add\n        /* \"#utility.yul\":13300:13331   */\n      swap5\n      pop\n        /* \"#utility.yul\":13174:13178   */\n      0x20\n        /* \"#utility.yul\":13171:13172   */\n      dup2\n        /* \"#utility.yul\":13167:13179   */\n      add\n        /* \"#utility.yul\":13162:13179   */\n      swap1\n      pop\n        /* \"#utility.yul\":13137:13345   */\n      jump(tag_261)\n    tag_263:\n        /* \"#utility.yul\":13373:13379   */\n      dup7\n        /* \"#utility.yul\":13364:13371   */\n      dup4\n        /* \"#utility.yul\":13361:13380   */\n      lt\n        /* \"#utility.yul\":13358:13537   */\n      iszero\n      tag_264\n      jumpi\n        /* \"#utility.yul\":13431:13440   */\n      dup5\n        /* \"#utility.yul\":13426:13429   */\n      dup10\n        /* \"#utility.yul\":13422:13441   */\n      add\n        /* \"#utility.yul\":13416:13442   */\n      mload\n        /* \"#utility.yul\":13474:13522   */\n      tag_265\n        /* \"#utility.yul\":13516:13520   */\n      0x1f\n        /* \"#utility.yul\":13508:13514   */\n      dup10\n        /* \"#utility.yul\":13504:13521   */\n      and\n        /* \"#utility.yul\":13493:13502   */\n      dup3\n        /* \"#utility.yul\":13474:13522   */\n      tag_106\n      jump\t// in\n    tag_265:\n        /* \"#utility.yul\":13466:13472   */\n      dup4\n        /* \"#utility.yul\":13459:13523   */\n      sstore\n        /* \"#utility.yul\":13381:13537   */\n      pop\n        /* \"#utility.yul\":13358:13537   */\n    tag_264:\n        /* \"#utility.yul\":13583:13584   */\n      0x01\n        /* \"#utility.yul\":13579:13580   */\n      0x02\n        /* \"#utility.yul\":13571:13577   */\n      dup9\n        /* \"#utility.yul\":13567:13581   */\n      mul\n        /* \"#utility.yul\":13563:13585   */\n      add\n        /* \"#utility.yul\":13557:13561   */\n      dup9\n        /* \"#utility.yul\":13550:13586   */\n      sstore\n        /* \"#utility.yul\":12985:13596   */\n      pop\n      pop\n      pop\n        /* \"#utility.yul\":12948:13835   */\n    tag_256:\n      pop\n        /* \"#utility.yul\":12538:13841   */\n      pop\n      pop\n      pop\n        /* \"#utility.yul\":12446:13841   */\n      pop\n      pop\n      jump\t// out\n\n    auxdata: 0xa2646970667358221220c294a43eda0e1b0abd704368292c74dd4b6fdfdef8bea39f31ce180d6b7b8b6c64736f6c634300081a0033\n}\n",
				"bytecode": {
					"linkReferences": {},
					"object": "6080604052348015600e575f80fd5b50610d318061001c5f395ff3fe608060405234801561000f575f80fd5b5060043610610055575f3560e01c80634526f690146100595780635734e5e31461008d5780636d4fb71d146100ab578063b1ce8eab146100c7578063e792dd8a146100f7575b5f80fd5b610073600480360381019061006e91906105de565b61012b565b6040516100849594939291906106e2565b60405180910390f35b61009561029e565b6040516100a2919061073a565b60405180910390f35b6100c560048036038101906100c091906108d3565b6102a9565b005b6100e160048036038101906100dc919061093f565b61048c565b6040516100ee9190610984565b60405180910390f35b610111600480360381019061010c91906105de565b6104a9565b6040516101229594939291906106e2565b60405180910390f35b5f60605f805f805f87815481106101455761014461099d565b5b905f5260205f2090600502016040518060a00160405290815f8201548152602001600182018054610175906109f7565b80601f01602080910402602001604051908101604052809291908181526020018280546101a1906109f7565b80156101ec5780601f106101c3576101008083540402835291602001916101ec565b820191905f5260205f20905b8154815290600101906020018083116101cf57829003601f168201915b50505050508152602001600282015f9054906101000a900473ffffffffffffffffffffffffffffffffffffffff1673ffffffffffffffffffffffffffffffffffffffff1673ffffffffffffffffffffffffffffffffffffffff16815260200160038201548152602001600482015f9054906101000a900460ff1660ff1660ff16815250509050805f01518160200151826040015183606001518460800151955095509550955095505091939590929450565b5f8080549050905090565b60015f8373ffffffffffffffffffffffffffffffffffffffff1673ffffffffffffffffffffffffffffffffffffffff1681526020019081526020015f205f9054906101000a900460ff1615610333576040517f08c379a000000000000000000000000000000000000000000000000000000000815260040161032a90610a71565b60405180910390fd5b5f808054905090505f6040518060a001604052808381526020018681526020018573ffffffffffffffffffffffffffffffffffffffff1681526020015f81526020018460ff16815250908060018154018082558091505060019003905f5260205f2090600502015f909190919091505f820151815f015560208201518160010190816103bf9190610c2c565b506040820151816002015f6101000a81548173ffffffffffffffffffffffffffffffffffffffff021916908373ffffffffffffffffffffffffffffffffffffffff160217905550606082015181600301556080820151816004015f6101000a81548160ff021916908360ff16021790555050506001805f8573ffffffffffffffffffffffffffffffffffffffff1673ffffffffffffffffffffffffffffffffffffffff1681526020019081526020015f205f6101000a81548160ff02191690831515021790555050505050565b6001602052805f5260405f205f915054906101000a900460ff1681565b5f81815481106104b7575f80fd5b905f5260205f2090600502015f91509050805f0154908060010180546104dc906109f7565b80601f0160208091040260200160405190810160405280929190818152602001828054610508906109f7565b80156105535780601f1061052a57610100808354040283529160200191610553565b820191905f5260205f20905b81548152906001019060200180831161053657829003601f168201915b505050505090806002015f9054906101000a900473ffffffffffffffffffffffffffffffffffffffff1690806003015490806004015f9054906101000a900460ff16905085565b5f604051905090565b5f80fd5b5f80fd5b5f819050919050565b6105bd816105ab565b81146105c7575f80fd5b50565b5f813590506105d8816105b4565b92915050565b5f602082840312156105f3576105f26105a3565b5b5f610600848285016105ca565b91505092915050565b610612816105ab565b82525050565b5f81519050919050565b5f82825260208201905092915050565b8281835e5f83830152505050565b5f601f19601f8301169050919050565b5f61065a82610618565b6106648185610622565b9350610674818560208601610632565b61067d81610640565b840191505092915050565b5f73ffffffffffffffffffffffffffffffffffffffff82169050919050565b5f6106b182610688565b9050919050565b6106c1816106a7565b82525050565b5f60ff82169050919050565b6106dc816106c7565b82525050565b5f60a0820190506106f55f830188610609565b81810360208301526107078187610650565b905061071660408301866106b8565b6107236060830185610609565b61073060808301846106d3565b9695505050505050565b5f60208201905061074d5f830184610609565b92915050565b5f80fd5b5f80fd5b7f4e487b71000000000000000000000000000000000000000000000000000000005f52604160045260245ffd5b61079182610640565b810181811067ffffffffffffffff821117156107b0576107af61075b565b5b80604052505050565b5f6107c261059a565b90506107ce8282610788565b919050565b5f67ffffffffffffffff8211156107ed576107ec61075b565b5b6107f682610640565b9050602081019050919050565b828183375f83830152505050565b5f61082361081e846107d3565b6107b9565b90508281526020810184848401111561083f5761083e610757565b5b61084a848285610803565b509392505050565b5f82601f83011261086657610865610753565b5b8135610876848260208601610811565b91505092915050565b610888816106a7565b8114610892575f80fd5b50565b5f813590506108a38161087f565b92915050565b6108b2816106c7565b81146108bc575f80fd5b50565b5f813590506108cd816108a9565b92915050565b5f805f606084860312156108ea576108e96105a3565b5b5f84013567ffffffffffffffff811115610907576109066105a7565b5b61091386828701610852565b935050602061092486828701610895565b9250506040610935868287016108bf565b9150509250925092565b5f60208284031215610954576109536105a3565b5b5f61096184828501610895565b91505092915050565b5f8115159050919050565b61097e8161096a565b82525050565b5f6020820190506109975f830184610975565b92915050565b7f4e487b71000000000000000000000000000000000000000000000000000000005f52603260045260245ffd5b7f4e487b71000000000000000000000000000000000000000000000000000000005f52602260045260245ffd5b5f6002820490506001821680610a0e57607f821691505b602082108103610a2157610a206109ca565b5b50919050565b7f4f7267616e697a6174696f6e20616c72656164792065786973747300000000005f82015250565b5f610a5b601b83610622565b9150610a6682610a27565b602082019050919050565b5f6020820190508181035f830152610a8881610a4f565b9050919050565b5f819050815f5260205f209050919050565b5f6020601f8301049050919050565b5f82821b905092915050565b5f60088302610aeb7fffffffffffffffffffffffffffffffffffffffffffffffffffffffffffffffff82610ab0565b610af58683610ab0565b95508019841693508086168417925050509392505050565b5f819050919050565b5f610b30610b2b610b26846105ab565b610b0d565b6105ab565b9050919050565b5f819050919050565b610b4983610b16565b610b5d610b5582610b37565b848454610abc565b825550505050565b5f90565b610b71610b65565b610b7c818484610b40565b505050565b5b81811015610b9f57610b945f82610b69565b600181019050610b82565b5050565b601f821115610be457610bb581610a8f565b610bbe84610aa1565b81016020851015610bcd578190505b610be1610bd985610aa1565b830182610b81565b50505b505050565b5f82821c905092915050565b5f610c045f1984600802610be9565b1980831691505092915050565b5f610c1c8383610bf5565b9150826002028217905092915050565b610c3582610618565b67ffffffffffffffff811115610c4e57610c4d61075b565b5b610c5882546109f7565b610c63828285610ba3565b5f60209050601f831160018114610c94575f8415610c82578287015190505b610c8c8582610c11565b865550610cf3565b601f198416610ca286610a8f565b5f5b82811015610cc957848901518255600182019150602085019450602081019050610ca4565b86831015610ce65784890151610ce2601f891682610bf5565b8355505b6001600288020188555050505b50505050505056fea2646970667358221220c294a43eda0e1b0abd704368292c74dd4b6fdfdef8bea39f31ce180d6b7b8b6c64736f6c634300081a0033",
					"opcodes": "PUSH1 0x80 PUSH1 0x40 MSTORE CALLVALUE DUP1 ISZERO PUSH1 0xE JUMPI PUSH0 DUP1 REVERT JUMPDEST POP PUSH2 0xD31 DUP1 PUSH2 0x1C PUSH0 CODECOPY PUSH0 RETURN INVALID PUSH1 0x80 PUSH1 0x40 MSTORE CALLVALUE DUP1 ISZERO PUSH2 0xF JUMPI PUSH0 DUP1 REVERT JUMPDEST POP PUSH1 0x4 CALLDATASIZE LT PUSH2 0x55 JUMPI PUSH0 CALLDATALOAD PUSH1 0xE0 SHR DUP1 PUSH4 0x4526F690 EQ PUSH2 0x59 JUMPI DUP1 PUSH4 0x5734E5E3 EQ PUSH2 0x8D JUMPI DUP1 PUSH4 0x6D4FB71D EQ PUSH2 0xAB JUMPI DUP1 PUSH4 0xB1CE8EAB EQ PUSH2 0xC7 JUMPI DUP1 PUSH4 0xE792DD8A EQ PUSH2 0xF7 JUMPI JUMPDEST PUSH0 DUP1 REVERT JUMPDEST PUSH2 0x73 PUSH1 0x4 DUP1 CALLDATASIZE SUB DUP2 ADD SWAP1 PUSH2 0x6E SWAP2 SWAP1 PUSH2 0x5DE JUMP JUMPDEST PUSH2 0x12B JUMP JUMPDEST PUSH1 0x40 MLOAD PUSH2 0x84 SWAP6 SWAP5 SWAP4 SWAP3 SWAP2 SWAP1 PUSH2 0x6E2 JUMP JUMPDEST PUSH1 0x40 MLOAD DUP1 SWAP2 SUB SWAP1 RETURN JUMPDEST PUSH2 0x95 PUSH2 0x29E JUMP JUMPDEST PUSH1 0x40 MLOAD PUSH2 0xA2 SWAP2 SWAP1 PUSH2 0x73A JUMP JUMPDEST PUSH1 0x40 MLOAD DUP1 SWAP2 SUB SWAP1 RETURN JUMPDEST PUSH2 0xC5 PUSH1 0x4 DUP1 CALLDATASIZE SUB DUP2 ADD SWAP1 PUSH2 0xC0 SWAP2 SWAP1 PUSH2 0x8D3 JUMP JUMPDEST PUSH2 0x2A9 JUMP JUMPDEST STOP JUMPDEST PUSH2 0xE1 PUSH1 0x4 DUP1 CALLDATASIZE SUB DUP2 ADD SWAP1 PUSH2 0xDC SWAP2 SWAP1 PUSH2 0x93F JUMP JUMPDEST PUSH2 0x48C JUMP JUMPDEST PUSH1 0x40 MLOAD PUSH2 0xEE SWAP2 SWAP1 PUSH2 0x984 JUMP JUMPDEST PUSH1 0x40 MLOAD DUP1 SWAP2 SUB SWAP1 RETURN JUMPDEST PUSH2 0x111 PUSH1 0x4 DUP1 CALLDATASIZE SUB DUP2 ADD SWAP1 PUSH2 0x10C SWAP2 SWAP1 PUSH2 0x5DE JUMP JUMPDEST PUSH2 0x4A9 JUMP JUMPDEST PUSH1 0x40 MLOAD PUSH2 0x122 SWAP6 SWAP5 SWAP4 SWAP3 SWAP2 SWAP1 PUSH2 0x6E2 JUMP JUMPDEST PUSH1 0x40 MLOAD DUP1 SWAP2 SUB SWAP1 RETURN JUMPDEST PUSH0 PUSH1 0x60 PUSH0 DUP1 PUSH0 DUP1 PUSH0 DUP8 DUP2 SLOAD DUP2 LT PUSH2 0x145 JUMPI PUSH2 0x144 PUSH2 0x99D JUMP JUMPDEST JUMPDEST SWAP1 PUSH0 MSTORE PUSH1 0x20 PUSH0 KECCAK256 SWAP1 PUSH1 0x5 MUL ADD PUSH1 0x40 MLOAD DUP1 PUSH1 0xA0 ADD PUSH1 0x40 MSTORE SWAP1 DUP2 PUSH0 DUP3 ADD SLOAD DUP2 MSTORE PUSH1 0x20 ADD PUSH1 0x1 DUP3 ADD DUP1 SLOAD PUSH2 0x175 SWAP1 PUSH2 0x9F7 JUMP JUMPDEST DUP1 PUSH1 0x1F ADD PUSH1 0x20 DUP1 SWAP2 DIV MUL PUSH1 0x20 ADD PUSH1 0x40 MLOAD SWAP1 DUP2 ADD PUSH1 0x40 MSTORE DUP1 SWAP3 SWAP2 SWAP1 DUP2 DUP2 MSTORE PUSH1 0x20 ADD DUP3 DUP1 SLOAD PUSH2 0x1A1 SWAP1 PUSH2 0x9F7 JUMP JUMPDEST DUP1 ISZERO PUSH2 0x1EC JUMPI DUP1 PUSH1 0x1F LT PUSH2 0x1C3 JUMPI PUSH2 0x100 DUP1 DUP4 SLOAD DIV MUL DUP4 MSTORE SWAP2 PUSH1 0x20 ADD SWAP2 PUSH2 0x1EC JUMP JUMPDEST DUP3 ADD SWAP2 SWAP1 PUSH0 MSTORE PUSH1 0x20 PUSH0 KECCAK256 SWAP1 JUMPDEST DUP2 SLOAD DUP2 MSTORE SWAP1 PUSH1 0x1 ADD SWAP1 PUSH1 0x20 ADD DUP1 DUP4 GT PUSH2 0x1CF JUMPI DUP3 SWAP1 SUB PUSH1 0x1F AND DUP3 ADD SWAP2 JUMPDEST POP POP POP POP POP DUP2 MSTORE PUSH1 0x20 ADD PUSH1 0x2 DUP3 ADD PUSH0 SWAP1 SLOAD SWAP1 PUSH2 0x100 EXP SWAP1 DIV PUSH20 0xFFFFFFFFFFFFFFFFFFFFFFFFFFFFFFFFFFFFFFFF AND PUSH20 0xFFFFFFFFFFFFFFFFFFFFFFFFFFFFFFFFFFFFFFFF AND PUSH20 0xFFFFFFFFFFFFFFFFFFFFFFFFFFFFFFFFFFFFFFFF AND DUP2 MSTORE PUSH1 0x20 ADD PUSH1 0x3 DUP3 ADD SLOAD DUP2 MSTORE PUSH1 0x20 ADD PUSH1 0x4 DUP3 ADD PUSH0 SWAP1 SLOAD SWAP1 PUSH2 0x100 EXP SWAP1 DIV PUSH1 0xFF AND PUSH1 0xFF AND PUSH1 0xFF AND DUP2 MSTORE POP POP SWAP1 POP DUP1 PUSH0 ADD MLOAD DUP2 PUSH1 0x20 ADD MLOAD DUP3 PUSH1 0x40 ADD MLOAD DUP4 PUSH1 0x60 ADD MLOAD DUP5 PUSH1 0x80 ADD MLOAD SWAP6 POP SWAP6 POP SWAP6 POP SWAP6 POP SWAP6 POP POP SWAP2 SWAP4 SWAP6 SWAP1 SWAP3 SWAP5 POP JUMP JUMPDEST PUSH0 DUP1 DUP1 SLOAD SWAP1 POP SWAP1 POP SWAP1 JUMP JUMPDEST PUSH1 0x1 PUSH0 DUP4 PUSH20 0xFFFFFFFFFFFFFFFFFFFFFFFFFFFFFFFFFFFFFFFF AND PUSH20 0xFFFFFFFFFFFFFFFFFFFFFFFFFFFFFFFFFFFFFFFF AND DUP2 MSTORE PUSH1 0x20 ADD SWAP1 DUP2 MSTORE PUSH1 0x20 ADD PUSH0 KECCAK256 PUSH0 SWAP1 SLOAD SWAP1 PUSH2 0x100 EXP SWAP1 DIV PUSH1 0xFF AND ISZERO PUSH2 0x333 JUMPI PUSH1 0x40 MLOAD PUSH32 0x8C379A000000000000000000000000000000000000000000000000000000000 DUP2 MSTORE PUSH1 0x4 ADD PUSH2 0x32A SWAP1 PUSH2 0xA71 JUMP JUMPDEST PUSH1 0x40 MLOAD DUP1 SWAP2 SUB SWAP1 REVERT JUMPDEST PUSH0 DUP1 DUP1 SLOAD SWAP1 POP SWAP1 POP PUSH0 PUSH1 0x40 MLOAD DUP1 PUSH1 0xA0 ADD PUSH1 0x40 MSTORE DUP1 DUP4 DUP2 MSTORE PUSH1 0x20 ADD DUP7 DUP2 MSTORE PUSH1 0x20 ADD DUP6 PUSH20 0xFFFFFFFFFFFFFFFFFFFFFFFFFFFFFFFFFFFFFFFF AND DUP2 MSTORE PUSH1 0x20 ADD PUSH0 DUP2 MSTORE PUSH1 0x20 ADD DUP5 PUSH1 0xFF AND DUP2 MSTORE POP SWAP1 DUP1 PUSH1 0x1 DUP2 SLOAD ADD DUP1 DUP3 SSTORE DUP1 SWAP2 POP POP PUSH1 0x1 SWAP1 SUB SWAP1 PUSH0 MSTORE PUSH1 0x20 PUSH0 KECCAK256 SWAP1 PUSH1 0x5 MUL ADD PUSH0 SWAP1 SWAP2 SWAP1 SWAP2 SWAP1 SWAP2 POP PUSH0 DUP3 ADD MLOAD DUP2 PUSH0 ADD SSTORE PUSH1 0x20 DUP3 ADD MLOAD DUP2 PUSH1 0x1 ADD SWAP1 DUP2 PUSH2 0x3BF SWAP2 SWAP1 PUSH2 0xC2C JUMP JUMPDEST POP PUSH1 0x40 DUP3 ADD MLOAD DUP2 PUSH1 0x2 ADD PUSH0 PUSH2 0x100 EXP DUP2 SLOAD DUP2 PUSH20 0xFFFFFFFFFFFFFFFFFFFFFFFFFFFFFFFFFFFFFFFF MUL NOT AND SWAP1 DUP4 PUSH20 0xFFFFFFFFFFFFFFFFFFFFFFFFFFFFFFFFFFFFFFFF AND MUL OR SWAP1 SSTORE POP PUSH1 0x60 DUP3 ADD MLOAD DUP2 PUSH1 0x3 ADD SSTORE PUSH1 0x80 DUP3 ADD MLOAD DUP2 PUSH1 0x4 ADD PUSH0 PUSH2 0x100 EXP DUP2 SLOAD DUP2 PUSH1 0xFF MUL NOT AND SWAP1 DUP4 PUSH1 0xFF AND MUL OR SWAP1 SSTORE POP POP POP PUSH1 0x1 DUP1 PUSH0 DUP6 PUSH20 0xFFFFFFFFFFFFFFFFFFFFFFFFFFFFFFFFFFFFFFFF AND PUSH20 0xFFFFFFFFFFFFFFFFFFFFFFFFFFFFFFFFFFFFFFFF AND DUP2 MSTORE PUSH1 0x20 ADD SWAP1 DUP2 MSTORE PUSH1 0x20 ADD PUSH0 KECCAK256 PUSH0 PUSH2 0x100 EXP DUP2 SLOAD DUP2 PUSH1 0xFF MUL NOT AND SWAP1 DUP4 ISZERO ISZERO MUL OR SWAP1 SSTORE POP POP POP POP POP JUMP JUMPDEST PUSH1 0x1 PUSH1 0x20 MSTORE DUP1 PUSH0 MSTORE PUSH1 0x40 PUSH0 KECCAK256 PUSH0 SWAP2 POP SLOAD SWAP1 PUSH2 0x100 EXP SWAP1 DIV PUSH1 0xFF AND DUP2 JUMP JUMPDEST PUSH0 DUP2 DUP2 SLOAD DUP2 LT PUSH2 0x4B7 JUMPI PUSH0 DUP1 REVERT JUMPDEST SWAP1 PUSH0 MSTORE PUSH1 0x20 PUSH0 KECCAK256 SWAP1 PUSH1 0x5 MUL ADD PUSH0 SWAP2 POP SWAP1 POP DUP1 PUSH0 ADD SLOAD SWAP1 DUP1 PUSH1 0x1 ADD DUP1 SLOAD PUSH2 0x4DC SWAP1 PUSH2 0x9F7 JUMP JUMPDEST DUP1 PUSH1 0x1F ADD PUSH1 0x20 DUP1 SWAP2 DIV MUL PUSH1 0x20 ADD PUSH1 0x40 MLOAD SWAP1 DUP2 ADD PUSH1 0x40 MSTORE DUP1 SWAP3 SWAP2 SWAP1 DUP2 DUP2 MSTORE PUSH1 0x20 ADD DUP3 DUP1 SLOAD PUSH2 0x508 SWAP1 PUSH2 0x9F7 JUMP JUMPDEST DUP1 ISZERO PUSH2 0x553 JUMPI DUP1 PUSH1 0x1F LT PUSH2 0x52A JUMPI PUSH2 0x100 DUP1 DUP4 SLOAD DIV MUL DUP4 MSTORE SWAP2 PUSH1 0x20 ADD SWAP2 PUSH2 0x553 JUMP JUMPDEST DUP3 ADD SWAP2 SWAP1 PUSH0 MSTORE PUSH1 0x20 PUSH0 KECCAK256 SWAP1 JUMPDEST DUP2 SLOAD DUP2 MSTORE SWAP1 PUSH1 0x1 ADD SWAP1 PUSH1 0x20 ADD DUP1 DUP4 GT PUSH2 0x536 JUMPI DUP3 SWAP1 SUB PUSH1 0x1F AND DUP3 ADD SWAP2 JUMPDEST POP POP POP POP POP SWAP1 DUP1 PUSH1 0x2 ADD PUSH0 SWAP1 SLOAD SWAP1 PUSH2 0x100 EXP SWAP1 DIV PUSH20 0xFFFFFFFFFFFFFFFFFFFFFFFFFFFFFFFFFFFFFFFF AND SWAP1 DUP1 PUSH1 0x3 ADD SLOAD SWAP1 DUP1 PUSH1 0x4 ADD PUSH0 SWAP1 SLOAD SWAP1 PUSH2 0x100 EXP SWAP1 DIV PUSH1 0xFF AND SWAP1 POP DUP6 JUMP JUMPDEST PUSH0 PUSH1 0x40 MLOAD SWAP1 POP SWAP1 JUMP JUMPDEST PUSH0 DUP1 REVERT JUMPDEST PUSH0 DUP1 REVERT JUMPDEST PUSH0 DUP2 SWAP1 POP SWAP2 SWAP1 POP JUMP JUMPDEST PUSH2 0x5BD DUP2 PUSH2 0x5AB JUMP JUMPDEST DUP2 EQ PUSH2 0x5C7 JUMPI PUSH0 DUP1 REVERT JUMPDEST POP JUMP JUMPDEST PUSH0 DUP2 CALLDATALOAD SWAP1 POP PUSH2 0x5D8 DUP2 PUSH2 0x5B4 JUMP JUMPDEST SWAP3 SWAP2 POP POP JUMP JUMPDEST PUSH0 PUSH1 0x20 DUP3 DUP5 SUB SLT ISZERO PUSH2 0x5F3 JUMPI PUSH2 0x5F2 PUSH2 0x5A3 JUMP JUMPDEST JUMPDEST PUSH0 PUSH2 0x600 DUP5 DUP3 DUP6 ADD PUSH2 0x5CA JUMP JUMPDEST SWAP2 POP POP SWAP3 SWAP2 POP POP JUMP JUMPDEST PUSH2 0x612 DUP2 PUSH2 0x5AB JUMP JUMPDEST DUP3 MSTORE POP POP JUMP JUMPDEST PUSH0 DUP2 MLOAD SWAP1 POP SWAP2 SWAP1 POP JUMP JUMPDEST PUSH0 DUP3 DUP3 MSTORE PUSH1 0x20 DUP3 ADD SWAP1 POP SWAP3 SWAP2 POP POP JUMP JUMPDEST DUP3 DUP2 DUP4 MCOPY PUSH0 DUP4 DUP4 ADD MSTORE POP POP POP JUMP JUMPDEST PUSH0 PUSH1 0x1F NOT PUSH1 0x1F DUP4 ADD AND SWAP1 POP SWAP2 SWAP1 POP JUMP JUMPDEST PUSH0 PUSH2 0x65A DUP3 PUSH2 0x618 JUMP JUMPDEST PUSH2 0x664 DUP2 DUP6 PUSH2 0x622 JUMP JUMPDEST SWAP4 POP PUSH2 0x674 DUP2 DUP6 PUSH1 0x20 DUP7 ADD PUSH2 0x632 JUMP JUMPDEST PUSH2 0x67D DUP2 PUSH2 0x640 JUMP JUMPDEST DUP5 ADD SWAP2 POP POP SWAP3 SWAP2 POP POP JUMP JUMPDEST PUSH0 PUSH20 0xFFFFFFFFFFFFFFFFFFFFFFFFFFFFFFFFFFFFFFFF DUP3 AND SWAP1 POP SWAP2 SWAP1 POP JUMP JUMPDEST PUSH0 PUSH2 0x6B1 DUP3 PUSH2 0x688 JUMP JUMPDEST SWAP1 POP SWAP2 SWAP1 POP JUMP JUMPDEST PUSH2 0x6C1 DUP2 PUSH2 0x6A7 JUMP JUMPDEST DUP3 MSTORE POP POP JUMP JUMPDEST PUSH0 PUSH1 0xFF DUP3 AND SWAP1 POP SWAP2 SWAP1 POP JUMP JUMPDEST PUSH2 0x6DC DUP2 PUSH2 0x6C7 JUMP JUMPDEST DUP3 MSTORE POP POP JUMP JUMPDEST PUSH0 PUSH1 0xA0 DUP3 ADD SWAP1 POP PUSH2 0x6F5 PUSH0 DUP4 ADD DUP9 PUSH2 0x609 JUMP JUMPDEST DUP2 DUP2 SUB PUSH1 0x20 DUP4 ADD MSTORE PUSH2 0x707 DUP2 DUP8 PUSH2 0x650 JUMP JUMPDEST SWAP1 POP PUSH2 0x716 PUSH1 0x40 DUP4 ADD DUP7 PUSH2 0x6B8 JUMP JUMPDEST PUSH2 0x723 PUSH1 0x60 DUP4 ADD DUP6 PUSH2 0x609 JUMP JUMPDEST PUSH2 0x730 PUSH1 0x80 DUP4 ADD DUP5 PUSH2 0x6D3 JUMP JUMPDEST SWAP7 SWAP6 POP POP POP POP POP POP JUMP JUMPDEST PUSH0 PUSH1 0x20 DUP3 ADD SWAP1 POP PUSH2 0x74D PUSH0 DUP4 ADD DUP5 PUSH2 0x609 JUMP JUMPDEST SWAP3 SWAP2 POP POP JUMP JUMPDEST PUSH0 DUP1 REVERT JUMPDEST PUSH0 DUP1 REVERT JUMPDEST PUSH32 0x4E487B7100000000000000000000000000000000000000000000000000000000 PUSH0 MSTORE PUSH1 0x41 PUSH1 0x4 MSTORE PUSH1 0x24 PUSH0 REVERT JUMPDEST PUSH2 0x791 DUP3 PUSH2 0x640 JUMP JUMPDEST DUP2 ADD DUP2 DUP2 LT PUSH8 0xFFFFFFFFFFFFFFFF DUP3 GT OR ISZERO PUSH2 0x7B0 JUMPI PUSH2 0x7AF PUSH2 0x75B JUMP JUMPDEST JUMPDEST DUP1 PUSH1 0x40 MSTORE POP POP POP JUMP JUMPDEST PUSH0 PUSH2 0x7C2 PUSH2 0x59A JUMP JUMPDEST SWAP1 POP PUSH2 0x7CE DUP3 DUP3 PUSH2 0x788 JUMP JUMPDEST SWAP2 SWAP1 POP JUMP JUMPDEST PUSH0 PUSH8 0xFFFFFFFFFFFFFFFF DUP3 GT ISZERO PUSH2 0x7ED JUMPI PUSH2 0x7EC PUSH2 0x75B JUMP JUMPDEST JUMPDEST PUSH2 0x7F6 DUP3 PUSH2 0x640 JUMP JUMPDEST SWAP1 POP PUSH1 0x20 DUP2 ADD SWAP1 POP SWAP2 SWAP1 POP JUMP JUMPDEST DUP3 DUP2 DUP4 CALLDATACOPY PUSH0 DUP4 DUP4 ADD MSTORE POP POP POP JUMP JUMPDEST PUSH0 PUSH2 0x823 PUSH2 0x81E DUP5 PUSH2 0x7D3 JUMP JUMPDEST PUSH2 0x7B9 JUMP JUMPDEST SWAP1 POP DUP3 DUP2 MSTORE PUSH1 0x20 DUP2 ADD DUP5 DUP5 DUP5 ADD GT ISZERO PUSH2 0x83F JUMPI PUSH2 0x83E PUSH2 0x757 JUMP JUMPDEST JUMPDEST PUSH2 0x84A DUP5 DUP3 DUP6 PUSH2 0x803 JUMP JUMPDEST POP SWAP4 SWAP3 POP POP POP JUMP JUMPDEST PUSH0 DUP3 PUSH1 0x1F DUP4 ADD SLT PUSH2 0x866 JUMPI PUSH2 0x865 PUSH2 0x753 JUMP JUMPDEST JUMPDEST DUP2 CALLDATALOAD PUSH2 0x876 DUP5 DUP3 PUSH1 0x20 DUP7 ADD PUSH2 0x811 JUMP JUMPDEST SWAP2 POP POP SWAP3 SWAP2 POP POP JUMP JUMPDEST PUSH2 0x888 DUP2 PUSH2 0x6A7 JUMP JUMPDEST DUP2 EQ PUSH2 0x892 JUMPI PUSH0 DUP1 REVERT JUMPDEST POP JUMP JUMPDEST PUSH0 DUP2 CALLDATALOAD SWAP1 POP PUSH2 0x8A3 DUP2 PUSH2 0x87F JUMP JUMPDEST SWAP3 SWAP2 POP POP JUMP JUMPDEST PUSH2 0x8B2 DUP2 PUSH2 0x6C7 JUMP JUMPDEST DUP2 EQ PUSH2 0x8BC JUMPI PUSH0 DUP1 REVERT JUMPDEST POP JUMP JUMPDEST PUSH0 DUP2 CALLDATALOAD SWAP1 POP PUSH2 0x8CD DUP2 PUSH2 0x8A9 JUMP JUMPDEST SWAP3 SWAP2 POP POP JUMP JUMPDEST PUSH0 DUP1 PUSH0 PUSH1 0x60 DUP5 DUP7 SUB SLT ISZERO PUSH2 0x8EA JUMPI PUSH2 0x8E9 PUSH2 0x5A3 JUMP JUMPDEST JUMPDEST PUSH0 DUP5 ADD CALLDATALOAD PUSH8 0xFFFFFFFFFFFFFFFF DUP2 GT ISZERO PUSH2 0x907 JUMPI PUSH2 0x906 PUSH2 0x5A7 JUMP JUMPDEST JUMPDEST PUSH2 0x913 DUP7 DUP3 DUP8 ADD PUSH2 0x852 JUMP JUMPDEST SWAP4 POP POP PUSH1 0x20 PUSH2 0x924 DUP7 DUP3 DUP8 ADD PUSH2 0x895 JUMP JUMPDEST SWAP3 POP POP PUSH1 0x40 PUSH2 0x935 DUP7 DUP3 DUP8 ADD PUSH2 0x8BF JUMP JUMPDEST SWAP2 POP POP SWAP3 POP SWAP3 POP SWAP3 JUMP JUMPDEST PUSH0 PUSH1 0x20 DUP3 DUP5 SUB SLT ISZERO PUSH2 0x954 JUMPI PUSH2 0x953 PUSH2 0x5A3 JUMP JUMPDEST JUMPDEST PUSH0 PUSH2 0x961 DUP5 DUP3 DUP6 ADD PUSH2 0x895 JUMP JUMPDEST SWAP2 POP POP SWAP3 SWAP2 POP POP JUMP JUMPDEST PUSH0 DUP2 ISZERO ISZERO SWAP1 POP SWAP2 SWAP1 POP JUMP JUMPDEST PUSH2 0x97E DUP2 PUSH2 0x96A JUMP JUMPDEST DUP3 MSTORE POP POP JUMP JUMPDEST PUSH0 PUSH1 0x20 DUP3 ADD SWAP1 POP PUSH2 0x997 PUSH0 DUP4 ADD DUP5 PUSH2 0x975 JUMP JUMPDEST SWAP3 SWAP2 POP POP JUMP JUMPDEST PUSH32 0x4E487B7100000000000000000000000000000000000000000000000000000000 PUSH0 MSTORE PUSH1 0x32 PUSH1 0x4 MSTORE PUSH1 0x24 PUSH0 REVERT JUMPDEST PUSH32 0x4E487B7100000000000000000000000000000000000000000000000000000000 PUSH0 MSTORE PUSH1 0x22 PUSH1 0x4 MSTORE PUSH1 0x24 PUSH0 REVERT JUMPDEST PUSH0 PUSH1 0x2 DUP3 DIV SWAP1 POP PUSH1 0x1 DUP3 AND DUP1 PUSH2 0xA0E JUMPI PUSH1 0x7F DUP3 AND SWAP2 POP JUMPDEST PUSH1 0x20 DUP3 LT DUP2 SUB PUSH2 0xA21 JUMPI PUSH2 0xA20 PUSH2 0x9CA JUMP JUMPDEST JUMPDEST POP SWAP2 SWAP1 POP JUMP JUMPDEST PUSH32 0x4F7267616E697A6174696F6E20616C7265616479206578697374730000000000 PUSH0 DUP3 ADD MSTORE POP JUMP JUMPDEST PUSH0 PUSH2 0xA5B PUSH1 0x1B DUP4 PUSH2 0x622 JUMP JUMPDEST SWAP2 POP PUSH2 0xA66 DUP3 PUSH2 0xA27 JUMP JUMPDEST PUSH1 0x20 DUP3 ADD SWAP1 POP SWAP2 SWAP1 POP JUMP JUMPDEST PUSH0 PUSH1 0x20 DUP3 ADD SWAP1 POP DUP2 DUP2 SUB PUSH0 DUP4 ADD MSTORE PUSH2 0xA88 DUP2 PUSH2 0xA4F JUMP JUMPDEST SWAP1 POP SWAP2 SWAP1 POP JUMP JUMPDEST PUSH0 DUP2 SWAP1 POP DUP2 PUSH0 MSTORE PUSH1 0x20 PUSH0 KECCAK256 SWAP1 POP SWAP2 SWAP1 POP JUMP JUMPDEST PUSH0 PUSH1 0x20 PUSH1 0x1F DUP4 ADD DIV SWAP1 POP SWAP2 SWAP1 POP JUMP JUMPDEST PUSH0 DUP3 DUP3 SHL SWAP1 POP SWAP3 SWAP2 POP POP JUMP JUMPDEST PUSH0 PUSH1 0x8 DUP4 MUL PUSH2 0xAEB PUSH32 0xFFFFFFFFFFFFFFFFFFFFFFFFFFFFFFFFFFFFFFFFFFFFFFFFFFFFFFFFFFFFFFFF DUP3 PUSH2 0xAB0 JUMP JUMPDEST PUSH2 0xAF5 DUP7 DUP4 PUSH2 0xAB0 JUMP JUMPDEST SWAP6 POP DUP1 NOT DUP5 AND SWAP4 POP DUP1 DUP7 AND DUP5 OR SWAP3 POP POP POP SWAP4 SWAP3 POP POP POP JUMP JUMPDEST PUSH0 DUP2 SWAP1 POP SWAP2 SWAP1 POP JUMP JUMPDEST PUSH0 PUSH2 0xB30 PUSH2 0xB2B PUSH2 0xB26 DUP5 PUSH2 0x5AB JUMP JUMPDEST PUSH2 0xB0D JUMP JUMPDEST PUSH2 0x5AB JUMP JUMPDEST SWAP1 POP SWAP2 SWAP1 POP JUMP JUMPDEST PUSH0 DUP2 SWAP1 POP SWAP2 SWAP1 POP JUMP JUMPDEST PUSH2 0xB49 DUP4 PUSH2 0xB16 JUMP JUMPDEST PUSH2 0xB5D PUSH2 0xB55 DUP3 PUSH2 0xB37 JUMP JUMPDEST DUP5 DUP5 SLOAD PUSH2 0xABC JUMP JUMPDEST DUP3 SSTORE POP POP POP POP JUMP JUMPDEST PUSH0 SWAP1 JUMP JUMPDEST PUSH2 0xB71 PUSH2 0xB65 JUMP JUMPDEST PUSH2 0xB7C DUP2 DUP5 DUP5 PUSH2 0xB40 JUMP JUMPDEST POP POP POP JUMP JUMPDEST JUMPDEST DUP2 DUP2 LT ISZERO PUSH2 0xB9F JUMPI PUSH2 0xB94 PUSH0 DUP3 PUSH2 0xB69 JUMP JUMPDEST PUSH1 0x1 DUP2 ADD SWAP1 POP PUSH2 0xB82 JUMP JUMPDEST POP POP JUMP JUMPDEST PUSH1 0x1F DUP3 GT ISZERO PUSH2 0xBE4 JUMPI PUSH2 0xBB5 DUP2 PUSH2 0xA8F JUMP JUMPDEST PUSH2 0xBBE DUP5 PUSH2 0xAA1 JUMP JUMPDEST DUP2 ADD PUSH1 0x20 DUP6 LT ISZERO PUSH2 0xBCD JUMPI DUP2 SWAP1 POP JUMPDEST PUSH2 0xBE1 PUSH2 0xBD9 DUP6 PUSH2 0xAA1 JUMP JUMPDEST DUP4 ADD DUP3 PUSH2 0xB81 JUMP JUMPDEST POP POP JUMPDEST POP POP POP JUMP JUMPDEST PUSH0 DUP3 DUP3 SHR SWAP1 POP SWAP3 SWAP2 POP POP JUMP JUMPDEST PUSH0 PUSH2 0xC04 PUSH0 NOT DUP5 PUSH1 0x8 MUL PUSH2 0xBE9 JUMP JUMPDEST NOT DUP1 DUP4 AND SWAP2 POP POP SWAP3 SWAP2 POP POP JUMP JUMPDEST PUSH0 PUSH2 0xC1C DUP4 DUP4 PUSH2 0xBF5 JUMP JUMPDEST SWAP2 POP DUP3 PUSH1 0x2 MUL DUP3 OR SWAP1 POP SWAP3 SWAP2 POP POP JUMP JUMPDEST PUSH2 0xC35 DUP3 PUSH2 0x618 JUMP JUMPDEST PUSH8 0xFFFFFFFFFFFFFFFF DUP2 GT ISZERO PUSH2 0xC4E JUMPI PUSH2 0xC4D PUSH2 0x75B JUMP JUMPDEST JUMPDEST PUSH2 0xC58 DUP3 SLOAD PUSH2 0x9F7 JUMP JUMPDEST PUSH2 0xC63 DUP3 DUP3 DUP6 PUSH2 0xBA3 JUMP JUMPDEST PUSH0 PUSH1 0x20 SWAP1 POP PUSH1 0x1F DUP4 GT PUSH1 0x1 DUP2 EQ PUSH2 0xC94 JUMPI PUSH0 DUP5 ISZERO PUSH2 0xC82 JUMPI DUP3 DUP8 ADD MLOAD SWAP1 POP JUMPDEST PUSH2 0xC8C DUP6 DUP3 PUSH2 0xC11 JUMP JUMPDEST DUP7 SSTORE POP PUSH2 0xCF3 JUMP JUMPDEST PUSH1 0x1F NOT DUP5 AND PUSH2 0xCA2 DUP7 PUSH2 0xA8F JUMP JUMPDEST PUSH0 JUMPDEST DUP3 DUP2 LT ISZERO PUSH2 0xCC9 JUMPI DUP5 DUP10 ADD MLOAD DUP3 SSTORE PUSH1 0x1 DUP3 ADD SWAP2 POP PUSH1 0x20 DUP6 ADD SWAP5 POP PUSH1 0x20 DUP2 ADD SWAP1 POP PUSH2 0xCA4 JUMP JUMPDEST DUP7 DUP4 LT ISZERO PUSH2 0xCE6 JUMPI DUP5 DUP10 ADD MLOAD PUSH2 0xCE2 PUSH1 0x1F DUP10 AND DUP3 PUSH2 0xBF5 JUMP JUMPDEST DUP4 SSTORE POP JUMPDEST PUSH1 0x1 PUSH1 0x2 DUP9 MUL ADD DUP9 SSTORE POP POP POP JUMPDEST POP POP POP POP POP POP JUMP INVALID LOG2 PUSH5 0x6970667358 0x22 SLT KECCAK256 0xC2 SWAP5 LOG4 RETURNDATACOPY 0xDA 0xE SHL EXP 0xBD PUSH17 0x4368292C74DD4B6FDFDEF8BEA39F31CE18 0xD PUSH12 0x7B8B6C64736F6C634300081A STOP CALLER "
				},
				"gasEstimates": {
					"creation": {
						"codeDepositCost": "675400",
						"executionCost": "706",
						"totalCost": "676106"
					},
					"external": {
						"addOrganization(string,address,uint8)": "infinite",
						"getOrganization(uint256)": "infinite",
						"getOrganizationCount()": "2440",
						"isOrganization(address)": "2877",
						"organizations(uint256)": "infinite"
					}
				},
				"methodIdentifiers": {
					"addOrganization(string,address,uint8)": "6d4fb71d",
					"getOrganization(uint256)": "4526f690",
					"getOrganizationCount()": "5734e5e3",
					"isOrganization(address)": "b1ce8eab",
					"organizations(uint256)": "e792dd8a"
				}
			},
			"storageLayout": {
				"storage": [
					{
						"astId": 16,
						"contract": "contracts/organ.sol:OrganizationManager",
						"label": "organizations",
						"offset": 0,
						"slot": "0",
						"type": "t_array(t_struct(Organization)12_storage)dyn_storage"
					},
					{
						"astId": 20,
						"contract": "contracts/organ.sol:OrganizationManager",
						"label": "isOrganization",
						"offset": 0,
						"slot": "1",
						"type": "t_mapping(t_address,t_bool)"
					}
				],
				"types": {
					"t_address": {
						"encoding": "inplace",
						"label": "address",
						"numberOfBytes": "20"
					},
					"t_array(t_struct(Organization)12_storage)dyn_storage": {
						"base": "t_struct(Organization)12_storage",
						"encoding": "dynamic_array",
						"label": "struct OrganizationManager.Organization[]",
						"numberOfBytes": "32"
					},
					"t_bool": {
						"encoding": "inplace",
						"label": "bool",
						"numberOfBytes": "1"
					},
					"t_mapping(t_address,t_bool)": {
						"encoding": "mapping",
						"key": "t_address",
						"label": "mapping(address => bool)",
						"numberOfBytes": "32",
						"value": "t_bool"
					},
					"t_string_storage": {
						"encoding": "bytes",
						"label": "string",
						"numberOfBytes": "32"
					},
					"t_struct(Organization)12_storage": {
						"encoding": "inplace",
						"label": "struct OrganizationManager.Organization",
						"members": [
							{
								"astId": 3,
								"contract": "contracts/organ.sol:OrganizationManager",
								"label": "id",
								"offset": 0,
								"slot": "0",
								"type": "t_uint256"
							},
							{
								"astId": 5,
								"contract": "contracts/organ.sol:OrganizationManager",
								"label": "name",
								"offset": 0,
								"slot": "1",
								"type": "t_string_storage"
							},
							{
								"astId": 7,
								"contract": "contracts/organ.sol:OrganizationManager",
								"label": "wallet",
								"offset": 0,
								"slot": "2",
								"type": "t_address"
							},
							{
								"astId": 9,
								"contract": "contracts/organ.sol:OrganizationManager",
								"label": "reputation",
								"offset": 0,
								"slot": "3",
								"type": "t_uint256"
							},
							{
								"astId": 11,
								"contract": "contracts/organ.sol:OrganizationManager",
								"label": "level",
								"offset": 0,
								"slot": "4",
								"type": "t_uint8"
							}
						],
						"numberOfBytes": "160"
					},
					"t_uint256": {
						"encoding": "inplace",
						"label": "uint256",
						"numberOfBytes": "32"
					},
					"t_uint8": {
						"encoding": "inplace",
						"label": "uint8",
						"numberOfBytes": "1"
					}
				}
			},
			"userdoc": {
				"kind": "user",
				"methods": {},
				"version": 1
			}
		}
	}
}