{
	"contracts/donor.sol": {
		"DonorManager": {
			"abi": [
				{
					"inputs": [
						{
							"internalType": "address",
							"name": "",
							"type": "address"
						}
					],
					"name": "donorIds",
					"outputs": [
						{
							"internalType": "uint256",
							"name": "",
							"type": "uint256"
						}
					],
					"stateMutability": "view",
					"type": "function"
				},
				{
					"inputs": [
						{
							"internalType": "uint256",
							"name": "",
							"type": "uint256"
						}
					],
					"name": "donors",
					"outputs": [
						{
							"internalType": "uint256",
							"name": "id",
							"type": "uint256"
						},
						{
							"internalType": "string",
							"name": "name",
							"type": "string"
						},
						{
							"internalType": "address",
							"name": "wallet",
							"type": "address"
						},
						{
							"internalType": "uint8",
							"name": "level",
							"type": "uint8"
						},
						{
							"internalType": "uint256",
							"name": "reputation",
							"type": "uint256"
						}
					],
					"stateMutability": "view",
					"type": "function"
				},
				{
					"inputs": [
						{
							"internalType": "address",
							"name": "_wallet",
							"type": "address"
						}
					],
					"name": "getDonor",
					"outputs": [
						{
							"internalType": "uint256",
							"name": "",
							"type": "uint256"
						},
						{
							"internalType": "string",
							"name": "",
							"type": "string"
						},
						{
							"internalType": "address",
							"name": "",
							"type": "address"
						},
						{
							"internalType": "uint8",
							"name": "",
							"type": "uint8"
						},
						{
							"internalType": "uint256",
							"name": "",
							"type": "uint256"
						}
					],
					"stateMutability": "view",
					"type": "function"
				},
				{
					"inputs": [
						{
							"internalType": "address",
							"name": "",
							"type": "address"
						}
					],
					"name": "isRegistered",
					"outputs": [
						{
							"internalType": "bool",
							"name": "",
							"type": "bool"
						}
					],
					"stateMutability": "view",
					"type": "function"
				},
				{
					"inputs": [
						{
							"internalType": "string",
							"name": "_name",
							"type": "string"
						},
						{
							"internalType": "uint8",
							"name": "_level",
							"type": "uint8"
						}
					],
					"name": "signUp",
					"outputs": [],
					"stateMutability": "nonpayable",
					"type": "function"
				}
			],
			"devdoc": {
				"kind": "dev",
				"methods": {},
				"version": 1
			},
			"evm": {
				"assembly": "    /* \"contracts/donor.sol\":60:1384  contract DonorManager {... */\n  mstore(0x40, 0x80)\n  callvalue\n  dup1\n  iszero\n  tag_1\n  jumpi\n  0x00\n  dup1\n  revert\ntag_1:\n  pop\n  dataSize(sub_0)\n  dup1\n  dataOffset(sub_0)\n  0x00\n  codecopy\n  0x00\n  return\nstop\n\nsub_0: assembly {\n        /* \"contracts/donor.sol\":60:1384  contract DonorManager {... */\n      mstore(0x40, 0x80)\n      callvalue\n      dup1\n      iszero\n      tag_1\n      jumpi\n      0x00\n      dup1\n      revert\n    tag_1:\n      pop\n      jumpi(tag_2, lt(calldatasize, 0x04))\n      shr(0xe0, calldataload(0x00))\n      dup1\n      0x4abfa163\n      eq\n      tag_3\n      jumpi\n      dup1\n      0x6d7ea917\n      eq\n      tag_4\n      jumpi\n      dup1\n      0x96c59043\n      eq\n      tag_5\n      jumpi\n      dup1\n      0xc3c5a547\n      eq\n      tag_6\n      jumpi\n      dup1\n      0xc79a2b2b\n      eq\n      tag_7\n      jumpi\n    tag_2:\n      0x00\n      dup1\n      revert\n        /* \"contracts/donor.sol\":276:297  Donor[] public donors */\n    tag_3:\n      tag_8\n      0x04\n      dup1\n      calldatasize\n      sub\n      dup2\n      add\n      swap1\n      tag_9\n      swap2\n      swap1\n      tag_10\n      jump\t// in\n    tag_9:\n      tag_11\n      jump\t// in\n    tag_8:\n      mload(0x40)\n      tag_12\n      swap6\n      swap5\n      swap4\n      swap3\n      swap2\n      swap1\n      tag_13\n      jump\t// in\n    tag_12:\n      mload(0x40)\n      dup1\n      swap2\n      sub\n      swap1\n      return\n        /* \"contracts/donor.sol\":397:440  mapping(address => uint256) public donorIds */\n    tag_4:\n      tag_14\n      0x04\n      dup1\n      calldatasize\n      sub\n      dup2\n      add\n      swap1\n      tag_15\n      swap2\n      swap1\n      tag_16\n      jump\t// in\n    tag_15:\n      tag_17\n      jump\t// in\n    tag_14:\n      mload(0x40)\n      tag_18\n      swap2\n      swap1\n      tag_19\n      jump\t// in\n    tag_18:\n      mload(0x40)\n      dup1\n      swap2\n      sub\n      swap1\n      return\n        /* \"contracts/donor.sol\":1003:1381  function getDonor(address _wallet)... */\n    tag_5:\n      tag_20\n      0x04\n      dup1\n      calldatasize\n      sub\n      dup2\n      add\n      swap1\n      tag_21\n      swap2\n      swap1\n      tag_16\n      jump\t// in\n    tag_21:\n      tag_22\n      jump\t// in\n    tag_20:\n      mload(0x40)\n      tag_23\n      swap6\n      swap5\n      swap4\n      swap3\n      swap2\n      swap1\n      tag_13\n      jump\t// in\n    tag_23:\n      mload(0x40)\n      dup1\n      swap2\n      sub\n      swap1\n      return\n        /* \"contracts/donor.sol\":304:348  mapping(address => bool) public isRegistered */\n    tag_6:\n      tag_24\n      0x04\n      dup1\n      calldatasize\n      sub\n      dup2\n      add\n      swap1\n      tag_25\n      swap2\n      swap1\n      tag_16\n      jump\t// in\n    tag_25:\n      tag_26\n      jump\t// in\n    tag_24:\n      mload(0x40)\n      tag_27\n      swap2\n      swap1\n      tag_28\n      jump\t// in\n    tag_27:\n      mload(0x40)\n      dup1\n      swap2\n      sub\n      swap1\n      return\n        /* \"contracts/donor.sol\":523:941  function signUp(string memory _name, uint8 _level) public {... */\n    tag_7:\n      tag_29\n      0x04\n      dup1\n      calldatasize\n      sub\n      dup2\n      add\n      swap1\n      tag_30\n      swap2\n      swap1\n      tag_31\n      jump\t// in\n    tag_30:\n      tag_32\n      jump\t// in\n    tag_29:\n      stop\n        /* \"contracts/donor.sol\":276:297  Donor[] public donors */\n    tag_11:\n      0x00\n      dup2\n      dup2\n      sload\n      dup2\n      lt\n      tag_33\n      jumpi\n      0x00\n      dup1\n      revert\n    tag_33:\n      swap1\n      0x00\n      mstore\n      keccak256(0x00, 0x20)\n      swap1\n      0x04\n      mul\n      add\n      0x00\n      swap2\n      pop\n      swap1\n      pop\n      dup1\n      0x00\n      add\n      sload\n      swap1\n      dup1\n      0x01\n      add\n      dup1\n      sload\n      tag_35\n      swap1\n      tag_36\n      jump\t// in\n    tag_35:\n      dup1\n      0x1f\n      add\n      0x20\n      dup1\n      swap2\n      div\n      mul\n      0x20\n      add\n      mload(0x40)\n      swap1\n      dup2\n      add\n      0x40\n      mstore\n      dup1\n      swap3\n      swap2\n      swap1\n      dup2\n      dup2\n      mstore\n      0x20\n      add\n      dup3\n      dup1\n      sload\n      tag_37\n      swap1\n      tag_36\n      jump\t// in\n    tag_37:\n      dup1\n      iszero\n      tag_38\n      jumpi\n      dup1\n      0x1f\n      lt\n      tag_39\n      jumpi\n      0x0100\n      dup1\n      dup4\n      sload\n      div\n      mul\n      dup4\n      mstore\n      swap2\n      0x20\n      add\n      swap2\n      jump(tag_38)\n    tag_39:\n      dup3\n      add\n      swap2\n      swap1\n      0x00\n      mstore\n      keccak256(0x00, 0x20)\n      swap1\n    tag_40:\n      dup2\n      sload\n      dup2\n      mstore\n      swap1\n      0x01\n      add\n      swap1\n      0x20\n      add\n      dup1\n      dup4\n      gt\n      tag_40\n      jumpi\n      dup3\n      swap1\n      sub\n      0x1f\n      and\n      dup3\n      add\n      swap2\n    tag_38:\n      pop\n      pop\n      pop\n      pop\n      pop\n      swap1\n      dup1\n      0x02\n      add\n      0x00\n      swap1\n      sload\n      swap1\n      0x0100\n      exp\n      swap1\n      div\n      0xffffffffffffffffffffffffffffffffffffffff\n      and\n      swap1\n      dup1\n      0x02\n      add\n      0x14\n      swap1\n      sload\n      swap1\n      0x0100\n      exp\n      swap1\n      div\n      0xff\n      and\n      swap1\n      dup1\n      0x03\n      add\n      sload\n      swap1\n      pop\n      dup6\n      jump\t// out\n        /* \"contracts/donor.sol\":397:440  mapping(address => uint256) public donorIds */\n    tag_17:\n      mstore(0x20, 0x02)\n      dup1\n      0x00\n      mstore\n      keccak256(0x00, 0x40)\n      0x00\n      swap2\n      pop\n      swap1\n      pop\n      sload\n      dup2\n      jump\t// out\n        /* \"contracts/donor.sol\":1003:1381  function getDonor(address _wallet)... */\n    tag_22:\n        /* \"contracts/donor.sol\":1086:1093  uint256 */\n      0x00\n        /* \"contracts/donor.sol\":1095:1108  string memory */\n      0x60\n        /* \"contracts/donor.sol\":1110:1117  address */\n      0x00\n        /* \"contracts/donor.sol\":1119:1124  uint8 */\n      dup1\n        /* \"contracts/donor.sol\":1126:1133  uint256 */\n      0x00\n        /* \"contracts/donor.sol\":1159:1171  isRegistered */\n      0x01\n        /* \"contracts/donor.sol\":1159:1180  isRegistered[_wallet] */\n      0x00\n        /* \"contracts/donor.sol\":1172:1179  _wallet */\n      dup8\n        /* \"contracts/donor.sol\":1159:1180  isRegistered[_wallet] */\n      0xffffffffffffffffffffffffffffffffffffffff\n      and\n      0xffffffffffffffffffffffffffffffffffffffff\n      and\n      dup2\n      mstore\n      0x20\n      add\n      swap1\n      dup2\n      mstore\n      0x20\n      add\n      0x00\n      keccak256\n      0x00\n      swap1\n      sload\n      swap1\n      0x0100\n      exp\n      swap1\n      div\n      0xff\n      and\n        /* \"contracts/donor.sol\":1151:1205  require(isRegistered[_wallet], \"Donor not registered\") */\n      tag_42\n      jumpi\n      mload(0x40)\n      0x08c379a000000000000000000000000000000000000000000000000000000000\n      dup2\n      mstore\n      0x04\n      add\n      tag_43\n      swap1\n      tag_44\n      jump\t// in\n    tag_43:\n      mload(0x40)\n      dup1\n      swap2\n      sub\n      swap1\n      revert\n    tag_42:\n        /* \"contracts/donor.sol\":1216:1226  uint256 id */\n      0x00\n        /* \"contracts/donor.sol\":1229:1237  donorIds */\n      0x02\n        /* \"contracts/donor.sol\":1229:1246  donorIds[_wallet] */\n      0x00\n        /* \"contracts/donor.sol\":1238:1245  _wallet */\n      dup9\n        /* \"contracts/donor.sol\":1229:1246  donorIds[_wallet] */\n      0xffffffffffffffffffffffffffffffffffffffff\n      and\n      0xffffffffffffffffffffffffffffffffffffffff\n      and\n      dup2\n      mstore\n      0x20\n      add\n      swap1\n      dup2\n      mstore\n      0x20\n      add\n      0x00\n      keccak256\n      sload\n        /* \"contracts/donor.sol\":1216:1246  uint256 id = donorIds[_wallet] */\n      swap1\n      pop\n        /* \"contracts/donor.sol\":1257:1275  Donor memory donor */\n      0x00\n        /* \"contracts/donor.sol\":1278:1284  donors */\n      dup1\n        /* \"contracts/donor.sol\":1285:1287  id */\n      dup3\n        /* \"contracts/donor.sol\":1278:1288  donors[id] */\n      dup2\n      sload\n      dup2\n      lt\n      tag_45\n      jumpi\n      tag_46\n      tag_47\n      jump\t// in\n    tag_46:\n    tag_45:\n      swap1\n      0x00\n      mstore\n      keccak256(0x00, 0x20)\n      swap1\n      0x04\n      mul\n      add\n        /* \"contracts/donor.sol\":1257:1288  Donor memory donor = donors[id] */\n      mload(0x40)\n      dup1\n      0xa0\n      add\n      0x40\n      mstore\n      swap1\n      dup2\n      0x00\n      dup3\n      add\n      sload\n      dup2\n      mstore\n      0x20\n      add\n      0x01\n      dup3\n      add\n      dup1\n      sload\n      tag_49\n      swap1\n      tag_36\n      jump\t// in\n    tag_49:\n      dup1\n      0x1f\n      add\n      0x20\n      dup1\n      swap2\n      div\n      mul\n      0x20\n      add\n      mload(0x40)\n      swap1\n      dup2\n      add\n      0x40\n      mstore\n      dup1\n      swap3\n      swap2\n      swap1\n      dup2\n      dup2\n      mstore\n      0x20\n      add\n      dup3\n      dup1\n      sload\n      tag_50\n      swap1\n      tag_36\n      jump\t// in\n    tag_50:\n      dup1\n      iszero\n      tag_51\n      jumpi\n      dup1\n      0x1f\n      lt\n      tag_52\n      jumpi\n      0x0100\n      dup1\n      dup4\n      sload\n      div\n      mul\n      dup4\n      mstore\n      swap2\n      0x20\n      add\n      swap2\n      jump(tag_51)\n    tag_52:\n      dup3\n      add\n      swap2\n      swap1\n      0x00\n      mstore\n      keccak256(0x00, 0x20)\n      swap1\n    tag_53:\n      dup2\n      sload\n      dup2\n      mstore\n      swap1\n      0x01\n      add\n      swap1\n      0x20\n      add\n      dup1\n      dup4\n      gt\n      tag_53\n      jumpi\n      dup3\n      swap1\n      sub\n      0x1f\n      and\n      dup3\n      add\n      swap2\n    tag_51:\n      pop\n      pop\n      pop\n      pop\n      pop\n      dup2\n      mstore\n      0x20\n      add\n      0x02\n      dup3\n      add\n      0x00\n      swap1\n      sload\n      swap1\n      0x0100\n      exp\n      swap1\n      div\n      0xffffffffffffffffffffffffffffffffffffffff\n      and\n      0xffffffffffffffffffffffffffffffffffffffff\n      and\n      0xffffffffffffffffffffffffffffffffffffffff\n      and\n      dup2\n      mstore\n      0x20\n      add\n      0x02\n      dup3\n      add\n      0x14\n      swap1\n      sload\n      swap1\n      0x0100\n      exp\n      swap1\n      div\n      0xff\n      and\n      0xff\n      and\n      0xff\n      and\n      dup2\n      mstore\n      0x20\n      add\n      0x03\n      dup3\n      add\n      sload\n      dup2\n      mstore\n      pop\n      pop\n      swap1\n      pop\n        /* \"contracts/donor.sol\":1307:1312  donor */\n      dup1\n        /* \"contracts/donor.sol\":1307:1315  donor.id */\n      0x00\n      add\n      mload\n        /* \"contracts/donor.sol\":1317:1322  donor */\n      dup2\n        /* \"contracts/donor.sol\":1317:1327  donor.name */\n      0x20\n      add\n      mload\n        /* \"contracts/donor.sol\":1329:1334  donor */\n      dup3\n        /* \"contracts/donor.sol\":1329:1341  donor.wallet */\n      0x40\n      add\n      mload\n        /* \"contracts/donor.sol\":1343:1348  donor */\n      dup4\n        /* \"contracts/donor.sol\":1343:1354  donor.level */\n      0x60\n      add\n      mload\n        /* \"contracts/donor.sol\":1356:1361  donor */\n      dup5\n        /* \"contracts/donor.sol\":1356:1372  donor.reputation */\n      0x80\n      add\n      mload\n        /* \"contracts/donor.sol\":1299:1373  return (donor.id, donor.name, donor.wallet, donor.level, donor.reputation) */\n      swap7\n      pop\n      swap7\n      pop\n      swap7\n      pop\n      swap7\n      pop\n      swap7\n      pop\n      pop\n      pop\n        /* \"contracts/donor.sol\":1003:1381  function getDonor(address _wallet)... */\n      swap2\n      swap4\n      swap6\n      swap1\n      swap3\n      swap5\n      pop\n      jump\t// out\n        /* \"contracts/donor.sol\":304:348  mapping(address => bool) public isRegistered */\n    tag_26:\n      mstore(0x20, 0x01)\n      dup1\n      0x00\n      mstore\n      keccak256(0x00, 0x40)\n      0x00\n      swap2\n      pop\n      sload\n      swap1\n      0x0100\n      exp\n      swap1\n      div\n      0xff\n      and\n      dup2\n      jump\t// out\n        /* \"contracts/donor.sol\":523:941  function signUp(string memory _name, uint8 _level) public {... */\n    tag_32:\n        /* \"contracts/donor.sol\":601:613  isRegistered */\n      0x01\n        /* \"contracts/donor.sol\":601:625  isRegistered[msg.sender] */\n      0x00\n        /* \"contracts/donor.sol\":614:624  msg.sender */\n      caller\n        /* \"contracts/donor.sol\":601:625  isRegistered[msg.sender] */\n      0xffffffffffffffffffffffffffffffffffffffff\n      and\n      0xffffffffffffffffffffffffffffffffffffffff\n      and\n      dup2\n      mstore\n      0x20\n      add\n      swap1\n      dup2\n      mstore\n      0x20\n      add\n      0x00\n      keccak256\n      0x00\n      swap1\n      sload\n      swap1\n      0x0100\n      exp\n      swap1\n      div\n      0xff\n      and\n        /* \"contracts/donor.sol\":600:625  !isRegistered[msg.sender] */\n      iszero\n        /* \"contracts/donor.sol\":592:654  require(!isRegistered[msg.sender], \"Donor already registered\") */\n      tag_55\n      jumpi\n      mload(0x40)\n      0x08c379a000000000000000000000000000000000000000000000000000000000\n      dup2\n      mstore\n      0x04\n      add\n      tag_56\n      swap1\n      tag_57\n      jump\t// in\n    tag_56:\n      mload(0x40)\n      dup1\n      swap2\n      sub\n      swap1\n      revert\n    tag_55:\n        /* \"contracts/donor.sol\":683:684  4 */\n      0x04\n        /* \"contracts/donor.sol\":673:679  _level */\n      dup2\n        /* \"contracts/donor.sol\":673:684  _level <= 4 */\n      0xff\n      and\n      gt\n      iszero\n        /* \"contracts/donor.sol\":665:702  require(_level <= 4, \"Invalid level\") */\n      tag_58\n      jumpi\n      mload(0x40)\n      0x08c379a000000000000000000000000000000000000000000000000000000000\n      dup2\n      mstore\n      0x04\n      add\n      tag_59\n      swap1\n      tag_60\n      jump\t// in\n    tag_59:\n      mload(0x40)\n      dup1\n      swap2\n      sub\n      swap1\n      revert\n    tag_58:\n        /* \"contracts/donor.sol\":740:750  uint256 id */\n      0x00\n        /* \"contracts/donor.sol\":753:759  donors */\n      dup1\n        /* \"contracts/donor.sol\":753:766  donors.length */\n      dup1\n      sload\n      swap1\n      pop\n        /* \"contracts/donor.sol\":740:766  uint256 id = donors.length */\n      swap1\n      pop\n        /* \"contracts/donor.sol\":777:783  donors */\n      0x00\n        /* \"contracts/donor.sol\":789:828  Donor(id, _name, msg.sender, _level, 0) */\n      mload(0x40)\n      dup1\n      0xa0\n      add\n      0x40\n      mstore\n      dup1\n        /* \"contracts/donor.sol\":795:797  id */\n      dup4\n        /* \"contracts/donor.sol\":789:828  Donor(id, _name, msg.sender, _level, 0) */\n      dup2\n      mstore\n      0x20\n      add\n        /* \"contracts/donor.sol\":799:804  _name */\n      dup6\n        /* \"contracts/donor.sol\":789:828  Donor(id, _name, msg.sender, _level, 0) */\n      dup2\n      mstore\n      0x20\n      add\n        /* \"contracts/donor.sol\":806:816  msg.sender */\n      caller\n        /* \"contracts/donor.sol\":789:828  Donor(id, _name, msg.sender, _level, 0) */\n      0xffffffffffffffffffffffffffffffffffffffff\n      and\n      dup2\n      mstore\n      0x20\n      add\n        /* \"contracts/donor.sol\":818:824  _level */\n      dup5\n        /* \"contracts/donor.sol\":789:828  Donor(id, _name, msg.sender, _level, 0) */\n      0xff\n      and\n      dup2\n      mstore\n      0x20\n      add\n        /* \"contracts/donor.sol\":826:827  0 */\n      0x00\n        /* \"contracts/donor.sol\":789:828  Donor(id, _name, msg.sender, _level, 0) */\n      dup2\n      mstore\n      pop\n        /* \"contracts/donor.sol\":777:829  donors.push(Donor(id, _name, msg.sender, _level, 0)) */\n      swap1\n      dup1\n      0x01\n      dup2\n      sload\n      add\n      dup1\n      dup3\n      sstore\n      dup1\n      swap2\n      pop\n      pop\n      0x01\n      swap1\n      sub\n      swap1\n      0x00\n      mstore\n      keccak256(0x00, 0x20)\n      swap1\n      0x04\n      mul\n      add\n      0x00\n      swap1\n      swap2\n      swap1\n      swap2\n      swap1\n      swap2\n      pop\n      0x00\n      dup3\n      add\n      mload\n      dup2\n      0x00\n      add\n      sstore\n      0x20\n      dup3\n      add\n      mload\n      dup2\n      0x01\n      add\n      swap1\n      dup2\n      tag_62\n      swap2\n      swap1\n      tag_63\n      jump\t// in\n    tag_62:\n      pop\n      0x40\n      dup3\n      add\n      mload\n      dup2\n      0x02\n      add\n      exp(0x0100, 0x00)\n      dup2\n      sload\n      dup2\n      0xffffffffffffffffffffffffffffffffffffffff\n      mul\n      not\n      and\n      swap1\n      dup4\n      0xffffffffffffffffffffffffffffffffffffffff\n      and\n      mul\n      or\n      swap1\n      sstore\n      pop\n      0x60\n      dup3\n      add\n      mload\n      dup2\n      0x02\n      add\n      exp(0x0100, 0x14)\n      dup2\n      sload\n      dup2\n      0xff\n      mul\n      not\n      and\n      swap1\n      dup4\n      0xff\n      and\n      mul\n      or\n      swap1\n      sstore\n      pop\n      0x80\n      dup3\n      add\n      mload\n      dup2\n      0x03\n      add\n      sstore\n      pop\n      pop\n        /* \"contracts/donor.sol\":893:897  true */\n      0x01\n        /* \"contracts/donor.sol\":866:878  isRegistered */\n      dup1\n        /* \"contracts/donor.sol\":866:890  isRegistered[msg.sender] */\n      0x00\n        /* \"contracts/donor.sol\":879:889  msg.sender */\n      caller\n        /* \"contracts/donor.sol\":866:890  isRegistered[msg.sender] */\n      0xffffffffffffffffffffffffffffffffffffffff\n      and\n      0xffffffffffffffffffffffffffffffffffffffff\n      and\n      dup2\n      mstore\n      0x20\n      add\n      swap1\n      dup2\n      mstore\n      0x20\n      add\n      0x00\n      keccak256\n      0x00\n        /* \"contracts/donor.sol\":866:897  isRegistered[msg.sender] = true */\n      0x0100\n      exp\n      dup2\n      sload\n      dup2\n      0xff\n      mul\n      not\n      and\n      swap1\n      dup4\n      iszero\n      iszero\n      mul\n      or\n      swap1\n      sstore\n      pop\n        /* \"contracts/donor.sol\":931:933  id */\n      dup1\n        /* \"contracts/donor.sol\":908:916  donorIds */\n      0x02\n        /* \"contracts/donor.sol\":908:928  donorIds[msg.sender] */\n      0x00\n        /* \"contracts/donor.sol\":917:927  msg.sender */\n      caller\n        /* \"contracts/donor.sol\":908:928  donorIds[msg.sender] */\n      0xffffffffffffffffffffffffffffffffffffffff\n      and\n      0xffffffffffffffffffffffffffffffffffffffff\n      and\n      dup2\n      mstore\n      0x20\n      add\n      swap1\n      dup2\n      mstore\n      0x20\n      add\n      0x00\n      keccak256\n        /* \"contracts/donor.sol\":908:933  donorIds[msg.sender] = id */\n      dup2\n      swap1\n      sstore\n      pop\n        /* \"contracts/donor.sol\":581:941  {... */\n      pop\n        /* \"contracts/donor.sol\":523:941  function signUp(string memory _name, uint8 _level) public {... */\n      pop\n      pop\n      jump\t// out\n        /* \"#utility.yul\":7:82   */\n    tag_64:\n        /* \"#utility.yul\":40:46   */\n      0x00\n        /* \"#utility.yul\":73:75   */\n      0x40\n        /* \"#utility.yul\":67:76   */\n      mload\n        /* \"#utility.yul\":57:76   */\n      swap1\n      pop\n        /* \"#utility.yul\":7:82   */\n      swap1\n      jump\t// out\n        /* \"#utility.yul\":88:205   */\n    tag_65:\n        /* \"#utility.yul\":197:198   */\n      0x00\n        /* \"#utility.yul\":194:195   */\n      dup1\n        /* \"#utility.yul\":187:199   */\n      revert\n        /* \"#utility.yul\":211:328   */\n    tag_66:\n        /* \"#utility.yul\":320:321   */\n      0x00\n        /* \"#utility.yul\":317:318   */\n      dup1\n        /* \"#utility.yul\":310:322   */\n      revert\n        /* \"#utility.yul\":334:411   */\n    tag_67:\n        /* \"#utility.yul\":371:378   */\n      0x00\n        /* \"#utility.yul\":400:405   */\n      dup2\n        /* \"#utility.yul\":389:405   */\n      swap1\n      pop\n        /* \"#utility.yul\":334:411   */\n      swap2\n      swap1\n      pop\n      jump\t// out\n        /* \"#utility.yul\":417:539   */\n    tag_68:\n        /* \"#utility.yul\":490:514   */\n      tag_124\n        /* \"#utility.yul\":508:513   */\n      dup2\n        /* \"#utility.yul\":490:514   */\n      tag_67\n      jump\t// in\n    tag_124:\n        /* \"#utility.yul\":483:488   */\n      dup2\n        /* \"#utility.yul\":480:515   */\n      eq\n        /* \"#utility.yul\":470:533   */\n      tag_125\n      jumpi\n        /* \"#utility.yul\":529:530   */\n      0x00\n        /* \"#utility.yul\":526:527   */\n      dup1\n        /* \"#utility.yul\":519:531   */\n      revert\n        /* \"#utility.yul\":470:533   */\n    tag_125:\n        /* \"#utility.yul\":417:539   */\n      pop\n      jump\t// out\n        /* \"#utility.yul\":545:684   */\n    tag_69:\n        /* \"#utility.yul\":591:596   */\n      0x00\n        /* \"#utility.yul\":629:635   */\n      dup2\n        /* \"#utility.yul\":616:636   */\n      calldataload\n        /* \"#utility.yul\":607:636   */\n      swap1\n      pop\n        /* \"#utility.yul\":645:678   */\n      tag_127\n        /* \"#utility.yul\":672:677   */\n      dup2\n        /* \"#utility.yul\":645:678   */\n      tag_68\n      jump\t// in\n    tag_127:\n        /* \"#utility.yul\":545:684   */\n      swap3\n      swap2\n      pop\n      pop\n      jump\t// out\n        /* \"#utility.yul\":690:1019   */\n    tag_10:\n        /* \"#utility.yul\":749:755   */\n      0x00\n        /* \"#utility.yul\":798:800   */\n      0x20\n        /* \"#utility.yul\":786:795   */\n      dup3\n        /* \"#utility.yul\":777:784   */\n      dup5\n        /* \"#utility.yul\":773:796   */\n      sub\n        /* \"#utility.yul\":769:801   */\n      slt\n        /* \"#utility.yul\":766:885   */\n      iszero\n      tag_129\n      jumpi\n        /* \"#utility.yul\":804:883   */\n      tag_130\n      tag_65\n      jump\t// in\n    tag_130:\n        /* \"#utility.yul\":766:885   */\n    tag_129:\n        /* \"#utility.yul\":924:925   */\n      0x00\n        /* \"#utility.yul\":949:1002   */\n      tag_131\n        /* \"#utility.yul\":994:1001   */\n      dup5\n        /* \"#utility.yul\":985:991   */\n      dup3\n        /* \"#utility.yul\":974:983   */\n      dup6\n        /* \"#utility.yul\":970:992   */\n      add\n        /* \"#utility.yul\":949:1002   */\n      tag_69\n      jump\t// in\n    tag_131:\n        /* \"#utility.yul\":939:1002   */\n      swap2\n      pop\n        /* \"#utility.yul\":895:1012   */\n      pop\n        /* \"#utility.yul\":690:1019   */\n      swap3\n      swap2\n      pop\n      pop\n      jump\t// out\n        /* \"#utility.yul\":1025:1143   */\n    tag_70:\n        /* \"#utility.yul\":1112:1136   */\n      tag_133\n        /* \"#utility.yul\":1130:1135   */\n      dup2\n        /* \"#utility.yul\":1112:1136   */\n      tag_67\n      jump\t// in\n    tag_133:\n        /* \"#utility.yul\":1107:1110   */\n      dup3\n        /* \"#utility.yul\":1100:1137   */\n      mstore\n        /* \"#utility.yul\":1025:1143   */\n      pop\n      pop\n      jump\t// out\n        /* \"#utility.yul\":1149:1248   */\n    tag_71:\n        /* \"#utility.yul\":1201:1207   */\n      0x00\n        /* \"#utility.yul\":1235:1240   */\n      dup2\n        /* \"#utility.yul\":1229:1241   */\n      mload\n        /* \"#utility.yul\":1219:1241   */\n      swap1\n      pop\n        /* \"#utility.yul\":1149:1248   */\n      swap2\n      swap1\n      pop\n      jump\t// out\n        /* \"#utility.yul\":1254:1423   */\n    tag_72:\n        /* \"#utility.yul\":1338:1349   */\n      0x00\n        /* \"#utility.yul\":1372:1378   */\n      dup3\n        /* \"#utility.yul\":1367:1370   */\n      dup3\n        /* \"#utility.yul\":1360:1379   */\n      mstore\n        /* \"#utility.yul\":1412:1416   */\n      0x20\n        /* \"#utility.yul\":1407:1410   */\n      dup3\n        /* \"#utility.yul\":1403:1417   */\n      add\n        /* \"#utility.yul\":1388:1417   */\n      swap1\n      pop\n        /* \"#utility.yul\":1254:1423   */\n      swap3\n      swap2\n      pop\n      pop\n      jump\t// out\n        /* \"#utility.yul\":1429:1568   */\n    tag_73:\n        /* \"#utility.yul\":1518:1524   */\n      dup3\n        /* \"#utility.yul\":1513:1516   */\n      dup2\n        /* \"#utility.yul\":1508:1511   */\n      dup4\n        /* \"#utility.yul\":1502:1525   */\n      mcopy\n        /* \"#utility.yul\":1559:1560   */\n      0x00\n        /* \"#utility.yul\":1550:1556   */\n      dup4\n        /* \"#utility.yul\":1545:1548   */\n      dup4\n        /* \"#utility.yul\":1541:1557   */\n      add\n        /* \"#utility.yul\":1534:1561   */\n      mstore\n        /* \"#utility.yul\":1429:1568   */\n      pop\n      pop\n      pop\n      jump\t// out\n        /* \"#utility.yul\":1574:1676   */\n    tag_74:\n        /* \"#utility.yul\":1615:1621   */\n      0x00\n        /* \"#utility.yul\":1666:1668   */\n      0x1f\n        /* \"#utility.yul\":1662:1669   */\n      not\n        /* \"#utility.yul\":1657:1659   */\n      0x1f\n        /* \"#utility.yul\":1650:1655   */\n      dup4\n        /* \"#utility.yul\":1646:1660   */\n      add\n        /* \"#utility.yul\":1642:1670   */\n      and\n        /* \"#utility.yul\":1632:1670   */\n      swap1\n      pop\n        /* \"#utility.yul\":1574:1676   */\n      swap2\n      swap1\n      pop\n      jump\t// out\n        /* \"#utility.yul\":1682:2059   */\n    tag_75:\n        /* \"#utility.yul\":1770:1773   */\n      0x00\n        /* \"#utility.yul\":1798:1837   */\n      tag_139\n        /* \"#utility.yul\":1831:1836   */\n      dup3\n        /* \"#utility.yul\":1798:1837   */\n      tag_71\n      jump\t// in\n    tag_139:\n        /* \"#utility.yul\":1853:1924   */\n      tag_140\n        /* \"#utility.yul\":1917:1923   */\n      dup2\n        /* \"#utility.yul\":1912:1915   */\n      dup6\n        /* \"#utility.yul\":1853:1924   */\n      tag_72\n      jump\t// in\n    tag_140:\n        /* \"#utility.yul\":1846:1924   */\n      swap4\n      pop\n        /* \"#utility.yul\":1933:1998   */\n      tag_141\n        /* \"#utility.yul\":1991:1997   */\n      dup2\n        /* \"#utility.yul\":1986:1989   */\n      dup6\n        /* \"#utility.yul\":1979:1983   */\n      0x20\n        /* \"#utility.yul\":1972:1977   */\n      dup7\n        /* \"#utility.yul\":1968:1984   */\n      add\n        /* \"#utility.yul\":1933:1998   */\n      tag_73\n      jump\t// in\n    tag_141:\n        /* \"#utility.yul\":2023:2052   */\n      tag_142\n        /* \"#utility.yul\":2045:2051   */\n      dup2\n        /* \"#utility.yul\":2023:2052   */\n      tag_74\n      jump\t// in\n    tag_142:\n        /* \"#utility.yul\":2018:2021   */\n      dup5\n        /* \"#utility.yul\":2014:2053   */\n      add\n        /* \"#utility.yul\":2007:2053   */\n      swap2\n      pop\n        /* \"#utility.yul\":1774:2059   */\n      pop\n        /* \"#utility.yul\":1682:2059   */\n      swap3\n      swap2\n      pop\n      pop\n      jump\t// out\n        /* \"#utility.yul\":2065:2191   */\n    tag_76:\n        /* \"#utility.yul\":2102:2109   */\n      0x00\n        /* \"#utility.yul\":2142:2184   */\n      0xffffffffffffffffffffffffffffffffffffffff\n        /* \"#utility.yul\":2135:2140   */\n      dup3\n        /* \"#utility.yul\":2131:2185   */\n      and\n        /* \"#utility.yul\":2120:2185   */\n      swap1\n      pop\n        /* \"#utility.yul\":2065:2191   */\n      swap2\n      swap1\n      pop\n      jump\t// out\n        /* \"#utility.yul\":2197:2293   */\n    tag_77:\n        /* \"#utility.yul\":2234:2241   */\n      0x00\n        /* \"#utility.yul\":2263:2287   */\n      tag_145\n        /* \"#utility.yul\":2281:2286   */\n      dup3\n        /* \"#utility.yul\":2263:2287   */\n      tag_76\n      jump\t// in\n    tag_145:\n        /* \"#utility.yul\":2252:2287   */\n      swap1\n      pop\n        /* \"#utility.yul\":2197:2293   */\n      swap2\n      swap1\n      pop\n      jump\t// out\n        /* \"#utility.yul\":2299:2417   */\n    tag_78:\n        /* \"#utility.yul\":2386:2410   */\n      tag_147\n        /* \"#utility.yul\":2404:2409   */\n      dup2\n        /* \"#utility.yul\":2386:2410   */\n      tag_77\n      jump\t// in\n    tag_147:\n        /* \"#utility.yul\":2381:2384   */\n      dup3\n        /* \"#utility.yul\":2374:2411   */\n      mstore\n        /* \"#utility.yul\":2299:2417   */\n      pop\n      pop\n      jump\t// out\n        /* \"#utility.yul\":2423:2509   */\n    tag_79:\n        /* \"#utility.yul\":2458:2465   */\n      0x00\n        /* \"#utility.yul\":2498:2502   */\n      0xff\n        /* \"#utility.yul\":2491:2496   */\n      dup3\n        /* \"#utility.yul\":2487:2503   */\n      and\n        /* \"#utility.yul\":2476:2503   */\n      swap1\n      pop\n        /* \"#utility.yul\":2423:2509   */\n      swap2\n      swap1\n      pop\n      jump\t// out\n        /* \"#utility.yul\":2515:2627   */\n    tag_80:\n        /* \"#utility.yul\":2598:2620   */\n      tag_150\n        /* \"#utility.yul\":2614:2619   */\n      dup2\n        /* \"#utility.yul\":2598:2620   */\n      tag_79\n      jump\t// in\n    tag_150:\n        /* \"#utility.yul\":2593:2596   */\n      dup3\n        /* \"#utility.yul\":2586:2621   */\n      mstore\n        /* \"#utility.yul\":2515:2627   */\n      pop\n      pop\n      jump\t// out\n        /* \"#utility.yul\":2633:3380   */\n    tag_13:\n        /* \"#utility.yul\":2854:2858   */\n      0x00\n        /* \"#utility.yul\":2892:2895   */\n      0xa0\n        /* \"#utility.yul\":2881:2890   */\n      dup3\n        /* \"#utility.yul\":2877:2896   */\n      add\n        /* \"#utility.yul\":2869:2896   */\n      swap1\n      pop\n        /* \"#utility.yul\":2906:2977   */\n      tag_152\n        /* \"#utility.yul\":2974:2975   */\n      0x00\n        /* \"#utility.yul\":2963:2972   */\n      dup4\n        /* \"#utility.yul\":2959:2976   */\n      add\n        /* \"#utility.yul\":2950:2956   */\n      dup9\n        /* \"#utility.yul\":2906:2977   */\n      tag_70\n      jump\t// in\n    tag_152:\n        /* \"#utility.yul\":3024:3033   */\n      dup2\n        /* \"#utility.yul\":3018:3022   */\n      dup2\n        /* \"#utility.yul\":3014:3034   */\n      sub\n        /* \"#utility.yul\":3009:3011   */\n      0x20\n        /* \"#utility.yul\":2998:3007   */\n      dup4\n        /* \"#utility.yul\":2994:3012   */\n      add\n        /* \"#utility.yul\":2987:3035   */\n      mstore\n        /* \"#utility.yul\":3052:3130   */\n      tag_153\n        /* \"#utility.yul\":3125:3129   */\n      dup2\n        /* \"#utility.yul\":3116:3122   */\n      dup8\n        /* \"#utility.yul\":3052:3130   */\n      tag_75\n      jump\t// in\n    tag_153:\n        /* \"#utility.yul\":3044:3130   */\n      swap1\n      pop\n        /* \"#utility.yul\":3140:3212   */\n      tag_154\n        /* \"#utility.yul\":3208:3210   */\n      0x40\n        /* \"#utility.yul\":3197:3206   */\n      dup4\n        /* \"#utility.yul\":3193:3211   */\n      add\n        /* \"#utility.yul\":3184:3190   */\n      dup7\n        /* \"#utility.yul\":3140:3212   */\n      tag_78\n      jump\t// in\n    tag_154:\n        /* \"#utility.yul\":3222:3290   */\n      tag_155\n        /* \"#utility.yul\":3286:3288   */\n      0x60\n        /* \"#utility.yul\":3275:3284   */\n      dup4\n        /* \"#utility.yul\":3271:3289   */\n      add\n        /* \"#utility.yul\":3262:3268   */\n      dup6\n        /* \"#utility.yul\":3222:3290   */\n      tag_80\n      jump\t// in\n    tag_155:\n        /* \"#utility.yul\":3300:3373   */\n      tag_156\n        /* \"#utility.yul\":3368:3371   */\n      0x80\n        /* \"#utility.yul\":3357:3366   */\n      dup4\n        /* \"#utility.yul\":3353:3372   */\n      add\n        /* \"#utility.yul\":3344:3350   */\n      dup5\n        /* \"#utility.yul\":3300:3373   */\n      tag_70\n      jump\t// in\n    tag_156:\n        /* \"#utility.yul\":2633:3380   */\n      swap7\n      swap6\n      pop\n      pop\n      pop\n      pop\n      pop\n      pop\n      jump\t// out\n        /* \"#utility.yul\":3386:3508   */\n    tag_81:\n        /* \"#utility.yul\":3459:3483   */\n      tag_158\n        /* \"#utility.yul\":3477:3482   */\n      dup2\n        /* \"#utility.yul\":3459:3483   */\n      tag_77\n      jump\t// in\n    tag_158:\n        /* \"#utility.yul\":3452:3457   */\n      dup2\n        /* \"#utility.yul\":3449:3484   */\n      eq\n        /* \"#utility.yul\":3439:3502   */\n      tag_159\n      jumpi\n        /* \"#utility.yul\":3498:3499   */\n      0x00\n        /* \"#utility.yul\":3495:3496   */\n      dup1\n        /* \"#utility.yul\":3488:3500   */\n      revert\n        /* \"#utility.yul\":3439:3502   */\n    tag_159:\n        /* \"#utility.yul\":3386:3508   */\n      pop\n      jump\t// out\n        /* \"#utility.yul\":3514:3653   */\n    tag_82:\n        /* \"#utility.yul\":3560:3565   */\n      0x00\n        /* \"#utility.yul\":3598:3604   */\n      dup2\n        /* \"#utility.yul\":3585:3605   */\n      calldataload\n        /* \"#utility.yul\":3576:3605   */\n      swap1\n      pop\n        /* \"#utility.yul\":3614:3647   */\n      tag_161\n        /* \"#utility.yul\":3641:3646   */\n      dup2\n        /* \"#utility.yul\":3614:3647   */\n      tag_81\n      jump\t// in\n    tag_161:\n        /* \"#utility.yul\":3514:3653   */\n      swap3\n      swap2\n      pop\n      pop\n      jump\t// out\n        /* \"#utility.yul\":3659:3988   */\n    tag_16:\n        /* \"#utility.yul\":3718:3724   */\n      0x00\n        /* \"#utility.yul\":3767:3769   */\n      0x20\n        /* \"#utility.yul\":3755:3764   */\n      dup3\n        /* \"#utility.yul\":3746:3753   */\n      dup5\n        /* \"#utility.yul\":3742:3765   */\n      sub\n        /* \"#utility.yul\":3738:3770   */\n      slt\n        /* \"#utility.yul\":3735:3854   */\n      iszero\n      tag_163\n      jumpi\n        /* \"#utility.yul\":3773:3852   */\n      tag_164\n      tag_65\n      jump\t// in\n    tag_164:\n        /* \"#utility.yul\":3735:3854   */\n    tag_163:\n        /* \"#utility.yul\":3893:3894   */\n      0x00\n        /* \"#utility.yul\":3918:3971   */\n      tag_165\n        /* \"#utility.yul\":3963:3970   */\n      dup5\n        /* \"#utility.yul\":3954:3960   */\n      dup3\n        /* \"#utility.yul\":3943:3952   */\n      dup6\n        /* \"#utility.yul\":3939:3961   */\n      add\n        /* \"#utility.yul\":3918:3971   */\n      tag_82\n      jump\t// in\n    tag_165:\n        /* \"#utility.yul\":3908:3971   */\n      swap2\n      pop\n        /* \"#utility.yul\":3864:3981   */\n      pop\n        /* \"#utility.yul\":3659:3988   */\n      swap3\n      swap2\n      pop\n      pop\n      jump\t// out\n        /* \"#utility.yul\":3994:4216   */\n    tag_19:\n        /* \"#utility.yul\":4087:4091   */\n      0x00\n        /* \"#utility.yul\":4125:4127   */\n      0x20\n        /* \"#utility.yul\":4114:4123   */\n      dup3\n        /* \"#utility.yul\":4110:4128   */\n      add\n        /* \"#utility.yul\":4102:4128   */\n      swap1\n      pop\n        /* \"#utility.yul\":4138:4209   */\n      tag_167\n        /* \"#utility.yul\":4206:4207   */\n      0x00\n        /* \"#utility.yul\":4195:4204   */\n      dup4\n        /* \"#utility.yul\":4191:4208   */\n      add\n        /* \"#utility.yul\":4182:4188   */\n      dup5\n        /* \"#utility.yul\":4138:4209   */\n      tag_70\n      jump\t// in\n    tag_167:\n        /* \"#utility.yul\":3994:4216   */\n      swap3\n      swap2\n      pop\n      pop\n      jump\t// out\n        /* \"#utility.yul\":4222:4312   */\n    tag_83:\n        /* \"#utility.yul\":4256:4263   */\n      0x00\n        /* \"#utility.yul\":4299:4304   */\n      dup2\n        /* \"#utility.yul\":4292:4305   */\n      iszero\n        /* \"#utility.yul\":4285:4306   */\n      iszero\n        /* \"#utility.yul\":4274:4306   */\n      swap1\n      pop\n        /* \"#utility.yul\":4222:4312   */\n      swap2\n      swap1\n      pop\n      jump\t// out\n        /* \"#utility.yul\":4318:4427   */\n    tag_84:\n        /* \"#utility.yul\":4399:4420   */\n      tag_170\n        /* \"#utility.yul\":4414:4419   */\n      dup2\n        /* \"#utility.yul\":4399:4420   */\n      tag_83\n      jump\t// in\n    tag_170:\n        /* \"#utility.yul\":4394:4397   */\n      dup3\n        /* \"#utility.yul\":4387:4421   */\n      mstore\n        /* \"#utility.yul\":4318:4427   */\n      pop\n      pop\n      jump\t// out\n        /* \"#utility.yul\":4433:4643   */\n    tag_28:\n        /* \"#utility.yul\":4520:4524   */\n      0x00\n        /* \"#utility.yul\":4558:4560   */\n      0x20\n        /* \"#utility.yul\":4547:4556   */\n      dup3\n        /* \"#utility.yul\":4543:4561   */\n      add\n        /* \"#utility.yul\":4535:4561   */\n      swap1\n      pop\n        /* \"#utility.yul\":4571:4636   */\n      tag_172\n        /* \"#utility.yul\":4633:4634   */\n      0x00\n        /* \"#utility.yul\":4622:4631   */\n      dup4\n        /* \"#utility.yul\":4618:4635   */\n      add\n        /* \"#utility.yul\":4609:4615   */\n      dup5\n        /* \"#utility.yul\":4571:4636   */\n      tag_84\n      jump\t// in\n    tag_172:\n        /* \"#utility.yul\":4433:4643   */\n      swap3\n      swap2\n      pop\n      pop\n      jump\t// out\n        /* \"#utility.yul\":4649:4766   */\n    tag_85:\n        /* \"#utility.yul\":4758:4759   */\n      0x00\n        /* \"#utility.yul\":4755:4756   */\n      dup1\n        /* \"#utility.yul\":4748:4760   */\n      revert\n        /* \"#utility.yul\":4772:4889   */\n    tag_86:\n        /* \"#utility.yul\":4881:4882   */\n      0x00\n        /* \"#utility.yul\":4878:4879   */\n      dup1\n        /* \"#utility.yul\":4871:4883   */\n      revert\n        /* \"#utility.yul\":4895:5075   */\n    tag_87:\n        /* \"#utility.yul\":4943:5020   */\n      0x4e487b7100000000000000000000000000000000000000000000000000000000\n        /* \"#utility.yul\":4940:4941   */\n      0x00\n        /* \"#utility.yul\":4933:5021   */\n      mstore\n        /* \"#utility.yul\":5040:5044   */\n      0x41\n        /* \"#utility.yul\":5037:5038   */\n      0x04\n        /* \"#utility.yul\":5030:5045   */\n      mstore\n        /* \"#utility.yul\":5064:5068   */\n      0x24\n        /* \"#utility.yul\":5061:5062   */\n      0x00\n        /* \"#utility.yul\":5054:5069   */\n      revert\n        /* \"#utility.yul\":5081:5362   */\n    tag_88:\n        /* \"#utility.yul\":5164:5191   */\n      tag_177\n        /* \"#utility.yul\":5186:5190   */\n      dup3\n        /* \"#utility.yul\":5164:5191   */\n      tag_74\n      jump\t// in\n    tag_177:\n        /* \"#utility.yul\":5156:5162   */\n      dup2\n        /* \"#utility.yul\":5152:5192   */\n      add\n        /* \"#utility.yul\":5294:5300   */\n      dup2\n        /* \"#utility.yul\":5282:5292   */\n      dup2\n        /* \"#utility.yul\":5279:5301   */\n      lt\n        /* \"#utility.yul\":5258:5276   */\n      0xffffffffffffffff\n        /* \"#utility.yul\":5246:5256   */\n      dup3\n        /* \"#utility.yul\":5243:5277   */\n      gt\n        /* \"#utility.yul\":5240:5302   */\n      or\n        /* \"#utility.yul\":5237:5325   */\n      iszero\n      tag_178\n      jumpi\n        /* \"#utility.yul\":5305:5323   */\n      tag_179\n      tag_87\n      jump\t// in\n    tag_179:\n        /* \"#utility.yul\":5237:5325   */\n    tag_178:\n        /* \"#utility.yul\":5345:5355   */\n      dup1\n        /* \"#utility.yul\":5341:5343   */\n      0x40\n        /* \"#utility.yul\":5334:5356   */\n      mstore\n        /* \"#utility.yul\":5124:5362   */\n      pop\n        /* \"#utility.yul\":5081:5362   */\n      pop\n      pop\n      jump\t// out\n        /* \"#utility.yul\":5368:5497   */\n    tag_89:\n        /* \"#utility.yul\":5402:5408   */\n      0x00\n        /* \"#utility.yul\":5429:5449   */\n      tag_181\n      tag_64\n      jump\t// in\n    tag_181:\n        /* \"#utility.yul\":5419:5449   */\n      swap1\n      pop\n        /* \"#utility.yul\":5458:5491   */\n      tag_182\n        /* \"#utility.yul\":5486:5490   */\n      dup3\n        /* \"#utility.yul\":5478:5484   */\n      dup3\n        /* \"#utility.yul\":5458:5491   */\n      tag_88\n      jump\t// in\n    tag_182:\n        /* \"#utility.yul\":5368:5497   */\n      swap2\n      swap1\n      pop\n      jump\t// out\n        /* \"#utility.yul\":5503:5811   */\n    tag_90:\n        /* \"#utility.yul\":5565:5569   */\n      0x00\n        /* \"#utility.yul\":5655:5673   */\n      0xffffffffffffffff\n        /* \"#utility.yul\":5647:5653   */\n      dup3\n        /* \"#utility.yul\":5644:5674   */\n      gt\n        /* \"#utility.yul\":5641:5697   */\n      iszero\n      tag_184\n      jumpi\n        /* \"#utility.yul\":5677:5695   */\n      tag_185\n      tag_87\n      jump\t// in\n    tag_185:\n        /* \"#utility.yul\":5641:5697   */\n    tag_184:\n        /* \"#utility.yul\":5715:5744   */\n      tag_186\n        /* \"#utility.yul\":5737:5743   */\n      dup3\n        /* \"#utility.yul\":5715:5744   */\n      tag_74\n      jump\t// in\n    tag_186:\n        /* \"#utility.yul\":5707:5744   */\n      swap1\n      pop\n        /* \"#utility.yul\":5799:5803   */\n      0x20\n        /* \"#utility.yul\":5793:5797   */\n      dup2\n        /* \"#utility.yul\":5789:5804   */\n      add\n        /* \"#utility.yul\":5781:5804   */\n      swap1\n      pop\n        /* \"#utility.yul\":5503:5811   */\n      swap2\n      swap1\n      pop\n      jump\t// out\n        /* \"#utility.yul\":5817:5965   */\n    tag_91:\n        /* \"#utility.yul\":5915:5921   */\n      dup3\n        /* \"#utility.yul\":5910:5913   */\n      dup2\n        /* \"#utility.yul\":5905:5908   */\n      dup4\n        /* \"#utility.yul\":5892:5922   */\n      calldatacopy\n        /* \"#utility.yul\":5956:5957   */\n      0x00\n        /* \"#utility.yul\":5947:5953   */\n      dup4\n        /* \"#utility.yul\":5942:5945   */\n      dup4\n        /* \"#utility.yul\":5938:5954   */\n      add\n        /* \"#utility.yul\":5931:5958   */\n      mstore\n        /* \"#utility.yul\":5817:5965   */\n      pop\n      pop\n      pop\n      jump\t// out\n        /* \"#utility.yul\":5971:6396   */\n    tag_92:\n        /* \"#utility.yul\":6049:6054   */\n      0x00\n        /* \"#utility.yul\":6074:6140   */\n      tag_189\n        /* \"#utility.yul\":6090:6139   */\n      tag_190\n        /* \"#utility.yul\":6132:6138   */\n      dup5\n        /* \"#utility.yul\":6090:6139   */\n      tag_90\n      jump\t// in\n    tag_190:\n        /* \"#utility.yul\":6074:6140   */\n      tag_89\n      jump\t// in\n    tag_189:\n        /* \"#utility.yul\":6065:6140   */\n      swap1\n      pop\n        /* \"#utility.yul\":6163:6169   */\n      dup3\n        /* \"#utility.yul\":6156:6161   */\n      dup2\n        /* \"#utility.yul\":6149:6170   */\n      mstore\n        /* \"#utility.yul\":6201:6205   */\n      0x20\n        /* \"#utility.yul\":6194:6199   */\n      dup2\n        /* \"#utility.yul\":6190:6206   */\n      add\n        /* \"#utility.yul\":6239:6242   */\n      dup5\n        /* \"#utility.yul\":6230:6236   */\n      dup5\n        /* \"#utility.yul\":6225:6228   */\n      dup5\n        /* \"#utility.yul\":6221:6237   */\n      add\n        /* \"#utility.yul\":6218:6243   */\n      gt\n        /* \"#utility.yul\":6215:6327   */\n      iszero\n      tag_191\n      jumpi\n        /* \"#utility.yul\":6246:6325   */\n      tag_192\n      tag_86\n      jump\t// in\n    tag_192:\n        /* \"#utility.yul\":6215:6327   */\n    tag_191:\n        /* \"#utility.yul\":6336:6390   */\n      tag_193\n        /* \"#utility.yul\":6383:6389   */\n      dup5\n        /* \"#utility.yul\":6378:6381   */\n      dup3\n        /* \"#utility.yul\":6373:6376   */\n      dup6\n        /* \"#utility.yul\":6336:6390   */\n      tag_91\n      jump\t// in\n    tag_193:\n        /* \"#utility.yul\":6055:6396   */\n      pop\n        /* \"#utility.yul\":5971:6396   */\n      swap4\n      swap3\n      pop\n      pop\n      pop\n      jump\t// out\n        /* \"#utility.yul\":6416:6756   */\n    tag_93:\n        /* \"#utility.yul\":6472:6477   */\n      0x00\n        /* \"#utility.yul\":6521:6524   */\n      dup3\n        /* \"#utility.yul\":6514:6518   */\n      0x1f\n        /* \"#utility.yul\":6506:6512   */\n      dup4\n        /* \"#utility.yul\":6502:6519   */\n      add\n        /* \"#utility.yul\":6498:6525   */\n      slt\n        /* \"#utility.yul\":6488:6610   */\n      tag_195\n      jumpi\n        /* \"#utility.yul\":6529:6608   */\n      tag_196\n      tag_85\n      jump\t// in\n    tag_196:\n        /* \"#utility.yul\":6488:6610   */\n    tag_195:\n        /* \"#utility.yul\":6646:6652   */\n      dup2\n        /* \"#utility.yul\":6633:6653   */\n      calldataload\n        /* \"#utility.yul\":6671:6750   */\n      tag_197\n        /* \"#utility.yul\":6746:6749   */\n      dup5\n        /* \"#utility.yul\":6738:6744   */\n      dup3\n        /* \"#utility.yul\":6731:6735   */\n      0x20\n        /* \"#utility.yul\":6723:6729   */\n      dup7\n        /* \"#utility.yul\":6719:6736   */\n      add\n        /* \"#utility.yul\":6671:6750   */\n      tag_92\n      jump\t// in\n    tag_197:\n        /* \"#utility.yul\":6662:6750   */\n      swap2\n      pop\n        /* \"#utility.yul\":6478:6756   */\n      pop\n        /* \"#utility.yul\":6416:6756   */\n      swap3\n      swap2\n      pop\n      pop\n      jump\t// out\n        /* \"#utility.yul\":6762:6880   */\n    tag_94:\n        /* \"#utility.yul\":6833:6855   */\n      tag_199\n        /* \"#utility.yul\":6849:6854   */\n      dup2\n        /* \"#utility.yul\":6833:6855   */\n      tag_79\n      jump\t// in\n    tag_199:\n        /* \"#utility.yul\":6826:6831   */\n      dup2\n        /* \"#utility.yul\":6823:6856   */\n      eq\n        /* \"#utility.yul\":6813:6874   */\n      tag_200\n      jumpi\n        /* \"#utility.yul\":6870:6871   */\n      0x00\n        /* \"#utility.yul\":6867:6868   */\n      dup1\n        /* \"#utility.yul\":6860:6872   */\n      revert\n        /* \"#utility.yul\":6813:6874   */\n    tag_200:\n        /* \"#utility.yul\":6762:6880   */\n      pop\n      jump\t// out\n        /* \"#utility.yul\":6886:7021   */\n    tag_95:\n        /* \"#utility.yul\":6930:6935   */\n      0x00\n        /* \"#utility.yul\":6968:6974   */\n      dup2\n        /* \"#utility.yul\":6955:6975   */\n      calldataload\n        /* \"#utility.yul\":6946:6975   */\n      swap1\n      pop\n        /* \"#utility.yul\":6984:7015   */\n      tag_202\n        /* \"#utility.yul\":7009:7014   */\n      dup2\n        /* \"#utility.yul\":6984:7015   */\n      tag_94\n      jump\t// in\n    tag_202:\n        /* \"#utility.yul\":6886:7021   */\n      swap3\n      swap2\n      pop\n      pop\n      jump\t// out\n        /* \"#utility.yul\":7027:7677   */\n    tag_31:\n        /* \"#utility.yul\":7103:7109   */\n      0x00\n        /* \"#utility.yul\":7111:7117   */\n      dup1\n        /* \"#utility.yul\":7160:7162   */\n      0x40\n        /* \"#utility.yul\":7148:7157   */\n      dup4\n        /* \"#utility.yul\":7139:7146   */\n      dup6\n        /* \"#utility.yul\":7135:7158   */\n      sub\n        /* \"#utility.yul\":7131:7163   */\n      slt\n        /* \"#utility.yul\":7128:7247   */\n      iszero\n      tag_204\n      jumpi\n        /* \"#utility.yul\":7166:7245   */\n      tag_205\n      tag_65\n      jump\t// in\n    tag_205:\n        /* \"#utility.yul\":7128:7247   */\n    tag_204:\n        /* \"#utility.yul\":7314:7315   */\n      0x00\n        /* \"#utility.yul\":7303:7312   */\n      dup4\n        /* \"#utility.yul\":7299:7316   */\n      add\n        /* \"#utility.yul\":7286:7317   */\n      calldataload\n        /* \"#utility.yul\":7344:7362   */\n      0xffffffffffffffff\n        /* \"#utility.yul\":7336:7342   */\n      dup2\n        /* \"#utility.yul\":7333:7363   */\n      gt\n        /* \"#utility.yul\":7330:7447   */\n      iszero\n      tag_206\n      jumpi\n        /* \"#utility.yul\":7366:7445   */\n      tag_207\n      tag_66\n      jump\t// in\n    tag_207:\n        /* \"#utility.yul\":7330:7447   */\n    tag_206:\n        /* \"#utility.yul\":7471:7534   */\n      tag_208\n        /* \"#utility.yul\":7526:7533   */\n      dup6\n        /* \"#utility.yul\":7517:7523   */\n      dup3\n        /* \"#utility.yul\":7506:7515   */\n      dup7\n        /* \"#utility.yul\":7502:7524   */\n      add\n        /* \"#utility.yul\":7471:7534   */\n      tag_93\n      jump\t// in\n    tag_208:\n        /* \"#utility.yul\":7461:7534   */\n      swap3\n      pop\n        /* \"#utility.yul\":7257:7544   */\n      pop\n        /* \"#utility.yul\":7583:7585   */\n      0x20\n        /* \"#utility.yul\":7609:7660   */\n      tag_209\n        /* \"#utility.yul\":7652:7659   */\n      dup6\n        /* \"#utility.yul\":7643:7649   */\n      dup3\n        /* \"#utility.yul\":7632:7641   */\n      dup7\n        /* \"#utility.yul\":7628:7650   */\n      add\n        /* \"#utility.yul\":7609:7660   */\n      tag_95\n      jump\t// in\n    tag_209:\n        /* \"#utility.yul\":7599:7660   */\n      swap2\n      pop\n        /* \"#utility.yul\":7554:7670   */\n      pop\n        /* \"#utility.yul\":7027:7677   */\n      swap3\n      pop\n      swap3\n      swap1\n      pop\n      jump\t// out\n        /* \"#utility.yul\":7683:7863   */\n    tag_96:\n        /* \"#utility.yul\":7731:7808   */\n      0x4e487b7100000000000000000000000000000000000000000000000000000000\n        /* \"#utility.yul\":7728:7729   */\n      0x00\n        /* \"#utility.yul\":7721:7809   */\n      mstore\n        /* \"#utility.yul\":7828:7832   */\n      0x22\n        /* \"#utility.yul\":7825:7826   */\n      0x04\n        /* \"#utility.yul\":7818:7833   */\n      mstore\n        /* \"#utility.yul\":7852:7856   */\n      0x24\n        /* \"#utility.yul\":7849:7850   */\n      0x00\n        /* \"#utility.yul\":7842:7857   */\n      revert\n        /* \"#utility.yul\":7869:8189   */\n    tag_36:\n        /* \"#utility.yul\":7913:7919   */\n      0x00\n        /* \"#utility.yul\":7950:7951   */\n      0x02\n        /* \"#utility.yul\":7944:7948   */\n      dup3\n        /* \"#utility.yul\":7940:7952   */\n      div\n        /* \"#utility.yul\":7930:7952   */\n      swap1\n      pop\n        /* \"#utility.yul\":7997:7998   */\n      0x01\n        /* \"#utility.yul\":7991:7995   */\n      dup3\n        /* \"#utility.yul\":7987:7999   */\n      and\n        /* \"#utility.yul\":8018:8036   */\n      dup1\n        /* \"#utility.yul\":8008:8089   */\n      tag_212\n      jumpi\n        /* \"#utility.yul\":8074:8078   */\n      0x7f\n        /* \"#utility.yul\":8066:8072   */\n      dup3\n        /* \"#utility.yul\":8062:8079   */\n      and\n        /* \"#utility.yul\":8052:8079   */\n      swap2\n      pop\n        /* \"#utility.yul\":8008:8089   */\n    tag_212:\n        /* \"#utility.yul\":8136:8138   */\n      0x20\n        /* \"#utility.yul\":8128:8134   */\n      dup3\n        /* \"#utility.yul\":8125:8139   */\n      lt\n        /* \"#utility.yul\":8105:8123   */\n      dup2\n        /* \"#utility.yul\":8102:8140   */\n      sub\n        /* \"#utility.yul\":8099:8183   */\n      tag_213\n      jumpi\n        /* \"#utility.yul\":8155:8173   */\n      tag_214\n      tag_96\n      jump\t// in\n    tag_214:\n        /* \"#utility.yul\":8099:8183   */\n    tag_213:\n        /* \"#utility.yul\":7920:8189   */\n      pop\n        /* \"#utility.yul\":7869:8189   */\n      swap2\n      swap1\n      pop\n      jump\t// out\n        /* \"#utility.yul\":8195:8365   */\n    tag_97:\n        /* \"#utility.yul\":8335:8357   */\n      0x446f6e6f72206e6f742072656769737465726564000000000000000000000000\n        /* \"#utility.yul\":8331:8332   */\n      0x00\n        /* \"#utility.yul\":8323:8329   */\n      dup3\n        /* \"#utility.yul\":8319:8333   */\n      add\n        /* \"#utility.yul\":8312:8358   */\n      mstore\n        /* \"#utility.yul\":8195:8365   */\n      pop\n      jump\t// out\n        /* \"#utility.yul\":8371:8737   */\n    tag_98:\n        /* \"#utility.yul\":8513:8516   */\n      0x00\n        /* \"#utility.yul\":8534:8601   */\n      tag_217\n        /* \"#utility.yul\":8598:8600   */\n      0x14\n        /* \"#utility.yul\":8593:8596   */\n      dup4\n        /* \"#utility.yul\":8534:8601   */\n      tag_72\n      jump\t// in\n    tag_217:\n        /* \"#utility.yul\":8527:8601   */\n      swap2\n      pop\n        /* \"#utility.yul\":8610:8703   */\n      tag_218\n        /* \"#utility.yul\":8699:8702   */\n      dup3\n        /* \"#utility.yul\":8610:8703   */\n      tag_97\n      jump\t// in\n    tag_218:\n        /* \"#utility.yul\":8728:8730   */\n      0x20\n        /* \"#utility.yul\":8723:8726   */\n      dup3\n        /* \"#utility.yul\":8719:8731   */\n      add\n        /* \"#utility.yul\":8712:8731   */\n      swap1\n      pop\n        /* \"#utility.yul\":8371:8737   */\n      swap2\n      swap1\n      pop\n      jump\t// out\n        /* \"#utility.yul\":8743:9162   */\n    tag_44:\n        /* \"#utility.yul\":8909:8913   */\n      0x00\n        /* \"#utility.yul\":8947:8949   */\n      0x20\n        /* \"#utility.yul\":8936:8945   */\n      dup3\n        /* \"#utility.yul\":8932:8950   */\n      add\n        /* \"#utility.yul\":8924:8950   */\n      swap1\n      pop\n        /* \"#utility.yul\":8996:9005   */\n      dup2\n        /* \"#utility.yul\":8990:8994   */\n      dup2\n        /* \"#utility.yul\":8986:9006   */\n      sub\n        /* \"#utility.yul\":8982:8983   */\n      0x00\n        /* \"#utility.yul\":8971:8980   */\n      dup4\n        /* \"#utility.yul\":8967:8984   */\n      add\n        /* \"#utility.yul\":8960:9007   */\n      mstore\n        /* \"#utility.yul\":9024:9155   */\n      tag_220\n        /* \"#utility.yul\":9150:9154   */\n      dup2\n        /* \"#utility.yul\":9024:9155   */\n      tag_98\n      jump\t// in\n    tag_220:\n        /* \"#utility.yul\":9016:9155   */\n      swap1\n      pop\n        /* \"#utility.yul\":8743:9162   */\n      swap2\n      swap1\n      pop\n      jump\t// out\n        /* \"#utility.yul\":9168:9348   */\n    tag_47:\n        /* \"#utility.yul\":9216:9293   */\n      0x4e487b7100000000000000000000000000000000000000000000000000000000\n        /* \"#utility.yul\":9213:9214   */\n      0x00\n        /* \"#utility.yul\":9206:9294   */\n      mstore\n        /* \"#utility.yul\":9313:9317   */\n      0x32\n        /* \"#utility.yul\":9310:9311   */\n      0x04\n        /* \"#utility.yul\":9303:9318   */\n      mstore\n        /* \"#utility.yul\":9337:9341   */\n      0x24\n        /* \"#utility.yul\":9334:9335   */\n      0x00\n        /* \"#utility.yul\":9327:9342   */\n      revert\n        /* \"#utility.yul\":9354:9528   */\n    tag_99:\n        /* \"#utility.yul\":9494:9520   */\n      0x446f6e6f7220616c726561647920726567697374657265640000000000000000\n        /* \"#utility.yul\":9490:9491   */\n      0x00\n        /* \"#utility.yul\":9482:9488   */\n      dup3\n        /* \"#utility.yul\":9478:9492   */\n      add\n        /* \"#utility.yul\":9471:9521   */\n      mstore\n        /* \"#utility.yul\":9354:9528   */\n      pop\n      jump\t// out\n        /* \"#utility.yul\":9534:9900   */\n    tag_100:\n        /* \"#utility.yul\":9676:9679   */\n      0x00\n        /* \"#utility.yul\":9697:9764   */\n      tag_224\n        /* \"#utility.yul\":9761:9763   */\n      0x18\n        /* \"#utility.yul\":9756:9759   */\n      dup4\n        /* \"#utility.yul\":9697:9764   */\n      tag_72\n      jump\t// in\n    tag_224:\n        /* \"#utility.yul\":9690:9764   */\n      swap2\n      pop\n        /* \"#utility.yul\":9773:9866   */\n      tag_225\n        /* \"#utility.yul\":9862:9865   */\n      dup3\n        /* \"#utility.yul\":9773:9866   */\n      tag_99\n      jump\t// in\n    tag_225:\n        /* \"#utility.yul\":9891:9893   */\n      0x20\n        /* \"#utility.yul\":9886:9889   */\n      dup3\n        /* \"#utility.yul\":9882:9894   */\n      add\n        /* \"#utility.yul\":9875:9894   */\n      swap1\n      pop\n        /* \"#utility.yul\":9534:9900   */\n      swap2\n      swap1\n      pop\n      jump\t// out\n        /* \"#utility.yul\":9906:10325   */\n    tag_57:\n        /* \"#utility.yul\":10072:10076   */\n      0x00\n        /* \"#utility.yul\":10110:10112   */\n      0x20\n        /* \"#utility.yul\":10099:10108   */\n      dup3\n        /* \"#utility.yul\":10095:10113   */\n      add\n        /* \"#utility.yul\":10087:10113   */\n      swap1\n      pop\n        /* \"#utility.yul\":10159:10168   */\n      dup2\n        /* \"#utility.yul\":10153:10157   */\n      dup2\n        /* \"#utility.yul\":10149:10169   */\n      sub\n        /* \"#utility.yul\":10145:10146   */\n      0x00\n        /* \"#utility.yul\":10134:10143   */\n      dup4\n        /* \"#utility.yul\":10130:10147   */\n      add\n        /* \"#utility.yul\":10123:10170   */\n      mstore\n        /* \"#utility.yul\":10187:10318   */\n      tag_227\n        /* \"#utility.yul\":10313:10317   */\n      dup2\n        /* \"#utility.yul\":10187:10318   */\n      tag_100\n      jump\t// in\n    tag_227:\n        /* \"#utility.yul\":10179:10318   */\n      swap1\n      pop\n        /* \"#utility.yul\":9906:10325   */\n      swap2\n      swap1\n      pop\n      jump\t// out\n        /* \"#utility.yul\":10331:10494   */\n    tag_101:\n        /* \"#utility.yul\":10471:10486   */\n      0x496e76616c6964206c6576656c00000000000000000000000000000000000000\n        /* \"#utility.yul\":10467:10468   */\n      0x00\n        /* \"#utility.yul\":10459:10465   */\n      dup3\n        /* \"#utility.yul\":10455:10469   */\n      add\n        /* \"#utility.yul\":10448:10487   */\n      mstore\n        /* \"#utility.yul\":10331:10494   */\n      pop\n      jump\t// out\n        /* \"#utility.yul\":10500:10866   */\n    tag_102:\n        /* \"#utility.yul\":10642:10645   */\n      0x00\n        /* \"#utility.yul\":10663:10730   */\n      tag_230\n        /* \"#utility.yul\":10727:10729   */\n      0x0d\n        /* \"#utility.yul\":10722:10725   */\n      dup4\n        /* \"#utility.yul\":10663:10730   */\n      tag_72\n      jump\t// in\n    tag_230:\n        /* \"#utility.yul\":10656:10730   */\n      swap2\n      pop\n        /* \"#utility.yul\":10739:10832   */\n      tag_231\n        /* \"#utility.yul\":10828:10831   */\n      dup3\n        /* \"#utility.yul\":10739:10832   */\n      tag_101\n      jump\t// in\n    tag_231:\n        /* \"#utility.yul\":10857:10859   */\n      0x20\n        /* \"#utility.yul\":10852:10855   */\n      dup3\n        /* \"#utility.yul\":10848:10860   */\n      add\n        /* \"#utility.yul\":10841:10860   */\n      swap1\n      pop\n        /* \"#utility.yul\":10500:10866   */\n      swap2\n      swap1\n      pop\n      jump\t// out\n        /* \"#utility.yul\":10872:11291   */\n    tag_60:\n        /* \"#utility.yul\":11038:11042   */\n      0x00\n        /* \"#utility.yul\":11076:11078   */\n      0x20\n        /* \"#utility.yul\":11065:11074   */\n      dup3\n        /* \"#utility.yul\":11061:11079   */\n      add\n        /* \"#utility.yul\":11053:11079   */\n      swap1\n      pop\n        /* \"#utility.yul\":11125:11134   */\n      dup2\n        /* \"#utility.yul\":11119:11123   */\n      dup2\n        /* \"#utility.yul\":11115:11135   */\n      sub\n        /* \"#utility.yul\":11111:11112   */\n      0x00\n        /* \"#utility.yul\":11100:11109   */\n      dup4\n        /* \"#utility.yul\":11096:11113   */\n      add\n        /* \"#utility.yul\":11089:11136   */\n      mstore\n        /* \"#utility.yul\":11153:11284   */\n      tag_233\n        /* \"#utility.yul\":11279:11283   */\n      dup2\n        /* \"#utility.yul\":11153:11284   */\n      tag_102\n      jump\t// in\n    tag_233:\n        /* \"#utility.yul\":11145:11284   */\n      swap1\n      pop\n        /* \"#utility.yul\":10872:11291   */\n      swap2\n      swap1\n      pop\n      jump\t// out\n        /* \"#utility.yul\":11297:11438   */\n    tag_103:\n        /* \"#utility.yul\":11346:11350   */\n      0x00\n        /* \"#utility.yul\":11369:11372   */\n      dup2\n        /* \"#utility.yul\":11361:11372   */\n      swap1\n      pop\n        /* \"#utility.yul\":11392:11395   */\n      dup2\n        /* \"#utility.yul\":11389:11390   */\n      0x00\n        /* \"#utility.yul\":11382:11396   */\n      mstore\n        /* \"#utility.yul\":11426:11430   */\n      0x20\n        /* \"#utility.yul\":11423:11424   */\n      0x00\n        /* \"#utility.yul\":11413:11431   */\n      keccak256\n        /* \"#utility.yul\":11405:11431   */\n      swap1\n      pop\n        /* \"#utility.yul\":11297:11438   */\n      swap2\n      swap1\n      pop\n      jump\t// out\n        /* \"#utility.yul\":11444:11537   */\n    tag_104:\n        /* \"#utility.yul\":11481:11487   */\n      0x00\n        /* \"#utility.yul\":11528:11530   */\n      0x20\n        /* \"#utility.yul\":11523:11525   */\n      0x1f\n        /* \"#utility.yul\":11516:11521   */\n      dup4\n        /* \"#utility.yul\":11512:11526   */\n      add\n        /* \"#utility.yul\":11508:11531   */\n      div\n        /* \"#utility.yul\":11498:11531   */\n      swap1\n      pop\n        /* \"#utility.yul\":11444:11537   */\n      swap2\n      swap1\n      pop\n      jump\t// out\n        /* \"#utility.yul\":11543:11650   */\n    tag_105:\n        /* \"#utility.yul\":11587:11595   */\n      0x00\n        /* \"#utility.yul\":11637:11642   */\n      dup3\n        /* \"#utility.yul\":11631:11635   */\n      dup3\n        /* \"#utility.yul\":11627:11643   */\n      shl\n        /* \"#utility.yul\":11606:11643   */\n      swap1\n      pop\n        /* \"#utility.yul\":11543:11650   */\n      swap3\n      swap2\n      pop\n      pop\n      jump\t// out\n        /* \"#utility.yul\":11656:12049   */\n    tag_106:\n        /* \"#utility.yul\":11725:11731   */\n      0x00\n        /* \"#utility.yul\":11775:11776   */\n      0x08\n        /* \"#utility.yul\":11763:11773   */\n      dup4\n        /* \"#utility.yul\":11759:11777   */\n      mul\n        /* \"#utility.yul\":11798:11895   */\n      tag_238\n        /* \"#utility.yul\":11828:11894   */\n      0xffffffffffffffffffffffffffffffffffffffffffffffffffffffffffffffff\n        /* \"#utility.yul\":11817:11826   */\n      dup3\n        /* \"#utility.yul\":11798:11895   */\n      tag_105\n      jump\t// in\n    tag_238:\n        /* \"#utility.yul\":11916:11955   */\n      tag_239\n        /* \"#utility.yul\":11946:11954   */\n      dup7\n        /* \"#utility.yul\":11935:11944   */\n      dup4\n        /* \"#utility.yul\":11916:11955   */\n      tag_105\n      jump\t// in\n    tag_239:\n        /* \"#utility.yul\":11904:11955   */\n      swap6\n      pop\n        /* \"#utility.yul\":11988:11992   */\n      dup1\n        /* \"#utility.yul\":11984:11993   */\n      not\n        /* \"#utility.yul\":11977:11982   */\n      dup5\n        /* \"#utility.yul\":11973:11994   */\n      and\n        /* \"#utility.yul\":11964:11994   */\n      swap4\n      pop\n        /* \"#utility.yul\":12037:12041   */\n      dup1\n        /* \"#utility.yul\":12027:12035   */\n      dup7\n        /* \"#utility.yul\":12023:12042   */\n      and\n        /* \"#utility.yul\":12016:12021   */\n      dup5\n        /* \"#utility.yul\":12013:12043   */\n      or\n        /* \"#utility.yul\":12003:12043   */\n      swap3\n      pop\n        /* \"#utility.yul\":11732:12049   */\n      pop\n      pop\n        /* \"#utility.yul\":11656:12049   */\n      swap4\n      swap3\n      pop\n      pop\n      pop\n      jump\t// out\n        /* \"#utility.yul\":12055:12115   */\n    tag_107:\n        /* \"#utility.yul\":12083:12086   */\n      0x00\n        /* \"#utility.yul\":12104:12109   */\n      dup2\n        /* \"#utility.yul\":12097:12109   */\n      swap1\n      pop\n        /* \"#utility.yul\":12055:12115   */\n      swap2\n      swap1\n      pop\n      jump\t// out\n        /* \"#utility.yul\":12121:12263   */\n    tag_108:\n        /* \"#utility.yul\":12171:12180   */\n      0x00\n        /* \"#utility.yul\":12204:12257   */\n      tag_242\n        /* \"#utility.yul\":12222:12256   */\n      tag_243\n        /* \"#utility.yul\":12231:12255   */\n      tag_244\n        /* \"#utility.yul\":12249:12254   */\n      dup5\n        /* \"#utility.yul\":12231:12255   */\n      tag_67\n      jump\t// in\n    tag_244:\n        /* \"#utility.yul\":12222:12256   */\n      tag_107\n      jump\t// in\n    tag_243:\n        /* \"#utility.yul\":12204:12257   */\n      tag_67\n      jump\t// in\n    tag_242:\n        /* \"#utility.yul\":12191:12257   */\n      swap1\n      pop\n        /* \"#utility.yul\":12121:12263   */\n      swap2\n      swap1\n      pop\n      jump\t// out\n        /* \"#utility.yul\":12269:12344   */\n    tag_109:\n        /* \"#utility.yul\":12312:12315   */\n      0x00\n        /* \"#utility.yul\":12333:12338   */\n      dup2\n        /* \"#utility.yul\":12326:12338   */\n      swap1\n      pop\n        /* \"#utility.yul\":12269:12344   */\n      swap2\n      swap1\n      pop\n      jump\t// out\n        /* \"#utility.yul\":12350:12619   */\n    tag_110:\n        /* \"#utility.yul\":12460:12499   */\n      tag_247\n        /* \"#utility.yul\":12491:12498   */\n      dup4\n        /* \"#utility.yul\":12460:12499   */\n      tag_108\n      jump\t// in\n    tag_247:\n        /* \"#utility.yul\":12521:12612   */\n      tag_248\n        /* \"#utility.yul\":12570:12611   */\n      tag_249\n        /* \"#utility.yul\":12594:12610   */\n      dup3\n        /* \"#utility.yul\":12570:12611   */\n      tag_109\n      jump\t// in\n    tag_249:\n        /* \"#utility.yul\":12562:12568   */\n      dup5\n        /* \"#utility.yul\":12555:12559   */\n      dup5\n        /* \"#utility.yul\":12549:12560   */\n      sload\n        /* \"#utility.yul\":12521:12612   */\n      tag_106\n      jump\t// in\n    tag_248:\n        /* \"#utility.yul\":12515:12519   */\n      dup3\n        /* \"#utility.yul\":12508:12613   */\n      sstore\n        /* \"#utility.yul\":12426:12619   */\n      pop\n        /* \"#utility.yul\":12350:12619   */\n      pop\n      pop\n      pop\n      jump\t// out\n        /* \"#utility.yul\":12625:12698   */\n    tag_111:\n        /* \"#utility.yul\":12670:12673   */\n      0x00\n        /* \"#utility.yul\":12625:12698   */\n      swap1\n      jump\t// out\n        /* \"#utility.yul\":12704:12893   */\n    tag_112:\n        /* \"#utility.yul\":12781:12813   */\n      tag_252\n      tag_111\n      jump\t// in\n    tag_252:\n        /* \"#utility.yul\":12822:12887   */\n      tag_253\n        /* \"#utility.yul\":12880:12886   */\n      dup2\n        /* \"#utility.yul\":12872:12878   */\n      dup5\n        /* \"#utility.yul\":12866:12870   */\n      dup5\n        /* \"#utility.yul\":12822:12887   */\n      tag_110\n      jump\t// in\n    tag_253:\n        /* \"#utility.yul\":12757:12893   */\n      pop\n        /* \"#utility.yul\":12704:12893   */\n      pop\n      pop\n      jump\t// out\n        /* \"#utility.yul\":12899:13085   */\n    tag_113:\n        /* \"#utility.yul\":12959:13079   */\n    tag_255:\n        /* \"#utility.yul\":12976:12979   */\n      dup2\n        /* \"#utility.yul\":12969:12974   */\n      dup2\n        /* \"#utility.yul\":12966:12980   */\n      lt\n        /* \"#utility.yul\":12959:13079   */\n      iszero\n      tag_257\n      jumpi\n        /* \"#utility.yul\":13030:13069   */\n      tag_258\n        /* \"#utility.yul\":13067:13068   */\n      0x00\n        /* \"#utility.yul\":13060:13065   */\n      dup3\n        /* \"#utility.yul\":13030:13069   */\n      tag_112\n      jump\t// in\n    tag_258:\n        /* \"#utility.yul\":13003:13004   */\n      0x01\n        /* \"#utility.yul\":12996:13001   */\n      dup2\n        /* \"#utility.yul\":12992:13005   */\n      add\n        /* \"#utility.yul\":12983:13005   */\n      swap1\n      pop\n        /* \"#utility.yul\":12959:13079   */\n      jump(tag_255)\n    tag_257:\n        /* \"#utility.yul\":12899:13085   */\n      pop\n      pop\n      jump\t// out\n        /* \"#utility.yul\":13091:13634   */\n    tag_114:\n        /* \"#utility.yul\":13192:13194   */\n      0x1f\n        /* \"#utility.yul\":13187:13190   */\n      dup3\n        /* \"#utility.yul\":13184:13195   */\n      gt\n        /* \"#utility.yul\":13181:13627   */\n      iszero\n      tag_260\n      jumpi\n        /* \"#utility.yul\":13226:13264   */\n      tag_261\n        /* \"#utility.yul\":13258:13263   */\n      dup2\n        /* \"#utility.yul\":13226:13264   */\n      tag_103\n      jump\t// in\n    tag_261:\n        /* \"#utility.yul\":13310:13339   */\n      tag_262\n        /* \"#utility.yul\":13328:13338   */\n      dup5\n        /* \"#utility.yul\":13310:13339   */\n      tag_104\n      jump\t// in\n    tag_262:\n        /* \"#utility.yul\":13300:13308   */\n      dup2\n        /* \"#utility.yul\":13296:13340   */\n      add\n        /* \"#utility.yul\":13493:13495   */\n      0x20\n        /* \"#utility.yul\":13481:13491   */\n      dup6\n        /* \"#utility.yul\":13478:13496   */\n      lt\n        /* \"#utility.yul\":13475:13524   */\n      iszero\n      tag_263\n      jumpi\n        /* \"#utility.yul\":13514:13522   */\n      dup2\n        /* \"#utility.yul\":13499:13522   */\n      swap1\n      pop\n        /* \"#utility.yul\":13475:13524   */\n    tag_263:\n        /* \"#utility.yul\":13537:13617   */\n      tag_264\n        /* \"#utility.yul\":13593:13615   */\n      tag_265\n        /* \"#utility.yul\":13611:13614   */\n      dup6\n        /* \"#utility.yul\":13593:13615   */\n      tag_104\n      jump\t// in\n    tag_265:\n        /* \"#utility.yul\":13583:13591   */\n      dup4\n        /* \"#utility.yul\":13579:13616   */\n      add\n        /* \"#utility.yul\":13566:13577   */\n      dup3\n        /* \"#utility.yul\":13537:13617   */\n      tag_113\n      jump\t// in\n    tag_264:\n        /* \"#utility.yul\":13196:13627   */\n      pop\n      pop\n        /* \"#utility.yul\":13181:13627   */\n    tag_260:\n        /* \"#utility.yul\":13091:13634   */\n      pop\n      pop\n      pop\n      jump\t// out\n        /* \"#utility.yul\":13640:13757   */\n    tag_115:\n        /* \"#utility.yul\":13694:13702   */\n      0x00\n        /* \"#utility.yul\":13744:13749   */\n      dup3\n        /* \"#utility.yul\":13738:13742   */\n      dup3\n        /* \"#utility.yul\":13734:13750   */\n      shr\n        /* \"#utility.yul\":13713:13750   */\n      swap1\n      pop\n        /* \"#utility.yul\":13640:13757   */\n      swap3\n      swap2\n      pop\n      pop\n      jump\t// out\n        /* \"#utility.yul\":13763:13932   */\n    tag_116:\n        /* \"#utility.yul\":13807:13813   */\n      0x00\n        /* \"#utility.yul\":13840:13891   */\n      tag_268\n        /* \"#utility.yul\":13888:13889   */\n      0x00\n        /* \"#utility.yul\":13884:13890   */\n      not\n        /* \"#utility.yul\":13876:13881   */\n      dup5\n        /* \"#utility.yul\":13873:13874   */\n      0x08\n        /* \"#utility.yul\":13869:13882   */\n      mul\n        /* \"#utility.yul\":13840:13891   */\n      tag_115\n      jump\t// in\n    tag_268:\n        /* \"#utility.yul\":13836:13892   */\n      not\n        /* \"#utility.yul\":13921:13925   */\n      dup1\n        /* \"#utility.yul\":13915:13919   */\n      dup4\n        /* \"#utility.yul\":13911:13926   */\n      and\n        /* \"#utility.yul\":13901:13926   */\n      swap2\n      pop\n        /* \"#utility.yul\":13814:13932   */\n      pop\n        /* \"#utility.yul\":13763:13932   */\n      swap3\n      swap2\n      pop\n      pop\n      jump\t// out\n        /* \"#utility.yul\":13937:14232   */\n    tag_117:\n        /* \"#utility.yul\":14013:14017   */\n      0x00\n        /* \"#utility.yul\":14159:14188   */\n      tag_270\n        /* \"#utility.yul\":14184:14187   */\n      dup4\n        /* \"#utility.yul\":14178:14182   */\n      dup4\n        /* \"#utility.yul\":14159:14188   */\n      tag_116\n      jump\t// in\n    tag_270:\n        /* \"#utility.yul\":14151:14188   */\n      swap2\n      pop\n        /* \"#utility.yul\":14221:14224   */\n      dup3\n        /* \"#utility.yul\":14218:14219   */\n      0x02\n        /* \"#utility.yul\":14214:14225   */\n      mul\n        /* \"#utility.yul\":14208:14212   */\n      dup3\n        /* \"#utility.yul\":14205:14226   */\n      or\n        /* \"#utility.yul\":14197:14226   */\n      swap1\n      pop\n        /* \"#utility.yul\":13937:14232   */\n      swap3\n      swap2\n      pop\n      pop\n      jump\t// out\n        /* \"#utility.yul\":14237:15632   */\n    tag_63:\n        /* \"#utility.yul\":14354:14391   */\n      tag_272\n        /* \"#utility.yul\":14387:14390   */\n      dup3\n        /* \"#utility.yul\":14354:14391   */\n      tag_71\n      jump\t// in\n    tag_272:\n        /* \"#utility.yul\":14456:14474   */\n      0xffffffffffffffff\n        /* \"#utility.yul\":14448:14454   */\n      dup2\n        /* \"#utility.yul\":14445:14475   */\n      gt\n        /* \"#utility.yul\":14442:14498   */\n      iszero\n      tag_273\n      jumpi\n        /* \"#utility.yul\":14478:14496   */\n      tag_274\n      tag_87\n      jump\t// in\n    tag_274:\n        /* \"#utility.yul\":14442:14498   */\n    tag_273:\n        /* \"#utility.yul\":14522:14560   */\n      tag_275\n        /* \"#utility.yul\":14554:14558   */\n      dup3\n        /* \"#utility.yul\":14548:14559   */\n      sload\n        /* \"#utility.yul\":14522:14560   */\n      tag_36\n      jump\t// in\n    tag_275:\n        /* \"#utility.yul\":14607:14674   */\n      tag_276\n        /* \"#utility.yul\":14667:14673   */\n      dup3\n        /* \"#utility.yul\":14659:14665   */\n      dup3\n        /* \"#utility.yul\":14653:14657   */\n      dup6\n        /* \"#utility.yul\":14607:14674   */\n      tag_114\n      jump\t// in\n    tag_276:\n        /* \"#utility.yul\":14701:14702   */\n      0x00\n        /* \"#utility.yul\":14725:14729   */\n      0x20\n        /* \"#utility.yul\":14712:14729   */\n      swap1\n      pop\n        /* \"#utility.yul\":14757:14759   */\n      0x1f\n        /* \"#utility.yul\":14749:14755   */\n      dup4\n        /* \"#utility.yul\":14746:14760   */\n      gt\n        /* \"#utility.yul\":14774:14775   */\n      0x01\n        /* \"#utility.yul\":14769:15387   */\n      dup2\n      eq\n      tag_278\n      jumpi\n        /* \"#utility.yul\":15431:15432   */\n      0x00\n        /* \"#utility.yul\":15448:15454   */\n      dup5\n        /* \"#utility.yul\":15445:15522   */\n      iszero\n      tag_279\n      jumpi\n        /* \"#utility.yul\":15497:15506   */\n      dup3\n        /* \"#utility.yul\":15492:15495   */\n      dup8\n        /* \"#utility.yul\":15488:15507   */\n      add\n        /* \"#utility.yul\":15482:15508   */\n      mload\n        /* \"#utility.yul\":15473:15508   */\n      swap1\n      pop\n        /* \"#utility.yul\":15445:15522   */\n    tag_279:\n        /* \"#utility.yul\":15548:15615   */\n      tag_280\n        /* \"#utility.yul\":15608:15614   */\n      dup6\n        /* \"#utility.yul\":15601:15606   */\n      dup3\n        /* \"#utility.yul\":15548:15615   */\n      tag_117\n      jump\t// in\n    tag_280:\n        /* \"#utility.yul\":15542:15546   */\n      dup7\n        /* \"#utility.yul\":15535:15616   */\n      sstore\n        /* \"#utility.yul\":15404:15626   */\n      pop\n        /* \"#utility.yul\":14739:15626   */\n      jump(tag_277)\n        /* \"#utility.yul\":14769:15387   */\n    tag_278:\n        /* \"#utility.yul\":14821:14825   */\n      0x1f\n        /* \"#utility.yul\":14817:14826   */\n      not\n        /* \"#utility.yul\":14809:14815   */\n      dup5\n        /* \"#utility.yul\":14805:14827   */\n      and\n        /* \"#utility.yul\":14855:14892   */\n      tag_281\n        /* \"#utility.yul\":14887:14891   */\n      dup7\n        /* \"#utility.yul\":14855:14892   */\n      tag_103\n      jump\t// in\n    tag_281:\n        /* \"#utility.yul\":14914:14915   */\n      0x00\n        /* \"#utility.yul\":14928:15136   */\n    tag_282:\n        /* \"#utility.yul\":14942:14949   */\n      dup3\n        /* \"#utility.yul\":14939:14940   */\n      dup2\n        /* \"#utility.yul\":14936:14950   */\n      lt\n        /* \"#utility.yul\":14928:15136   */\n      iszero\n      tag_284\n      jumpi\n        /* \"#utility.yul\":15021:15030   */\n      dup5\n        /* \"#utility.yul\":15016:15019   */\n      dup10\n        /* \"#utility.yul\":15012:15031   */\n      add\n        /* \"#utility.yul\":15006:15032   */\n      mload\n        /* \"#utility.yul\":14998:15004   */\n      dup3\n        /* \"#utility.yul\":14991:15033   */\n      sstore\n        /* \"#utility.yul\":15072:15073   */\n      0x01\n        /* \"#utility.yul\":15064:15070   */\n      dup3\n        /* \"#utility.yul\":15060:15074   */\n      add\n        /* \"#utility.yul\":15050:15074   */\n      swap2\n      pop\n        /* \"#utility.yul\":15119:15121   */\n      0x20\n        /* \"#utility.yul\":15108:15117   */\n      dup6\n        /* \"#utility.yul\":15104:15122   */\n      add\n        /* \"#utility.yul\":15091:15122   */\n      swap5\n      pop\n        /* \"#utility.yul\":14965:14969   */\n      0x20\n        /* \"#utility.yul\":14962:14963   */\n      dup2\n        /* \"#utility.yul\":14958:14970   */\n      add\n        /* \"#utility.yul\":14953:14970   */\n      swap1\n      pop\n        /* \"#utility.yul\":14928:15136   */\n      jump(tag_282)\n    tag_284:\n        /* \"#utility.yul\":15164:15170   */\n      dup7\n        /* \"#utility.yul\":15155:15162   */\n      dup4\n        /* \"#utility.yul\":15152:15171   */\n      lt\n        /* \"#utility.yul\":15149:15328   */\n      iszero\n      tag_285\n      jumpi\n        /* \"#utility.yul\":15222:15231   */\n      dup5\n        /* \"#utility.yul\":15217:15220   */\n      dup10\n        /* \"#utility.yul\":15213:15232   */\n      add\n        /* \"#utility.yul\":15207:15233   */\n      mload\n        /* \"#utility.yul\":15265:15313   */\n      tag_286\n        /* \"#utility.yul\":15307:15311   */\n      0x1f\n        /* \"#utility.yul\":15299:15305   */\n      dup10\n        /* \"#utility.yul\":15295:15312   */\n      and\n        /* \"#utility.yul\":15284:15293   */\n      dup3\n        /* \"#utility.yul\":15265:15313   */\n      tag_116\n      jump\t// in\n    tag_286:\n        /* \"#utility.yul\":15257:15263   */\n      dup4\n        /* \"#utility.yul\":15250:15314   */\n      sstore\n        /* \"#utility.yul\":15172:15328   */\n      pop\n        /* \"#utility.yul\":15149:15328   */\n    tag_285:\n        /* \"#utility.yul\":15374:15375   */\n      0x01\n        /* \"#utility.yul\":15370:15371   */\n      0x02\n        /* \"#utility.yul\":15362:15368   */\n      dup9\n        /* \"#utility.yul\":15358:15372   */\n      mul\n        /* \"#utility.yul\":15354:15376   */\n      add\n        /* \"#utility.yul\":15348:15352   */\n      dup9\n        /* \"#utility.yul\":15341:15377   */\n      sstore\n        /* \"#utility.yul\":14776:15387   */\n      pop\n      pop\n      pop\n        /* \"#utility.yul\":14739:15626   */\n    tag_277:\n      pop\n        /* \"#utility.yul\":14329:15632   */\n      pop\n      pop\n      pop\n        /* \"#utility.yul\":14237:15632   */\n      pop\n      pop\n      jump\t// out\n\n    auxdata: 0xa2646970667358221220dc5799936c9b91b9847cfe74ea33a4cab0ac94d581b373b2d8e00dccbbadc23164736f6c634300081a0033\n}\n",
				"bytecode": {
					"linkReferences": {},
					"object": "6080604052348015600e575f80fd5b50610f618061001c5f395ff3fe608060405234801561000f575f80fd5b5060043610610055575f3560e01c80634abfa163146100595780636d7ea9171461008d57806396c59043146100bd578063c3c5a547146100f1578063c79a2b2b14610121575b5f80fd5b610073600480360381019061006e9190610750565b61013d565b604051610084959493929190610854565b60405180910390f35b6100a760048036038101906100a291906108d6565b61022f565b6040516100b49190610901565b60405180910390f35b6100d760048036038101906100d291906108d6565b610244565b6040516100e8959493929190610854565b60405180910390f35b61010b600480360381019061010691906108d6565b610483565b6040516101189190610934565b60405180910390f35b61013b60048036038101906101369190610aa3565b6104a0565b005b5f818154811061014b575f80fd5b905f5260205f2090600402015f91509050805f01549080600101805461017090610b2a565b80601f016020809104026020016040519081016040528092919081815260200182805461019c90610b2a565b80156101e75780601f106101be576101008083540402835291602001916101e7565b820191905f5260205f20905b8154815290600101906020018083116101ca57829003601f168201915b505050505090806002015f9054906101000a900473ffffffffffffffffffffffffffffffffffffffff16908060020160149054906101000a900460ff16908060030154905085565b6002602052805f5260405f205f915090505481565b5f60605f805f60015f8773ffffffffffffffffffffffffffffffffffffffff1673ffffffffffffffffffffffffffffffffffffffff1681526020019081526020015f205f9054906101000a900460ff166102d3576040517f08c379a00000000000000000000000000000000000000000000000000000000081526004016102ca90610ba4565b60405180910390fd5b5f60025f8873ffffffffffffffffffffffffffffffffffffffff1673ffffffffffffffffffffffffffffffffffffffff1681526020019081526020015f205490505f80828154811061032857610327610bc2565b5b905f5260205f2090600402016040518060a00160405290815f820154815260200160018201805461035890610b2a565b80601f016020809104026020016040519081016040528092919081815260200182805461038490610b2a565b80156103cf5780601f106103a6576101008083540402835291602001916103cf565b820191905f5260205f20905b8154815290600101906020018083116103b257829003601f168201915b50505050508152602001600282015f9054906101000a900473ffffffffffffffffffffffffffffffffffffffff1673ffffffffffffffffffffffffffffffffffffffff1673ffffffffffffffffffffffffffffffffffffffff1681526020016002820160149054906101000a900460ff1660ff1660ff1681526020016003820154815250509050805f0151816020015182604001518360600151846080015196509650965096509650505091939590929450565b6001602052805f5260405f205f915054906101000a900460ff1681565b60015f3373ffffffffffffffffffffffffffffffffffffffff1673ffffffffffffffffffffffffffffffffffffffff1681526020019081526020015f205f9054906101000a900460ff161561052a576040517f08c379a000000000000000000000000000000000000000000000000000000000815260040161052190610c39565b60405180910390fd5b60048160ff161115610571576040517f08c379a000000000000000000000000000000000000000000000000000000000815260040161056890610ca1565b60405180910390fd5b5f808054905090505f6040518060a001604052808381526020018581526020013373ffffffffffffffffffffffffffffffffffffffff1681526020018460ff1681526020015f815250908060018154018082558091505060019003905f5260205f2090600402015f909190919091505f820151815f015560208201518160010190816105fd9190610e5c565b506040820151816002015f6101000a81548173ffffffffffffffffffffffffffffffffffffffff021916908373ffffffffffffffffffffffffffffffffffffffff16021790555060608201518160020160146101000a81548160ff021916908360ff1602179055506080820151816003015550506001805f3373ffffffffffffffffffffffffffffffffffffffff1673ffffffffffffffffffffffffffffffffffffffff1681526020019081526020015f205f6101000a81548160ff0219169083151502179055508060025f3373ffffffffffffffffffffffffffffffffffffffff1673ffffffffffffffffffffffffffffffffffffffff1681526020019081526020015f2081905550505050565b5f604051905090565b5f80fd5b5f80fd5b5f819050919050565b61072f8161071d565b8114610739575f80fd5b50565b5f8135905061074a81610726565b92915050565b5f6020828403121561076557610764610715565b5b5f6107728482850161073c565b91505092915050565b6107848161071d565b82525050565b5f81519050919050565b5f82825260208201905092915050565b8281835e5f83830152505050565b5f601f19601f8301169050919050565b5f6107cc8261078a565b6107d68185610794565b93506107e68185602086016107a4565b6107ef816107b2565b840191505092915050565b5f73ffffffffffffffffffffffffffffffffffffffff82169050919050565b5f610823826107fa565b9050919050565b61083381610819565b82525050565b5f60ff82169050919050565b61084e81610839565b82525050565b5f60a0820190506108675f83018861077b565b818103602083015261087981876107c2565b9050610888604083018661082a565b6108956060830185610845565b6108a2608083018461077b565b9695505050505050565b6108b581610819565b81146108bf575f80fd5b50565b5f813590506108d0816108ac565b92915050565b5f602082840312156108eb576108ea610715565b5b5f6108f8848285016108c2565b91505092915050565b5f6020820190506109145f83018461077b565b92915050565b5f8115159050919050565b61092e8161091a565b82525050565b5f6020820190506109475f830184610925565b92915050565b5f80fd5b5f80fd5b7f4e487b71000000000000000000000000000000000000000000000000000000005f52604160045260245ffd5b61098b826107b2565b810181811067ffffffffffffffff821117156109aa576109a9610955565b5b80604052505050565b5f6109bc61070c565b90506109c88282610982565b919050565b5f67ffffffffffffffff8211156109e7576109e6610955565b5b6109f0826107b2565b9050602081019050919050565b828183375f83830152505050565b5f610a1d610a18846109cd565b6109b3565b905082815260208101848484011115610a3957610a38610951565b5b610a448482856109fd565b509392505050565b5f82601f830112610a6057610a5f61094d565b5b8135610a70848260208601610a0b565b91505092915050565b610a8281610839565b8114610a8c575f80fd5b50565b5f81359050610a9d81610a79565b92915050565b5f8060408385031215610ab957610ab8610715565b5b5f83013567ffffffffffffffff811115610ad657610ad5610719565b5b610ae285828601610a4c565b9250506020610af385828601610a8f565b9150509250929050565b7f4e487b71000000000000000000000000000000000000000000000000000000005f52602260045260245ffd5b5f6002820490506001821680610b4157607f821691505b602082108103610b5457610b53610afd565b5b50919050565b7f446f6e6f72206e6f7420726567697374657265640000000000000000000000005f82015250565b5f610b8e601483610794565b9150610b9982610b5a565b602082019050919050565b5f6020820190508181035f830152610bbb81610b82565b9050919050565b7f4e487b71000000000000000000000000000000000000000000000000000000005f52603260045260245ffd5b7f446f6e6f7220616c7265616479207265676973746572656400000000000000005f82015250565b5f610c23601883610794565b9150610c2e82610bef565b602082019050919050565b5f6020820190508181035f830152610c5081610c17565b9050919050565b7f496e76616c6964206c6576656c000000000000000000000000000000000000005f82015250565b5f610c8b600d83610794565b9150610c9682610c57565b602082019050919050565b5f6020820190508181035f830152610cb881610c7f565b9050919050565b5f819050815f5260205f209050919050565b5f6020601f8301049050919050565b5f82821b905092915050565b5f60088302610d1b7fffffffffffffffffffffffffffffffffffffffffffffffffffffffffffffffff82610ce0565b610d258683610ce0565b95508019841693508086168417925050509392505050565b5f819050919050565b5f610d60610d5b610d568461071d565b610d3d565b61071d565b9050919050565b5f819050919050565b610d7983610d46565b610d8d610d8582610d67565b848454610cec565b825550505050565b5f90565b610da1610d95565b610dac818484610d70565b505050565b5b81811015610dcf57610dc45f82610d99565b600181019050610db2565b5050565b601f821115610e1457610de581610cbf565b610dee84610cd1565b81016020851015610dfd578190505b610e11610e0985610cd1565b830182610db1565b50505b505050565b5f82821c905092915050565b5f610e345f1984600802610e19565b1980831691505092915050565b5f610e4c8383610e25565b9150826002028217905092915050565b610e658261078a565b67ffffffffffffffff811115610e7e57610e7d610955565b5b610e888254610b2a565b610e93828285610dd3565b5f60209050601f831160018114610ec4575f8415610eb2578287015190505b610ebc8582610e41565b865550610f23565b601f198416610ed286610cbf565b5f5b82811015610ef957848901518255600182019150602085019450602081019050610ed4565b86831015610f165784890151610f12601f891682610e25565b8355505b6001600288020188555050505b50505050505056fea2646970667358221220dc5799936c9b91b9847cfe74ea33a4cab0ac94d581b373b2d8e00dccbbadc23164736f6c634300081a0033",
					"opcodes": "PUSH1 0x80 PUSH1 0x40 MSTORE CALLVALUE DUP1 ISZERO PUSH1 0xE JUMPI PUSH0 DUP1 REVERT JUMPDEST POP PUSH2 0xF61 DUP1 PUSH2 0x1C PUSH0 CODECOPY PUSH0 RETURN INVALID PUSH1 0x80 PUSH1 0x40 MSTORE CALLVALUE DUP1 ISZERO PUSH2 0xF JUMPI PUSH0 DUP1 REVERT JUMPDEST POP PUSH1 0x4 CALLDATASIZE LT PUSH2 0x55 JUMPI PUSH0 CALLDATALOAD PUSH1 0xE0 SHR DUP1 PUSH4 0x4ABFA163 EQ PUSH2 0x59 JUMPI DUP1 PUSH4 0x6D7EA917 EQ PUSH2 0x8D JUMPI DUP1 PUSH4 0x96C59043 EQ PUSH2 0xBD JUMPI DUP1 PUSH4 0xC3C5A547 EQ PUSH2 0xF1 JUMPI DUP1 PUSH4 0xC79A2B2B EQ PUSH2 0x121 JUMPI JUMPDEST PUSH0 DUP1 REVERT JUMPDEST PUSH2 0x73 PUSH1 0x4 DUP1 CALLDATASIZE SUB DUP2 ADD SWAP1 PUSH2 0x6E SWAP2 SWAP1 PUSH2 0x750 JUMP JUMPDEST PUSH2 0x13D JUMP JUMPDEST PUSH1 0x40 MLOAD PUSH2 0x84 SWAP6 SWAP5 SWAP4 SWAP3 SWAP2 SWAP1 PUSH2 0x854 JUMP JUMPDEST PUSH1 0x40 MLOAD DUP1 SWAP2 SUB SWAP1 RETURN JUMPDEST PUSH2 0xA7 PUSH1 0x4 DUP1 CALLDATASIZE SUB DUP2 ADD SWAP1 PUSH2 0xA2 SWAP2 SWAP1 PUSH2 0x8D6 JUMP JUMPDEST PUSH2 0x22F JUMP JUMPDEST PUSH1 0x40 MLOAD PUSH2 0xB4 SWAP2 SWAP1 PUSH2 0x901 JUMP JUMPDEST PUSH1 0x40 MLOAD DUP1 SWAP2 SUB SWAP1 RETURN JUMPDEST PUSH2 0xD7 PUSH1 0x4 DUP1 CALLDATASIZE SUB DUP2 ADD SWAP1 PUSH2 0xD2 SWAP2 SWAP1 PUSH2 0x8D6 JUMP JUMPDEST PUSH2 0x244 JUMP JUMPDEST PUSH1 0x40 MLOAD PUSH2 0xE8 SWAP6 SWAP5 SWAP4 SWAP3 SWAP2 SWAP1 PUSH2 0x854 JUMP JUMPDEST PUSH1 0x40 MLOAD DUP1 SWAP2 SUB SWAP1 RETURN JUMPDEST PUSH2 0x10B PUSH1 0x4 DUP1 CALLDATASIZE SUB DUP2 ADD SWAP1 PUSH2 0x106 SWAP2 SWAP1 PUSH2 0x8D6 JUMP JUMPDEST PUSH2 0x483 JUMP JUMPDEST PUSH1 0x40 MLOAD PUSH2 0x118 SWAP2 SWAP1 PUSH2 0x934 JUMP JUMPDEST PUSH1 0x40 MLOAD DUP1 SWAP2 SUB SWAP1 RETURN JUMPDEST PUSH2 0x13B PUSH1 0x4 DUP1 CALLDATASIZE SUB DUP2 ADD SWAP1 PUSH2 0x136 SWAP2 SWAP1 PUSH2 0xAA3 JUMP JUMPDEST PUSH2 0x4A0 JUMP JUMPDEST STOP JUMPDEST PUSH0 DUP2 DUP2 SLOAD DUP2 LT PUSH2 0x14B JUMPI PUSH0 DUP1 REVERT JUMPDEST SWAP1 PUSH0 MSTORE PUSH1 0x20 PUSH0 KECCAK256 SWAP1 PUSH1 0x4 MUL ADD PUSH0 SWAP2 POP SWAP1 POP DUP1 PUSH0 ADD SLOAD SWAP1 DUP1 PUSH1 0x1 ADD DUP1 SLOAD PUSH2 0x170 SWAP1 PUSH2 0xB2A JUMP JUMPDEST DUP1 PUSH1 0x1F ADD PUSH1 0x20 DUP1 SWAP2 DIV MUL PUSH1 0x20 ADD PUSH1 0x40 MLOAD SWAP1 DUP2 ADD PUSH1 0x40 MSTORE DUP1 SWAP3 SWAP2 SWAP1 DUP2 DUP2 MSTORE PUSH1 0x20 ADD DUP3 DUP1 SLOAD PUSH2 0x19C SWAP1 PUSH2 0xB2A JUMP JUMPDEST DUP1 ISZERO PUSH2 0x1E7 JUMPI DUP1 PUSH1 0x1F LT PUSH2 0x1BE JUMPI PUSH2 0x100 DUP1 DUP4 SLOAD DIV MUL DUP4 MSTORE SWAP2 PUSH1 0x20 ADD SWAP2 PUSH2 0x1E7 JUMP JUMPDEST DUP3 ADD SWAP2 SWAP1 PUSH0 MSTORE PUSH1 0x20 PUSH0 KECCAK256 SWAP1 JUMPDEST DUP2 SLOAD DUP2 MSTORE SWAP1 PUSH1 0x1 ADD SWAP1 PUSH1 0x20 ADD DUP1 DUP4 GT PUSH2 0x1CA JUMPI DUP3 SWAP1 SUB PUSH1 0x1F AND DUP3 ADD SWAP2 JUMPDEST POP POP POP POP POP SWAP1 DUP1 PUSH1 0x2 ADD PUSH0 SWAP1 SLOAD SWAP1 PUSH2 0x100 EXP SWAP1 DIV PUSH20 0xFFFFFFFFFFFFFFFFFFFFFFFFFFFFFFFFFFFFFFFF AND SWAP1 DUP1 PUSH1 0x2 ADD PUSH1 0x14 SWAP1 SLOAD SWAP1 PUSH2 0x100 EXP SWAP1 DIV PUSH1 0xFF AND SWAP1 DUP1 PUSH1 0x3 ADD SLOAD SWAP1 POP DUP6 JUMP JUMPDEST PUSH1 0x2 PUSH1 0x20 MSTORE DUP1 PUSH0 MSTORE PUSH1 0x40 PUSH0 KECCAK256 PUSH0 SWAP2 POP SWAP1 POP SLOAD DUP2 JUMP JUMPDEST PUSH0 PUSH1 0x60 PUSH0 DUP1 PUSH0 PUSH1 0x1 PUSH0 DUP8 PUSH20 0xFFFFFFFFFFFFFFFFFFFFFFFFFFFFFFFFFFFFFFFF AND PUSH20 0xFFFFFFFFFFFFFFFFFFFFFFFFFFFFFFFFFFFFFFFF AND DUP2 MSTORE PUSH1 0x20 ADD SWAP1 DUP2 MSTORE PUSH1 0x20 ADD PUSH0 KECCAK256 PUSH0 SWAP1 SLOAD SWAP1 PUSH2 0x100 EXP SWAP1 DIV PUSH1 0xFF AND PUSH2 0x2D3 JUMPI PUSH1 0x40 MLOAD PUSH32 0x8C379A000000000000000000000000000000000000000000000000000000000 DUP2 MSTORE PUSH1 0x4 ADD PUSH2 0x2CA SWAP1 PUSH2 0xBA4 JUMP JUMPDEST PUSH1 0x40 MLOAD DUP1 SWAP2 SUB SWAP1 REVERT JUMPDEST PUSH0 PUSH1 0x2 PUSH0 DUP9 PUSH20 0xFFFFFFFFFFFFFFFFFFFFFFFFFFFFFFFFFFFFFFFF AND PUSH20 0xFFFFFFFFFFFFFFFFFFFFFFFFFFFFFFFFFFFFFFFF AND DUP2 MSTORE PUSH1 0x20 ADD SWAP1 DUP2 MSTORE PUSH1 0x20 ADD PUSH0 KECCAK256 SLOAD SWAP1 POP PUSH0 DUP1 DUP3 DUP2 SLOAD DUP2 LT PUSH2 0x328 JUMPI PUSH2 0x327 PUSH2 0xBC2 JUMP JUMPDEST JUMPDEST SWAP1 PUSH0 MSTORE PUSH1 0x20 PUSH0 KECCAK256 SWAP1 PUSH1 0x4 MUL ADD PUSH1 0x40 MLOAD DUP1 PUSH1 0xA0 ADD PUSH1 0x40 MSTORE SWAP1 DUP2 PUSH0 DUP3 ADD SLOAD DUP2 MSTORE PUSH1 0x20 ADD PUSH1 0x1 DUP3 ADD DUP1 SLOAD PUSH2 0x358 SWAP1 PUSH2 0xB2A JUMP JUMPDEST DUP1 PUSH1 0x1F ADD PUSH1 0x20 DUP1 SWAP2 DIV MUL PUSH1 0x20 ADD PUSH1 0x40 MLOAD SWAP1 DUP2 ADD PUSH1 0x40 MSTORE DUP1 SWAP3 SWAP2 SWAP1 DUP2 DUP2 MSTORE PUSH1 0x20 ADD DUP3 DUP1 SLOAD PUSH2 0x384 SWAP1 PUSH2 0xB2A JUMP JUMPDEST DUP1 ISZERO PUSH2 0x3CF JUMPI DUP1 PUSH1 0x1F LT PUSH2 0x3A6 JUMPI PUSH2 0x100 DUP1 DUP4 SLOAD DIV MUL DUP4 MSTORE SWAP2 PUSH1 0x20 ADD SWAP2 PUSH2 0x3CF JUMP JUMPDEST DUP3 ADD SWAP2 SWAP1 PUSH0 MSTORE PUSH1 0x20 PUSH0 KECCAK256 SWAP1 JUMPDEST DUP2 SLOAD DUP2 MSTORE SWAP1 PUSH1 0x1 ADD SWAP1 PUSH1 0x20 ADD DUP1 DUP4 GT PUSH2 0x3B2 JUMPI DUP3 SWAP1 SUB PUSH1 0x1F AND DUP3 ADD SWAP2 JUMPDEST POP POP POP POP POP DUP2 MSTORE PUSH1 0x20 ADD PUSH1 0x2 DUP3 ADD PUSH0 SWAP1 SLOAD SWAP1 PUSH2 0x100 EXP SWAP1 DIV PUSH20 0xFFFFFFFFFFFFFFFFFFFFFFFFFFFFFFFFFFFFFFFF AND PUSH20 0xFFFFFFFFFFFFFFFFFFFFFFFFFFFFFFFFFFFFFFFF AND PUSH20 0xFFFFFFFFFFFFFFFFFFFFFFFFFFFFFFFFFFFFFFFF AND DUP2 MSTORE PUSH1 0x20 ADD PUSH1 0x2 DUP3 ADD PUSH1 0x14 SWAP1 SLOAD SWAP1 PUSH2 0x100 EXP SWAP1 DIV PUSH1 0xFF AND PUSH1 0xFF AND PUSH1 0xFF AND DUP2 MSTORE PUSH1 0x20 ADD PUSH1 0x3 DUP3 ADD SLOAD DUP2 MSTORE POP POP SWAP1 POP DUP1 PUSH0 ADD MLOAD DUP2 PUSH1 0x20 ADD MLOAD DUP3 PUSH1 0x40 ADD MLOAD DUP4 PUSH1 0x60 ADD MLOAD DUP5 PUSH1 0x80 ADD MLOAD SWAP7 POP SWAP7 POP SWAP7 POP SWAP7 POP SWAP7 POP POP POP SWAP2 SWAP4 SWAP6 SWAP1 SWAP3 SWAP5 POP JUMP JUMPDEST PUSH1 0x1 PUSH1 0x20 MSTORE DUP1 PUSH0 MSTORE PUSH1 0x40 PUSH0 KECCAK256 PUSH0 SWAP2 POP SLOAD SWAP1 PUSH2 0x100 EXP SWAP1 DIV PUSH1 0xFF AND DUP2 JUMP JUMPDEST PUSH1 0x1 PUSH0 CALLER PUSH20 0xFFFFFFFFFFFFFFFFFFFFFFFFFFFFFFFFFFFFFFFF AND PUSH20 0xFFFFFFFFFFFFFFFFFFFFFFFFFFFFFFFFFFFFFFFF AND DUP2 MSTORE PUSH1 0x20 ADD SWAP1 DUP2 MSTORE PUSH1 0x20 ADD PUSH0 KECCAK256 PUSH0 SWAP1 SLOAD SWAP1 PUSH2 0x100 EXP SWAP1 DIV PUSH1 0xFF AND ISZERO PUSH2 0x52A JUMPI PUSH1 0x40 MLOAD PUSH32 0x8C379A000000000000000000000000000000000000000000000000000000000 DUP2 MSTORE PUSH1 0x4 ADD PUSH2 0x521 SWAP1 PUSH2 0xC39 JUMP JUMPDEST PUSH1 0x40 MLOAD DUP1 SWAP2 SUB SWAP1 REVERT JUMPDEST PUSH1 0x4 DUP2 PUSH1 0xFF AND GT ISZERO PUSH2 0x571 JUMPI PUSH1 0x40 MLOAD PUSH32 0x8C379A000000000000000000000000000000000000000000000000000000000 DUP2 MSTORE PUSH1 0x4 ADD PUSH2 0x568 SWAP1 PUSH2 0xCA1 JUMP JUMPDEST PUSH1 0x40 MLOAD DUP1 SWAP2 SUB SWAP1 REVERT JUMPDEST PUSH0 DUP1 DUP1 SLOAD SWAP1 POP SWAP1 POP PUSH0 PUSH1 0x40 MLOAD DUP1 PUSH1 0xA0 ADD PUSH1 0x40 MSTORE DUP1 DUP4 DUP2 MSTORE PUSH1 0x20 ADD DUP6 DUP2 MSTORE PUSH1 0x20 ADD CALLER PUSH20 0xFFFFFFFFFFFFFFFFFFFFFFFFFFFFFFFFFFFFFFFF AND DUP2 MSTORE PUSH1 0x20 ADD DUP5 PUSH1 0xFF AND DUP2 MSTORE PUSH1 0x20 ADD PUSH0 DUP2 MSTORE POP SWAP1 DUP1 PUSH1 0x1 DUP2 SLOAD ADD DUP1 DUP3 SSTORE DUP1 SWAP2 POP POP PUSH1 0x1 SWAP1 SUB SWAP1 PUSH0 MSTORE PUSH1 0x20 PUSH0 KECCAK256 SWAP1 PUSH1 0x4 MUL ADD PUSH0 SWAP1 SWAP2 SWAP1 SWAP2 SWAP1 SWAP2 POP PUSH0 DUP3 ADD MLOAD DUP2 PUSH0 ADD SSTORE PUSH1 0x20 DUP3 ADD MLOAD DUP2 PUSH1 0x1 ADD SWAP1 DUP2 PUSH2 0x5FD SWAP2 SWAP1 PUSH2 0xE5C JUMP JUMPDEST POP PUSH1 0x40 DUP3 ADD MLOAD DUP2 PUSH1 0x2 ADD PUSH0 PUSH2 0x100 EXP DUP2 SLOAD DUP2 PUSH20 0xFFFFFFFFFFFFFFFFFFFFFFFFFFFFFFFFFFFFFFFF MUL NOT AND SWAP1 DUP4 PUSH20 0xFFFFFFFFFFFFFFFFFFFFFFFFFFFFFFFFFFFFFFFF AND MUL OR SWAP1 SSTORE POP PUSH1 0x60 DUP3 ADD MLOAD DUP2 PUSH1 0x2 ADD PUSH1 0x14 PUSH2 0x100 EXP DUP2 SLOAD DUP2 PUSH1 0xFF MUL NOT AND SWAP1 DUP4 PUSH1 0xFF AND MUL OR SWAP1 SSTORE POP PUSH1 0x80 DUP3 ADD MLOAD DUP2 PUSH1 0x3 ADD SSTORE POP POP PUSH1 0x1 DUP1 PUSH0 CALLER PUSH20 0xFFFFFFFFFFFFFFFFFFFFFFFFFFFFFFFFFFFFFFFF AND PUSH20 0xFFFFFFFFFFFFFFFFFFFFFFFFFFFFFFFFFFFFFFFF AND DUP2 MSTORE PUSH1 0x20 ADD SWAP1 DUP2 MSTORE PUSH1 0x20 ADD PUSH0 KECCAK256 PUSH0 PUSH2 0x100 EXP DUP2 SLOAD DUP2 PUSH1 0xFF MUL NOT AND SWAP1 DUP4 ISZERO ISZERO MUL OR SWAP1 SSTORE POP DUP1 PUSH1 0x2 PUSH0 CALLER PUSH20 0xFFFFFFFFFFFFFFFFFFFFFFFFFFFFFFFFFFFFFFFF AND PUSH20 0xFFFFFFFFFFFFFFFFFFFFFFFFFFFFFFFFFFFFFFFF AND DUP2 MSTORE PUSH1 0x20 ADD SWAP1 DUP2 MSTORE PUSH1 0x20 ADD PUSH0 KECCAK256 DUP2 SWAP1 SSTORE POP POP POP POP JUMP JUMPDEST PUSH0 PUSH1 0x40 MLOAD SWAP1 POP SWAP1 JUMP JUMPDEST PUSH0 DUP1 REVERT JUMPDEST PUSH0 DUP1 REVERT JUMPDEST PUSH0 DUP2 SWAP1 POP SWAP2 SWAP1 POP JUMP JUMPDEST PUSH2 0x72F DUP2 PUSH2 0x71D JUMP JUMPDEST DUP2 EQ PUSH2 0x739 JUMPI PUSH0 DUP1 REVERT JUMPDEST POP JUMP JUMPDEST PUSH0 DUP2 CALLDATALOAD SWAP1 POP PUSH2 0x74A DUP2 PUSH2 0x726 JUMP JUMPDEST SWAP3 SWAP2 POP POP JUMP JUMPDEST PUSH0 PUSH1 0x20 DUP3 DUP5 SUB SLT ISZERO PUSH2 0x765 JUMPI PUSH2 0x764 PUSH2 0x715 JUMP JUMPDEST JUMPDEST PUSH0 PUSH2 0x772 DUP5 DUP3 DUP6 ADD PUSH2 0x73C JUMP JUMPDEST SWAP2 POP POP SWAP3 SWAP2 POP POP JUMP JUMPDEST PUSH2 0x784 DUP2 PUSH2 0x71D JUMP JUMPDEST DUP3 MSTORE POP POP JUMP JUMPDEST PUSH0 DUP2 MLOAD SWAP1 POP SWAP2 SWAP1 POP JUMP JUMPDEST PUSH0 DUP3 DUP3 MSTORE PUSH1 0x20 DUP3 ADD SWAP1 POP SWAP3 SWAP2 POP POP JUMP JUMPDEST DUP3 DUP2 DUP4 MCOPY PUSH0 DUP4 DUP4 ADD MSTORE POP POP POP JUMP JUMPDEST PUSH0 PUSH1 0x1F NOT PUSH1 0x1F DUP4 ADD AND SWAP1 POP SWAP2 SWAP1 POP JUMP JUMPDEST PUSH0 PUSH2 0x7CC DUP3 PUSH2 0x78A JUMP JUMPDEST PUSH2 0x7D6 DUP2 DUP6 PUSH2 0x794 JUMP JUMPDEST SWAP4 POP PUSH2 0x7E6 DUP2 DUP6 PUSH1 0x20 DUP7 ADD PUSH2 0x7A4 JUMP JUMPDEST PUSH2 0x7EF DUP2 PUSH2 0x7B2 JUMP JUMPDEST DUP5 ADD SWAP2 POP POP SWAP3 SWAP2 POP POP JUMP JUMPDEST PUSH0 PUSH20 0xFFFFFFFFFFFFFFFFFFFFFFFFFFFFFFFFFFFFFFFF DUP3 AND SWAP1 POP SWAP2 SWAP1 POP JUMP JUMPDEST PUSH0 PUSH2 0x823 DUP3 PUSH2 0x7FA JUMP JUMPDEST SWAP1 POP SWAP2 SWAP1 POP JUMP JUMPDEST PUSH2 0x833 DUP2 PUSH2 0x819 JUMP JUMPDEST DUP3 MSTORE POP POP JUMP JUMPDEST PUSH0 PUSH1 0xFF DUP3 AND SWAP1 POP SWAP2 SWAP1 POP JUMP JUMPDEST PUSH2 0x84E DUP2 PUSH2 0x839 JUMP JUMPDEST DUP3 MSTORE POP POP JUMP JUMPDEST PUSH0 PUSH1 0xA0 DUP3 ADD SWAP1 POP PUSH2 0x867 PUSH0 DUP4 ADD DUP9 PUSH2 0x77B JUMP JUMPDEST DUP2 DUP2 SUB PUSH1 0x20 DUP4 ADD MSTORE PUSH2 0x879 DUP2 DUP8 PUSH2 0x7C2 JUMP JUMPDEST SWAP1 POP PUSH2 0x888 PUSH1 0x40 DUP4 ADD DUP7 PUSH2 0x82A JUMP JUMPDEST PUSH2 0x895 PUSH1 0x60 DUP4 ADD DUP6 PUSH2 0x845 JUMP JUMPDEST PUSH2 0x8A2 PUSH1 0x80 DUP4 ADD DUP5 PUSH2 0x77B JUMP JUMPDEST SWAP7 SWAP6 POP POP POP POP POP POP JUMP JUMPDEST PUSH2 0x8B5 DUP2 PUSH2 0x819 JUMP JUMPDEST DUP2 EQ PUSH2 0x8BF JUMPI PUSH0 DUP1 REVERT JUMPDEST POP JUMP JUMPDEST PUSH0 DUP2 CALLDATALOAD SWAP1 POP PUSH2 0x8D0 DUP2 PUSH2 0x8AC JUMP JUMPDEST SWAP3 SWAP2 POP POP JUMP JUMPDEST PUSH0 PUSH1 0x20 DUP3 DUP5 SUB SLT ISZERO PUSH2 0x8EB JUMPI PUSH2 0x8EA PUSH2 0x715 JUMP JUMPDEST JUMPDEST PUSH0 PUSH2 0x8F8 DUP5 DUP3 DUP6 ADD PUSH2 0x8C2 JUMP JUMPDEST SWAP2 POP POP SWAP3 SWAP2 POP POP JUMP JUMPDEST PUSH0 PUSH1 0x20 DUP3 ADD SWAP1 POP PUSH2 0x914 PUSH0 DUP4 ADD DUP5 PUSH2 0x77B JUMP JUMPDEST SWAP3 SWAP2 POP POP JUMP JUMPDEST PUSH0 DUP2 ISZERO ISZERO SWAP1 POP SWAP2 SWAP1 POP JUMP JUMPDEST PUSH2 0x92E DUP2 PUSH2 0x91A JUMP JUMPDEST DUP3 MSTORE POP POP JUMP JUMPDEST PUSH0 PUSH1 0x20 DUP3 ADD SWAP1 POP PUSH2 0x947 PUSH0 DUP4 ADD DUP5 PUSH2 0x925 JUMP JUMPDEST SWAP3 SWAP2 POP POP JUMP JUMPDEST PUSH0 DUP1 REVERT JUMPDEST PUSH0 DUP1 REVERT JUMPDEST PUSH32 0x4E487B7100000000000000000000000000000000000000000000000000000000 PUSH0 MSTORE PUSH1 0x41 PUSH1 0x4 MSTORE PUSH1 0x24 PUSH0 REVERT JUMPDEST PUSH2 0x98B DUP3 PUSH2 0x7B2 JUMP JUMPDEST DUP2 ADD DUP2 DUP2 LT PUSH8 0xFFFFFFFFFFFFFFFF DUP3 GT OR ISZERO PUSH2 0x9AA JUMPI PUSH2 0x9A9 PUSH2 0x955 JUMP JUMPDEST JUMPDEST DUP1 PUSH1 0x40 MSTORE POP POP POP JUMP JUMPDEST PUSH0 PUSH2 0x9BC PUSH2 0x70C JUMP JUMPDEST SWAP1 POP PUSH2 0x9C8 DUP3 DUP3 PUSH2 0x982 JUMP JUMPDEST SWAP2 SWAP1 POP JUMP JUMPDEST PUSH0 PUSH8 0xFFFFFFFFFFFFFFFF DUP3 GT ISZERO PUSH2 0x9E7 JUMPI PUSH2 0x9E6 PUSH2 0x955 JUMP JUMPDEST JUMPDEST PUSH2 0x9F0 DUP3 PUSH2 0x7B2 JUMP JUMPDEST SWAP1 POP PUSH1 0x20 DUP2 ADD SWAP1 POP SWAP2 SWAP1 POP JUMP JUMPDEST DUP3 DUP2 DUP4 CALLDATACOPY PUSH0 DUP4 DUP4 ADD MSTORE POP POP POP JUMP JUMPDEST PUSH0 PUSH2 0xA1D PUSH2 0xA18 DUP5 PUSH2 0x9CD JUMP JUMPDEST PUSH2 0x9B3 JUMP JUMPDEST SWAP1 POP DUP3 DUP2 MSTORE PUSH1 0x20 DUP2 ADD DUP5 DUP5 DUP5 ADD GT ISZERO PUSH2 0xA39 JUMPI PUSH2 0xA38 PUSH2 0x951 JUMP JUMPDEST JUMPDEST PUSH2 0xA44 DUP5 DUP3 DUP6 PUSH2 0x9FD JUMP JUMPDEST POP SWAP4 SWAP3 POP POP POP JUMP JUMPDEST PUSH0 DUP3 PUSH1 0x1F DUP4 ADD SLT PUSH2 0xA60 JUMPI PUSH2 0xA5F PUSH2 0x94D JUMP JUMPDEST JUMPDEST DUP2 CALLDATALOAD PUSH2 0xA70 DUP5 DUP3 PUSH1 0x20 DUP7 ADD PUSH2 0xA0B JUMP JUMPDEST SWAP2 POP POP SWAP3 SWAP2 POP POP JUMP JUMPDEST PUSH2 0xA82 DUP2 PUSH2 0x839 JUMP JUMPDEST DUP2 EQ PUSH2 0xA8C JUMPI PUSH0 DUP1 REVERT JUMPDEST POP JUMP JUMPDEST PUSH0 DUP2 CALLDATALOAD SWAP1 POP PUSH2 0xA9D DUP2 PUSH2 0xA79 JUMP JUMPDEST SWAP3 SWAP2 POP POP JUMP JUMPDEST PUSH0 DUP1 PUSH1 0x40 DUP4 DUP6 SUB SLT ISZERO PUSH2 0xAB9 JUMPI PUSH2 0xAB8 PUSH2 0x715 JUMP JUMPDEST JUMPDEST PUSH0 DUP4 ADD CALLDATALOAD PUSH8 0xFFFFFFFFFFFFFFFF DUP2 GT ISZERO PUSH2 0xAD6 JUMPI PUSH2 0xAD5 PUSH2 0x719 JUMP JUMPDEST JUMPDEST PUSH2 0xAE2 DUP6 DUP3 DUP7 ADD PUSH2 0xA4C JUMP JUMPDEST SWAP3 POP POP PUSH1 0x20 PUSH2 0xAF3 DUP6 DUP3 DUP7 ADD PUSH2 0xA8F JUMP JUMPDEST SWAP2 POP POP SWAP3 POP SWAP3 SWAP1 POP JUMP JUMPDEST PUSH32 0x4E487B7100000000000000000000000000000000000000000000000000000000 PUSH0 MSTORE PUSH1 0x22 PUSH1 0x4 MSTORE PUSH1 0x24 PUSH0 REVERT JUMPDEST PUSH0 PUSH1 0x2 DUP3 DIV SWAP1 POP PUSH1 0x1 DUP3 AND DUP1 PUSH2 0xB41 JUMPI PUSH1 0x7F DUP3 AND SWAP2 POP JUMPDEST PUSH1 0x20 DUP3 LT DUP2 SUB PUSH2 0xB54 JUMPI PUSH2 0xB53 PUSH2 0xAFD JUMP JUMPDEST JUMPDEST POP SWAP2 SWAP1 POP JUMP JUMPDEST PUSH32 0x446F6E6F72206E6F742072656769737465726564000000000000000000000000 PUSH0 DUP3 ADD MSTORE POP JUMP JUMPDEST PUSH0 PUSH2 0xB8E PUSH1 0x14 DUP4 PUSH2 0x794 JUMP JUMPDEST SWAP2 POP PUSH2 0xB99 DUP3 PUSH2 0xB5A JUMP JUMPDEST PUSH1 0x20 DUP3 ADD SWAP1 POP SWAP2 SWAP1 POP JUMP JUMPDEST PUSH0 PUSH1 0x20 DUP3 ADD SWAP1 POP DUP2 DUP2 SUB PUSH0 DUP4 ADD MSTORE PUSH2 0xBBB DUP2 PUSH2 0xB82 JUMP JUMPDEST SWAP1 POP SWAP2 SWAP1 POP JUMP JUMPDEST PUSH32 0x4E487B7100000000000000000000000000000000000000000000000000000000 PUSH0 MSTORE PUSH1 0x32 PUSH1 0x4 MSTORE PUSH1 0x24 PUSH0 REVERT JUMPDEST PUSH32 0x446F6E6F7220616C726561647920726567697374657265640000000000000000 PUSH0 DUP3 ADD MSTORE POP JUMP JUMPDEST PUSH0 PUSH2 0xC23 PUSH1 0x18 DUP4 PUSH2 0x794 JUMP JUMPDEST SWAP2 POP PUSH2 0xC2E DUP3 PUSH2 0xBEF JUMP JUMPDEST PUSH1 0x20 DUP3 ADD SWAP1 POP SWAP2 SWAP1 POP JUMP JUMPDEST PUSH0 PUSH1 0x20 DUP3 ADD SWAP1 POP DUP2 DUP2 SUB PUSH0 DUP4 ADD MSTORE PUSH2 0xC50 DUP2 PUSH2 0xC17 JUMP JUMPDEST SWAP1 POP SWAP2 SWAP1 POP JUMP JUMPDEST PUSH32 0x496E76616C6964206C6576656C00000000000000000000000000000000000000 PUSH0 DUP3 ADD MSTORE POP JUMP JUMPDEST PUSH0 PUSH2 0xC8B PUSH1 0xD DUP4 PUSH2 0x794 JUMP JUMPDEST SWAP2 POP PUSH2 0xC96 DUP3 PUSH2 0xC57 JUMP JUMPDEST PUSH1 0x20 DUP3 ADD SWAP1 POP SWAP2 SWAP1 POP JUMP JUMPDEST PUSH0 PUSH1 0x20 DUP3 ADD SWAP1 POP DUP2 DUP2 SUB PUSH0 DUP4 ADD MSTORE PUSH2 0xCB8 DUP2 PUSH2 0xC7F JUMP JUMPDEST SWAP1 POP SWAP2 SWAP1 POP JUMP JUMPDEST PUSH0 DUP2 SWAP1 POP DUP2 PUSH0 MSTORE PUSH1 0x20 PUSH0 KECCAK256 SWAP1 POP SWAP2 SWAP1 POP JUMP JUMPDEST PUSH0 PUSH1 0x20 PUSH1 0x1F DUP4 ADD DIV SWAP1 POP SWAP2 SWAP1 POP JUMP JUMPDEST PUSH0 DUP3 DUP3 SHL SWAP1 POP SWAP3 SWAP2 POP POP JUMP JUMPDEST PUSH0 PUSH1 0x8 DUP4 MUL PUSH2 0xD1B PUSH32 0xFFFFFFFFFFFFFFFFFFFFFFFFFFFFFFFFFFFFFFFFFFFFFFFFFFFFFFFFFFFFFFFF DUP3 PUSH2 0xCE0 JUMP JUMPDEST PUSH2 0xD25 DUP7 DUP4 PUSH2 0xCE0 JUMP JUMPDEST SWAP6 POP DUP1 NOT DUP5 AND SWAP4 POP DUP1 DUP7 AND DUP5 OR SWAP3 POP POP POP SWAP4 SWAP3 POP POP POP JUMP JUMPDEST PUSH0 DUP2 SWAP1 POP SWAP2 SWAP1 POP JUMP JUMPDEST PUSH0 PUSH2 0xD60 PUSH2 0xD5B PUSH2 0xD56 DUP5 PUSH2 0x71D JUMP JUMPDEST PUSH2 0xD3D JUMP JUMPDEST PUSH2 0x71D JUMP JUMPDEST SWAP1 POP SWAP2 SWAP1 POP JUMP JUMPDEST PUSH0 DUP2 SWAP1 POP SWAP2 SWAP1 POP JUMP JUMPDEST PUSH2 0xD79 DUP4 PUSH2 0xD46 JUMP JUMPDEST PUSH2 0xD8D PUSH2 0xD85 DUP3 PUSH2 0xD67 JUMP JUMPDEST DUP5 DUP5 SLOAD PUSH2 0xCEC JUMP JUMPDEST DUP3 SSTORE POP POP POP POP JUMP JUMPDEST PUSH0 SWAP1 JUMP JUMPDEST PUSH2 0xDA1 PUSH2 0xD95 JUMP JUMPDEST PUSH2 0xDAC DUP2 DUP5 DUP5 PUSH2 0xD70 JUMP JUMPDEST POP POP POP JUMP JUMPDEST JUMPDEST DUP2 DUP2 LT ISZERO PUSH2 0xDCF JUMPI PUSH2 0xDC4 PUSH0 DUP3 PUSH2 0xD99 JUMP JUMPDEST PUSH1 0x1 DUP2 ADD SWAP1 POP PUSH2 0xDB2 JUMP JUMPDEST POP POP JUMP JUMPDEST PUSH1 0x1F DUP3 GT ISZERO PUSH2 0xE14 JUMPI PUSH2 0xDE5 DUP2 PUSH2 0xCBF JUMP JUMPDEST PUSH2 0xDEE DUP5 PUSH2 0xCD1 JUMP JUMPDEST DUP2 ADD PUSH1 0x20 DUP6 LT ISZERO PUSH2 0xDFD JUMPI DUP2 SWAP1 POP JUMPDEST PUSH2 0xE11 PUSH2 0xE09 DUP6 PUSH2 0xCD1 JUMP JUMPDEST DUP4 ADD DUP3 PUSH2 0xDB1 JUMP JUMPDEST POP POP JUMPDEST POP POP POP JUMP JUMPDEST PUSH0 DUP3 DUP3 SHR SWAP1 POP SWAP3 SWAP2 POP POP JUMP JUMPDEST PUSH0 PUSH2 0xE34 PUSH0 NOT DUP5 PUSH1 0x8 MUL PUSH2 0xE19 JUMP JUMPDEST NOT DUP1 DUP4 AND SWAP2 POP POP SWAP3 SWAP2 POP POP JUMP JUMPDEST PUSH0 PUSH2 0xE4C DUP4 DUP4 PUSH2 0xE25 JUMP JUMPDEST SWAP2 POP DUP3 PUSH1 0x2 MUL DUP3 OR SWAP1 POP SWAP3 SWAP2 POP POP JUMP JUMPDEST PUSH2 0xE65 DUP3 PUSH2 0x78A JUMP JUMPDEST PUSH8 0xFFFFFFFFFFFFFFFF DUP2 GT ISZERO PUSH2 0xE7E JUMPI PUSH2 0xE7D PUSH2 0x955 JUMP JUMPDEST JUMPDEST PUSH2 0xE88 DUP3 SLOAD PUSH2 0xB2A JUMP JUMPDEST PUSH2 0xE93 DUP3 DUP3 DUP6 PUSH2 0xDD3 JUMP JUMPDEST PUSH0 PUSH1 0x20 SWAP1 POP PUSH1 0x1F DUP4 GT PUSH1 0x1 DUP2 EQ PUSH2 0xEC4 JUMPI PUSH0 DUP5 ISZERO PUSH2 0xEB2 JUMPI DUP3 DUP8 ADD MLOAD SWAP1 POP JUMPDEST PUSH2 0xEBC DUP6 DUP3 PUSH2 0xE41 JUMP JUMPDEST DUP7 SSTORE POP PUSH2 0xF23 JUMP JUMPDEST PUSH1 0x1F NOT DUP5 AND PUSH2 0xED2 DUP7 PUSH2 0xCBF JUMP JUMPDEST PUSH0 JUMPDEST DUP3 DUP2 LT ISZERO PUSH2 0xEF9 JUMPI DUP5 DUP10 ADD MLOAD DUP3 SSTORE PUSH1 0x1 DUP3 ADD SWAP2 POP PUSH1 0x20 DUP6 ADD SWAP5 POP PUSH1 0x20 DUP2 ADD SWAP1 POP PUSH2 0xED4 JUMP JUMPDEST DUP7 DUP4 LT ISZERO PUSH2 0xF16 JUMPI DUP5 DUP10 ADD MLOAD PUSH2 0xF12 PUSH1 0x1F DUP10 AND DUP3 PUSH2 0xE25 JUMP JUMPDEST DUP4 SSTORE POP JUMPDEST PUSH1 0x1 PUSH1 0x2 DUP9 MUL ADD DUP9 SSTORE POP POP POP JUMPDEST POP POP POP POP POP POP JUMP INVALID LOG2 PUSH5 0x6970667358 0x22 SLT KECCAK256 0xDC JUMPI SWAP10 SWAP4 PUSH13 0x9B91B9847CFE74EA33A4CAB0AC SWAP5 0xD5 DUP2 0xB3 PUSH20 0xB2D8E00DCCBBADC23164736F6C634300081A0033 "
				},
				"gasEstimates": {
					"creation": {
						"codeDepositCost": "787400",
						"executionCost": "823",
						"totalCost": "788223"
					},
					"external": {
						"donorIds(address)": "2802",
						"donors(uint256)": "infinite",
						"getDonor(address)": "infinite",
						"isRegistered(address)": "2877",
						"signUp(string,uint8)": "infinite"
					}
				},
				"methodIdentifiers": {
					"donorIds(address)": "6d7ea917",
					"donors(uint256)": "4abfa163",
					"getDonor(address)": "96c59043",
					"isRegistered(address)": "c3c5a547",
					"signUp(string,uint8)": "c79a2b2b"
				}
			},
			"storageLayout": {
				"storage": [
					{
						"astId": 16,
						"contract": "contracts/donor.sol:DonorManager",
						"label": "donors",
						"offset": 0,
						"slot": "0",
						"type": "t_array(t_struct(Donor)12_storage)dyn_storage"
					},
					{
						"astId": 20,
						"contract": "contracts/donor.sol:DonorManager",
						"label": "isRegistered",
						"offset": 0,
						"slot": "1",
						"type": "t_mapping(t_address,t_bool)"
					},
					{
						"astId": 24,
						"contract": "contracts/donor.sol:DonorManager",
						"label": "donorIds",
						"offset": 0,
						"slot": "2",
						"type": "t_mapping(t_address,t_uint256)"
					}
				],
				"types": {
					"t_address": {
						"encoding": "inplace",
						"label": "address",
						"numberOfBytes": "20"
					},
					"t_array(t_struct(Donor)12_storage)dyn_storage": {
						"base": "t_struct(Donor)12_storage",
						"encoding": "dynamic_array",
						"label": "struct DonorManager.Donor[]",
						"numberOfBytes": "32"
					},
					"t_bool": {
						"encoding": "inplace",
						"label": "bool",
						"numberOfBytes": "1"
					},
					"t_mapping(t_address,t_bool)": {
						"encoding": "mapping",
						"key": "t_address",
						"label": "mapping(address => bool)",
						"numberOfBytes": "32",
						"value": "t_bool"
					},
					"t_mapping(t_address,t_uint256)": {
						"encoding": "mapping",
						"key": "t_address",
						"label": "mapping(address => uint256)",
						"numberOfBytes": "32",
						"value": "t_uint256"
					},
					"t_string_storage": {
						"encoding": "bytes",
						"label": "string",
						"numberOfBytes": "32"
					},
					"t_struct(Donor)12_storage": {
						"encoding": "inplace",
						"label": "struct DonorManager.Donor",
						"members": [
							{
								"astId": 3,
								"contract": "contracts/donor.sol:DonorManager",
								"label": "id",
								"offset": 0,
								"slot": "0",
								"type": "t_uint256"
							},
							{
								"astId": 5,
								"contract": "contracts/donor.sol:DonorManager",
								"label": "name",
								"offset": 0,
								"slot": "1",
								"type": "t_string_storage"
							},
							{
								"astId": 7,
								"contract": "contracts/donor.sol:DonorManager",
								"label": "wallet",
								"offset": 0,
								"slot": "2",
								"type": "t_address"
							},
							{
								"astId": 9,
								"contract": "contracts/donor.sol:DonorManager",
								"label": "level",
								"offset": 20,
								"slot": "2",
								"type": "t_uint8"
							},
							{
								"astId": 11,
								"contract": "contracts/donor.sol:DonorManager",
								"label": "reputation",
								"offset": 0,
								"slot": "3",
								"type": "t_uint256"
							}
						],
						"numberOfBytes": "128"
					},
					"t_uint256": {
						"encoding": "inplace",
						"label": "uint256",
						"numberOfBytes": "32"
					},
					"t_uint8": {
						"encoding": "inplace",
						"label": "uint8",
						"numberOfBytes": "1"
					}
				}
			},
			"userdoc": {
				"kind": "user",
				"methods": {},
				"version": 1
			}
		}
	}
}